:020000040800F2
:10000000681A002045010008FD230008FF230008AE
:1000100003240008072400080B2400080000000047
:100020000000000000000000000000000F24000895
:100030001124000800000000132400081524000803
:100040005F0100085F0100085F0100085F01000810
:100050005F0100085F0100085F0100085F01000800
:100060005F0100085F0100085F0100085F010008F0
:100070005F010008175D00082327000845270008D6
:10008000914500085F0100085F0100085F0100085A
:100090005F0100085F0100085F0100085F010008C0
:1000A0005F0100085F0100085F0100085F010008B0
:1000B000D54A0008934B00082B4C00085F0100084C
:1000C0005F0100085F0100085F0100085F01000890
:1000D0005F010008BD26000831430008915C00085C
:1000E0005F0100085F0100085F0100085F01000870
:1000F0005F0100085F0100085F0100085F01000860
:100100005F0100085F010008C34C00085F010008A0
:10011000634400085F010008A15100085F01000866
:100120005F0100085F010008C14500085F01000889
:10013000DFF80CD006F0CCFB00480047ED230008A8
:10014000681A00200648804706480047FEE7FEE799
:10015000FEE7FEE7FEE7FEE7FEE7FEE7FEE7FEE777
:1001600047020008310100080CB500200190009002
:100170006C48006840F480306A49086000BF6948F4
:10018000006800F4003000900198401C0190009835
:1001900018B90198B0F5A06FF1D16248006800F479
:1001A000003010B10120009001E000200090009884
:1001B000012843D15C48006840F010005A490860AB
:1001C0000846006820F0030008600846006840F018
:1001D0000200086053484068524948600846406839
:1001E00048600846406840F48060486008464068BF
:1001F00020F47C1048600846406840F4E8104860ED
:100200000846006840F08070086000BF45480068FC
:1002100000F000700028F9D04248406820F0030048
:10022000404948600846406840F00200486000BF0E
:100230003C48406800F00C000828F9D10CBD10B50E
:10024000FFF792FF10BD10B53648006840F001007E
:1002500034490860084640683449084031494860DC
:1002600008460068324908402E4908600846006880
:1002700020F4802008600846406820F4FE004860B2
:100280004FF41F008860FFF7DAFF4FF00060294944
:10029000086010BD10B5002100200022214B5B68D2
:1002A00003F00C0121B1042906D0082928D107E068
:1002B000214B224C236027E01F4B204C236023E07E
:1002C000184B5B6803F47010164B5B6803F48032C4
:1002D000022303EB904022B9194B4343174C236090
:1002E0000DE0104B5B6803F4003323B1144B434320
:1002F000124C236003E0104B4343104C236003E097
:100300000D4B0E4C236000BF00BF064B5B68C3F370
:1003100003130C4CE15C094B1B68CB40074C23607A
:1003200010BD000000100240002002400000FFF855
:10033000FFFFF6FE08ED00E000127A00000000204A
:1003400000093D000400002031490143314A116099
:10035000704770B5002100230F22C47804B32D4CE0
:10036000246804F4E064C4F5E064210AC1F10403E4
:10037000CA40447804FA03F1847814402143090107
:10038000254C0678A155047804F01F050124AC40E3
:1003900005786D11AD0005F1E025C5F8004109E0D3
:1003A000047804F01F050124AC401C4D067876113A
:1003B00045F8264070BD1A4A0A400243154B1B1FE0
:1003C0001A60704739B1134A121D12680243114B6B
:1003D0001B1D1A6006E00F4A121D126882430D4B66
:1003E0001B1D1A607047042808D14FF0E0210969ED
:1003F00041F004014FF0E022116107E04FF0E021ED
:10040000096921F004014FF0E022116170470000FA
:100410000000FA050CED00E000E400E080E100E0FF
:1004200080FFFF1F10B50446FA48844208D101211D
:10043000401500F07FFE0021601500F07BFE17E004
:10044000F548844208D10121001500F073FE002117
:10045000201500F06FFE0BE0F048844208D1012126
:10046000C80300F067FE00214FF4004000F062FE78
:1004700010BD30B50246002000235068E84C2040F3
:100480000D790C6844EA0524204350609068E54CDF
:100490002040D1E902542C434D7944EA45042043DD
:1004A0009060D06A20F470000C7C641EE4B2234398
:1004B00040EA0350D06230BD0021016001714171FA
:1004C0008160C16001210174704721B1826842F0EE
:1004D0000102826003E0826822F0010282607047BC
:1004E00021B1826842F48072826003E0826822F463
:1004F00080728260704710B50023CBB21AB1446895
:100500001C43446002E044689C43446010BD816821
:1005100041F0080181607047014600208A6802F0BE
:1005200008020AB1012000E000207047816841F014
:10053000040181607047014600208A6802F00402CD
:100540000AB1012000E00020704721B1826842F426
:10055000A002826003E0826822F4A00282607047F9
:10056000014600208A6802F480020AB1012000E0FE
:100570000020704710B50A4600210023416821F48D
:100580006041531E41EA4331416010BD21B14268D0
:1005900042F40062426003E0426822F4006242607A
:1005A0007047F0B504460D4600200021092D11DDED
:1005B000E068A5F10A0606EB4607072606FA07F1EA
:1005C0008843A5F10A0606EB460603FA06F108433E
:1005D000E0600CE0206905EB4507072606FA07F105
:1005E000884305EB450603FA06F108432061072A14
:1005F0000FDA606B561E06EB86071F2606FA07F118
:100600008843561E06EB860605FA06F1084360632A
:1006100022E00D2A0FDA206BD61F06EB86071F2675
:1006200006FA07F18843D61F06EB860605FA06F19F
:100630000843206310E0E06AA2F10D0606EB86078E
:100640001F2606FA07F18843A2F10D0606EB86067F
:1006500005FA06F10843E062F0BD21B1826842F478
:100660008012826003E0826822F480128260704708
:100670000146C86C80B2704766484C3000687047CD
:1006800021B1426842F48062426003E0426822F491
:1006900080624260704721B1426842F480524260F9
:1006A00003E0426822F48052426070470A4600210B
:1006B000816821F4E04111438160704721B1826873
:1006C00042F40042826003E0826822F400428260C9
:1006D000704721B1826842F40212826003E08268AE
:1006E00022F4021282607047014600208A6802F4F8
:1006F00000120AB1012000E000207047F0B5044666
:100700001546002000220026092911DDE068A1F12C
:100710000A0707EB470C072707FA0CF29043A1F1F1
:100720000A0707EB470703FA07F21043E0600CE003
:10073000206901EB410C072707FA0CF2904301EB0B
:10074000410703FA07F210432061A06BC0F3015682
:10075000EF1C06F1010CA7EB0C0707EB870C1F271A
:1007600007FA0CF29043EF1C06F1010CA7EB0C0703
:1007700007EB870701FA07F21043A063F0BD10B53D
:100780000A4600210023816B21F44011531E41EAE7
:100790000351816310BD08B5002300930090009BB6
:1007A0000B440093009B1A6008BD08B50246002068
:1007B0000090009201F12800009B184400900098DE
:1007C000006880B208BD0A4600214168164B1940F6
:1007D0001143416070474162826270470A460021BE
:1007E000416821F01F0111434160704740B1094940
:1007F0000831096841F40001064A0832116007E037
:1008000004490831096821F40001024A08321160E4
:10081000704700000024014000280140003C0140D6
:10082000FFFEF0FFFDF7F1FFFFFD3FFF0246002056
:1008300013680B400BB1012000E000207047CA4351
:100840000260704770B502460020002300240B129E
:100850005568CEB205EA060415681D4015B10CB105
:10086000012000E0002070BD00220A12D343036083
:100870007047000001684FF6FE72114001600021D0
:10088000016041608160C1608D49884208D18C4916
:100890000839496841F00F01894A083A51608AE0F5
:1008A00087491431884208D185490839496841F09F
:1008B000F001834A083A51607DE08149283188423D
:1008C00008D17F490839496841F470617C4A083A87
:1008D000516070E07A493C31884208D17849083942
:1008E000496841F47041764A083A516063E07449BE
:1008F0005031884208D172490839496841F4702161
:100900006F4A083A516056E06D496431884208D117
:100910006B490839496841F47001694A083A5160E5
:1009200049E067497831884208D165490839496802
:1009300041F07061624A083A51603CE06149884286
:1009400006D1011F096841F00F01021F116032E05A
:100950005C491431884208D15A49091F096841F09D
:10096000F001584A121F116025E05649283188428B
:1009700008D15449091F096841F47061514A121F96
:10098000116018E04F493C31884208D14D49091F98
:10099000096841F470414B4A121F11600BE049494C
:1009A0005031884207D14749091F096841F4702135
:1009B000444A121F1160704710B50022026847F6C2
:1009C000F0739A430C6A8B6823430C6923434C6988
:1009D00023438C692343CC6923434C6A23438C6AA9
:1009E00023431A430260CB6843600B6883604B6803
:1009F000C36010BD0021016041608160C160016180
:100A000041618161C161016241628162704721B1CE
:100A1000026842F00102026004E002684FF6FE73D1
:100A20001A40026070471AB103680B43036002E08A
:100A300003688B4303607047416070470146486814
:100A400080B2704701460020002201F080531BB1A4
:100A50001C4B083B1A6802E0194B083B1A6802EA73
:100A600001030BB1012000E00020704700F080512D
:100A700019B11449091F086002E01149083948609A
:100A8000704701460020002201F080531BB10D4B3E
:100A9000083B1A6802E00A4B083B1A6802EA0103A5
:100AA0000BB1012000E00020704700F0805119B127
:100AB0000449091F086002E001490839486070478D
:100AC000080002400804024010B50446CC488442A5
:100AD00008D10121042000F02DFB0021042000F0AA
:100AE00029FB46E0C748844208D10121082000F0D4
:100AF00021FB0021082000F01DFB3AE0C24884429F
:100B000008D10121102000F015FB0021102000F079
:100B100011FB2EE0BD48844208D10121202000F0C5
:100B200009FB0021202000F005FB22E0B8488442A8
:100B300008D10121402000F0FDFA0021402000F002
:100B4000F9FA16E0B348844208D10121802000F070
:100B5000F1FA0021802000F0EDFA0AE0AE4884426C
:100B600007D10121801500F0E5FA0021A01500F061
:100B7000E1FA10BD10B50121084600F0DBFA0021B2
:100B8000012000F0D7FA10BD2DE9F0410246002502
:100B90000026002000230024002791F803C00CF059
:100BA0000F0591F803C00CF0100CBCF1000F03D03E
:100BB00091F802C04CEA050591F800C0BCF1000FA5
:100BC00031D0146800202BE04FF0010C0CFA00F338
:100BD000B1F800C00CEA03069E4220D183004FF01A
:100BE0000F0C0CFA03F7BC4305FA03FC4CEA0404AF
:100BF00091F803C0BCF1280F06D14FF0010C0CFA9C
:100C000000FCC2F814C00AE091F803C0BCF1480F20
:100C100005D14FF0010C0CFA00FCC2F810C0401CCA
:100C20000828D1D31460B1F800C0BCF1FF0F34DD47
:100C3000546800202EE000F1080C4FF0010808FA7B
:100C40000CF3B1F800C00CEA03069E4221D18300E8
:100C50004FF00F0C0CFA03F7BC4305FA03FC4CEA07
:100C6000040491F803C0BCF1280F05D100F1080C71
:100C700008FA0CF8C2F8148091F803C0BCF1480FD0
:100C800007D100F1080C4FF0010808FA0CF8C2F87F
:100C90001080401C0828CED35460BDE8F0814FF688
:100CA000FF710180022181700421C17070470246EA
:100CB000002093680B400BB1012000E0002070473A
:100CC0000146886880B2704702460020D3680B4016
:100CD0000BB1012000E0002070470146C86880B2D7
:100CE000704701617047416170470AB1016100E0DE
:100CF00041617047C16070474FF480320A4382619E
:100D00008161826182698269704702460020434B9B
:100D100018684FF68073184040EA021008433F4BB2
:100D2000186070473E49C8617047F0B50A46002315
:100D300000240021002500F00046B6F1004F02D14A
:100D4000364EF16901E0354E7168C0F3034583B258
:100D500000F44016B6F5401F08D121F070612F4E07
:100D6000766826F070662D4F7E6012E000F48016E3
:100D7000B6F5801F06D1032606FA05F4A14341F01B
:100D8000706106E0460D360103FA06F6B14341F004
:100D9000706122B1460D360103FA06F6314300F0C8
:100DA0000046B6F1004F02D11C4EF16101E01B4E2E
:100DB0007160F0BD30B500228B071C0F0F2303FAC2
:100DC00004F2164B08338C1053F824309343134C21
:100DD00008348D1044F8253023468C1053F8243005
:100DE0008C07240F00FA04F423430C4C08348D10B4
:100DF00044F8253030BD0A49DC31086070470000F6
:100E000000080140000C01400010014000140140A6
:100E100000180140001C014000200140000001407A
:100E200000002042DF48006840F00100DD49086012
:100E300008464068DC490840DA49486008460068CE
:100E4000DA490840D74908600846006820F4802045
:100E500008600846406820F4FE0048604FF41F0018
:100E600088607047CF49096821F48031CD4A11600C
:100E70001146096821F480211160B0F5803F03D04C
:100E8000B0F5802F0ED106E0C649096841F48031E3
:100E9000C44A116007E0C349096841F4A021C14A6E
:100EA000116000E000BF00BF704710B5014600228E
:100EB000002300204A11012A02D1BA4C236806E01F
:100EC000022A02D1B74C236A01E0B64C636A01F0F2
:100ED0001F02012494401C400CB1012000E00020BE
:100EE00010BD38B5002000900024002500BF31203F
:100EF000FFF7DBFF05460098401C00900098B0F516
:100F0000A06F01D0002DF2D03120FFF7CEFF08B145
:100F1000012400E00024204638BD01460020A14AFB
:100F2000106820F0F80040EAC10010607047A04946
:100F300008607047024600209A4B586820F47C10E5
:100F400042EA01031843974B586070479849086676
:100F5000704701460020934A506820F00300084380
:100F6000506070478F48406800F00C0070470146A1
:100F700000208C4A506820F0F00008435060704711
:100F800001460020874A506820F4E0600843506022
:100F9000704701460020834A506820F4605040EAC0
:100FA000C1005060704729B17E4A527A02437D4B9E
:100FB0005A7204E07B4A527A82437A4B5A727047E3
:100FC0007B49D8310860704701460020754A506857
:100FD00020F440400843506070470021714A20329D
:100FE0001170704A82F82010012802D004280AD11A
:100FF00004E001216B4A2032117005E00521694AA5
:101000002032117000E000BF00BF704769490860DE
:1010100070476449096A0143624A11627047654931
:1010200044390860704730B50021002200240023B5
:101030005C4D6D6805F00C0121B1042905D008292B
:1010400023D105E05C4D056022E05B4D05601FE0AB
:10105000544D6D6805F47012524D6D6805F480347E
:10106000022505EB92421CB9544D554305600BE037
:101070004C4D6D6805F400351DB1504D554305606C
:1010800002E04D4D5543056002E04B4D056000BF49
:1010900000BF444D6D6805F0F0010909484D6B5CD7
:1010A0000568DD4045603F4D6D6805F4E061090A63
:1010B000434D6B5C4568DD4085603A4D6D6805F4D5
:1010C0006051C90A3E4D6B5C4568DD40C560354DD9
:1010D0006D6805F44041890B3A4D6B5CC568B5FB02
:1010E000F3F5056130BD29B12E4A526902432D4BFB
:1010F0005A6104E02B4A526982432A4B5A61704775
:1011000029B1284A92690243264B9A6104E0254A94
:1011100092698243234B9A61704729B1214AD2696F
:101120000243204BDA6104E01E4AD26982431D4B20
:10113000DA61704729B11B4AD2680243194BDA6061
:1011400004E0184AD2688243164BDA60704729B12E
:10115000144A12690243134B1A6104E0114A1269DE
:101160008243104B1A61704712494039086070473A
:101170000F49C86470470B49C87170470948406AF5
:1011800040F0807007494862704701460020054AD8
:1011900092680A400AB1012000E00020704701492E
:1011A00088727047001002400000FFF8FFFFF6FE53
:1011B000000042428004424200127A0000093D00D1
:1011C000140000202400002010B50446FE4884428C
:1011D00008D10121C014FFF7ADFF0021E014FFF793
:1011E000A9FFC4E0B4F1804F08D101210846FFF700
:1011F000AEFF00210120FFF7AAFFB8E0F3488442C8
:1012000008D101210220FFF7A2FF00210220FFF7F1
:101210009EFFACE0EE48844208D101210420FFF794
:1012200096FF00210420FFF792FFA0E0E9488442E6
:1012300008D101210820FFF78AFF00210820FFF7CD
:1012400086FF94E0E448844208D101211020FFF792
:101250007EFF00211020FFF77AFF88E0DF488442FC
:1012600008D101212020FFF772FF00212020FFF785
:101270006EFF7CE0DA48844208D101214014FFF778
:1012800059FF00216014FFF755FF70E0D5488442F4
:1012900009D10121C804FFF74DFF00214FF40020C0
:1012A000FFF748FF63E0D048844209D101210805D7
:1012B000FFF740FF00214FF48010FFF73BFF56E09F
:1012C000CA48844209D101214805FFF733FF0021B4
:1012D0004FF40010FFF72EFF49E0C548844208D1C3
:1012E00001214020FFF733FF00214020FFF72FFFAF
:1012F0003DE0C048844208D101218020FFF727FF4C
:1013000000218020FFF723FF31E0BB48844208D151
:1013100001218015FFF71BFF0021A015FFF717FF24
:1013200025E0B648844209D101210804FFF702FFF5
:1013300000214FF48030FFF7FDFE18E0B0488442F2
:1013400009D101214804FFF7F5FE00214FF40030D8
:10135000FFF7F0FE0BE0AB48844208D1012188047E
:10136000FFF7E8FE00214FF48020FFF7E3FE10BDF9
:1013700000220288944B98420ED0994B98420BD091
:10138000B0F1804F08D0914B984205D0904B9842D5
:1013900002D0904B984204D14FF68F731A404B887D
:1013A0001A438D4B984207D08C4B984204D04FF68D
:1013B000FF431A40CB881A4302808B8883850B88B1
:1013C0000385814B98420BD0854B984208D08B4BBC
:1013D000984205D08A4B984202D08A4B984201D15C
:1013E0000B7A038601238382704770B500240022A4
:1013F0000023058C4FF6FE7635400584028C8388E9
:10140000048B4FF68F752C40B51E2C400D882C4355
:10141000751E2A400D892A434D882A436A4DA842E9
:101420000BD06F4DA84208D0744DA84205D0744D22
:10143000A84202D0734DA84213D14FF6F7752A4047
:101440004D892A434FF6FB752A408D882A434FF673
:10145000FF652B404FF6FF552B408D892B43CD89DF
:101460002B4383800483CD888586028470BD70B54C
:10147000002400220023058C4FF6EF7635400584CA
:10148000028C8388048B48F6FF752C404FF6FF458D
:101490002C400D884FF6FF7606EA05252C434FF6C3
:1014A000DF752A400D8906EA05152A434D8806EAAC
:1014B00005152A43444DA84202D0494DA8421DD1EA
:1014C0004FF67F752A404D894FF6FF7606EA0515DF
:1014D0002A434FF6BF752A408D8806EA05152A4330
:1014E0004FF6FF352B404FF2FF752B408D8906EAF2
:1014F00085052B43CD8906EA85052B43838004832C
:10150000CD880587028470BD70B5002400220023B9
:10151000058C4FF6FF6635400584028C8388848BEA
:101520004FF68F752C404FF6FC752C400D882C43E0
:101530004FF6FF552A400D894FF6FF7606EA05253E
:101540002A434D8806EA05252A431F4DA84202D0AA
:10155000234DA8421DD14FF2FF752A404D894FF609
:10156000FF7606EA05252A434FF6FF352A408D8887
:1015700006EA05252A434EF6FF752B404DF6FF750A
:101580002B408D8906EA05152B43CD8906EA051502
:101590002B4383808483CD888587028470BD70B59A
:1015A000002200230024058C4EF6FF76354005848A
:1015B000038C8488828B48F6FF752A404FF6FF45DE
:1015C0002A400D8820E00000002C0140000400406B
:1015D00000080040000C00400010004000140040D3
:1015E00000340140004C01400050014000540140D3
:1015F00000180040001C0040002000400040014056
:1016000000440140004801404FF6FF7606EA0525F8
:101610002A434DF6FF752B400D8906EA05352B430D
:101620004D8806EA05352B43FA4DA84202D0FA4D03
:10163000A84208D14BF6FF752C408D894FF6FF76F6
:1016400006EA85152C4384808283CD88A0F840501B
:10165000038470BD828B4FF2FF331A408283828BEA
:101660004FF6FF7303EA01231A4382837047F0B5F4
:101670000C461546002200210026078C4EF6FF7C02
:1016800007EA0C070784828B018C4FF6FF7707EA85
:10169000043640F6FF473A404FF6FF7707EA052742
:1016A0003A434FF6FF7707EA03373A43D94FB84238
:1016B0000ED0D94FB8420BD0B0F1804F08D0D74FE1
:1016C000B84205D0D64FB84202D0D64FB84206D164
:1016D0004DF6FF77394046F48057394305E047F629
:1016E000FF57394044F48057394382830184F0BD69
:1016F000828B4FF6F3731A408283828B0A43828374
:101700007047F0B50C461546002200210026078CD4
:101710004FF6FF6C07EA0C070784828B018C4FF6AB
:10172000FF7707EA04264FF60C773A404FF6FF772B
:1017300007EA03172F433A43B64FB8420ED0B64FCD
:10174000B8420BD0B0F1804F08D0B44FB84205D0AA
:10175000B34FB84202D0B34FB84206D14FF6FF574D
:10176000394046F48077394305E04FF2FF5739405E
:1017700044F48077394382830184F0BD028B4FF2B9
:10178000FF331A400283028B4FF6FF7303EA0123F3
:101790001A4302837047F0B50C461546002200211B
:1017A0000026078C4FF6EF7C07EA0C070784028BB4
:1017B000018C4FF6FF7707EA041640F6FF473A40E0
:1017C0004FF6FF7707EA03373A434FF6FF7707EA0A
:1017D00005273A438F4FB8420ED08F4FB8420BD0F7
:1017E000B0F1804F08D08D4FB84205D08C4FB84231
:1017F00002D08C4FB84206D14FF6DF77394046F021
:101800001007394305E04FF65F77394044F0100781
:10181000394302830184F0BD028B4FF6F3731A4003
:101820000283028B0A4302837047F0B50C461546CB
:1018300000220021068C4FF6FE773E400684028B84
:10184000018C4FF60C7632407E1C06EA03162E43BE
:101850003243704EB0420ED06F4EB0420BD0B0F15A
:10186000804F08D06D4EB04205D06D4EB04202D0D0
:101870006C4EB04206D14FF6FD76314044F0010681
:10188000314305E04FF6F576314044F0010631432F
:1018900002830184F0BD70B505460C465D48854263
:1018A0000ED05D4885420BD0B5F1804F08D05B4823
:1018B000854205D05A48854202D05A48854200D117
:1018C00000E000BF208850B92389A288618828469B
:1018D000FFF7ABFFE1882846FFF79EFF25E0208851
:1018E00004280AD12389A28861882846FFF753FF7C
:1018F000E1882846FFF742FF17E0208808280AD130
:101900002389A28861882846FFF7FBFEE1882846E4
:10191000FFF7EEFE09E02389A28861882846FFF7D9
:10192000A6FEE1882846FFF795FE70BD2DE9F0413F
:1019300005460C4600260127608808B9022600E00B
:101940000026A088012801D1022700E00127208875
:10195000A0B92389A28861882846FFF766FFE1883D
:101960002846FFF759FF23893A4631462846FFF7B4
:1019700012FFE1882846FFF701FF13E02389A288C0
:1019800061882846FFF707FFE1882846FFF7F6FE43
:1019900023893A4631462846FFF747FFE188284623
:1019A000FFF73AFFBDE8F0810A884B881A438B881D
:1019B0001A43CB881A430B891A434B891A438B89E4
:1019C0001A43A0F8442070474FF6FF718180002130
:1019D0000180C180418001727047002101804180F7
:1019E0008180C180018141818181C1817047002155
:1019F00001804180012181800021C18001817047E7
:101A00000021018041808180C180018141818181EB
:101A100070470000002C01400034014000040040E9
:101A200000080040000C004021B1028842F0010291
:101A3000028004E002884FF6FE731A40028070476D
:101A400031B1B0F8442042F40042A0F8442005E04F
:101A5000B0F84420C2F30E02A0F8442070471AB137
:101A600083890B43838102E083898B4383817047A1
:101A70008182704741EA0203A0F8483070471AB1EA
:101A800083890B43838102E083898B438381704781
:101A900001894FF6F8721140018170470A46002112
:101AA00001894FF68F73194011430181704730B59A
:101AB00004460D4629462046FFF7F0FF208940F0F6
:101AC0000700208130BD2DE9F04104460D46164641
:101AD0001F46602D06D13B46012231462046FFF7C6
:101AE0005AFE05E03B46012231462046FFF79DFEA7
:101AF00029462046FFF7D2FF208940F007002081C9
:101B0000BDE8F08130B50C4600210189C9B24FF61D
:101B1000FF7505EA0325154325432943018130BD9F
:101B20002DE9F04105460E461746984600244346E7
:101B30003A4631462846FFF7E5FF2C894FF6F87004
:101B4000044044F007044FF68F70044044F07004E2
:101B50002C81BDE8F081F0B504460D4616461F46BF
:101B60003B46324629462046FFF7CCFF208940F409
:101B700080402081F0BD0185828270470A460021A5
:101B800001884FF68F731940114301807047F0B5FB
:101B90000C4615461E460021002200230189028BB7
:101BA000038C4FF6F877394021434FF6FC473A4013
:101BB00040F201173A434FF6DD773B404FF6FF778F
:101BC00007EA06172F433B43018102830384F0BDDC
:101BD0000A460021018B4FF68F7319401143018390
:101BE00070470A460021018B48F6FF7319404FF6F3
:101BF000FF7303EA02231943018370470A46002159
:101C0000818B4FF68F7319401143818370470A46C9
:101C10000021818B48F6FF7319404FF6FF7303EAEA
:101C2000022319438183704721B1028842F0800268
:101C3000028004E002884FF67F731A4002807047EA
:101C400021B1828842F00402828004E082884FF64B
:101C5000FB731A408280704721B1828842F00802EB
:101C6000828004E082884FF6F7731A4082807047C2
:101C700021B1828842F00102828004E082884FF61E
:101C8000FE731A40828070470A460021018B4FF68E
:101C9000F77319401143018370470A460021018BF5
:101CA0004FF2FF7319404FF6FF7303EA0223194303
:101CB000018370470A460021818B4FF6F773194064
:101CC0001143818370470A460021818B4FF2FF73D5
:101CD00019404FF6FF7303EA0223194381837047CB
:101CE0000A460021018B4FF6FB7319401143018313
:101CF00070470A460021018B4FF6FF3319404FF61B
:101D0000FF7303EA02231943018370470A46002147
:101D1000818B4FF6FB7319401143818370470A464C
:101D20000021818B4FF6FF3319404FF6FF7303EA12
:101D300002231943818370470A460021018B4FF625
:101D40007F7319401143018370470A460021018BBC
:101D5000C1F30E014FF6FF7303EA02231943018317
:101D600070470A460021818B4FF67F73194011435B
:101D7000818370470A460021818BC1F30E014FF623
:101D8000FF7303EA02231943818370470A46002147
:101D9000018C4FF6FD7319401143018470470A46C8
:101DA0000021018C4FF6F7731940114301847047ED
:101DB0000A460021018C4FF6DF7319404FF6FF737E
:101DC00003EA02131943018470470A460021018C7B
:101DD0004FF67F7319404FF6FF7303EA021319435E
:101DE000018470470A460021018C4FF6FF531940C9
:101DF0004FF6FF7303EA02231943018470470A4632
:101E00000021018C4FF2FF7319404FF6FF7303EA74
:101E100002231943018470470A460021018C4DF6C4
:101E2000FF7319404FF6FF7303EA0233194301842D
:101E3000704730B5002301248C40A3B2048C9C432E
:101E40000484048C02FA01F5ADB22C43048430BD45
:101E500030B5002304248C40A3B2048C9C4304843A
:101E6000048C02FA01F5ADB22C43048430BD70B588
:101E70000346002000241846183001258D40ACB2DE
:101E80001D8CA5431D8409B1082909D100EB61000F
:101E9000056825F0700505600568154305600EE0CE
:101EA0000D1FC5F34E052844056825F4E04505607F
:101EB00005684FF6FF7606EA02263543056070BDD9
:101EC00021B1028842F00202028004E002884FF64B
:101ED000FD731A400280704721B1028842F004026B
:101EE000028004E002884FF6FB731A4002807047BC
:101EF00021B1828842F08002828004E082884FF61D
:101F00007F731A408280704702884FF6F7731A4039
:101F1000028002880A430280704782884FF68F73DE
:101F20001A40828082880A438280704702894FF675
:101F3000F8731A40028102890A43028170470289BC
:101F40004FF67F731A40028102890A43028170476B
:101F5000818470478185704781867047018770470B
:101F600081877047A0F84010704702884FF6FF4302
:101F70001A40028002880A43028070470146888E18
:101F800070470146088F70470146888F70470146A9
:101F9000B1F8400070470146888C70470146088DB3
:101FA000704702460020138A0B400BB1012000E06D
:101FB00000207047CA430282704730B502460020B5
:101FC00000230024158A05EA0103958905EA010426
:101FD00013B10CB1012000E0002030BDCA430282E1
:101FE0007047000010B50446FB48844209D1012126
:101FF0008803FFF79FF800214FF48040FFF79AF81D
:1020000032E0F648844209D101214804FFF79FF8E5
:1020100000214FF40030FFF79AF825E0F0488442A1
:1020200009D101218804FFF792F800214FF48020A4
:10203000FFF78DF818E0EB48844209D10121C8046C
:10204000FFF785F800214FF40020FFF780F80BE040
:10205000E548844208D101210805FFF778F80021FE
:102060004FF48010FFF773F810BD2DE9F04786B0EC
:1020700005460E460024A24600BFA1460027B089AF
:1020800000B100BF2F462C8A4CF6FF700440F08848
:1020900004432C82AC894EF6F3100440B088318999
:1020A0000843718908430443AC81AC8A4FF6FF4072
:1020B0000440B0890443AC8201A8FEF7B4FFC648CF
:1020C000874202D1DDF810A001E0DDF80CA0A8895C
:1020D00000F4004040B10AEBCA0000EB0A1031687E
:1020E0004900B0FBF1F807E00AEBCA0000EB0A1068
:1020F00031688900B0FBF1F86420B8FBF0F004010E
:102100002009642101FB1089A88900F4004040B136
:10211000322000EBC900B0FBF1F000F007000443EF
:1021200008E0322000EB09106421B0FBF1F000F070
:102130000F0004432C8106B0BDE8F0874FF4165120
:10214000016000218180C18001810C214181002139
:102150008181704710B502460020108A4FF2FF03BC
:1021600018400B884C8823438C882343CC88234316
:102170001843108210BD0021018041808180C18000
:10218000704721B1828942F40052828104E0828941
:102190004DF6FF731A4082817047F0B50346002464
:1021A00000260025002040F66A17B94200D100BF82
:1021B0001846C1F3421401F01F06012707FA06F57D
:1021C000012C01D10C3004E0022C01D1103000E0D0
:1021D00014301AB107682F43076002E00768AF4365
:1021E0000760F0BD1AB1838A0B43838202E0838AC1
:1021F0008B4383827047028A4FF6F0731A40028243
:10220000028A0A430282704782894FF2FF731A40A2
:10221000828182890A438281704721B1828942F09A
:102220000202828104E082894FF6FD731A408281A6
:102230007047028A4FF6DF731A400282028A0A430D
:102240000282704721B1028A42F48042028204E095
:10225000028A4BF6FF731A4002827047C1F30802EC
:102260008280704701468888C0F3080070478189E2
:1022700041F0010181817047028BD2B20283028B4F
:1022800042EA012202837047028B02F47F420283FA
:10229000028B0A430283704721B1828A42F02002F6
:1022A000828204E0828A4FF6DF731A40828270478E
:1022B00021B1828A42F01002828204E0828A4FF6C3
:1022C000EF731A408282704721B1828A42F008027D
:1022D000828204E0828A4FF6F7731A408282704746
:1022E00021B1828942F40042828103E08289C2F3F3
:1022F0000E028281704721B1828A42F4006282829A
:1023000004E0828A4FF2FF731A4082827047828A09
:102310004FF6FB731A408282828A0A438282704798
:1023200021B1828A42F00202828204E0828A4FF660
:10233000FD731A408282704702460020B1F5007F8B
:1023400000D100BF13880B400BB1012000E000203A
:10235000704701F40072B2F5007F00D100BFCA439C
:102360000280704770B5024600240023002500203B
:1023700040F66A16B14200D100BFC1F3421501F028
:102380001F03012606FA03F3012D02D1968933407B
:1023900006E0022D02D1168A334001E0968A3340CE
:1023A0000C12012606FA04F41688344013B10CB15D
:1023B000012000E0002070BD10B50022002340F68F
:1023C0006A14A14200D100BF0A1201249440A3B2B2
:1023D000DC43048010BD0000003801400044004090
:1023E00000480040004C00400050004000F0AEF8B3
:1023F00000F0D4F901E001F0BDFCFCE7704700BF3C
:10240000FEE700BFFEE700BFFEE700BFFEE7704744
:10241000704770477047000000B58BB00121084637
:10242000FEF761FED448FEF725FAD4480090D44860
:1024300001901020029000200390049080200590CD
:1024400000200690079020200890000209900020AC
:102450000A906946C848FEF7AFFA01220221C64831
:10246000FEF7E1FA01220821C348FEF7DCFA012257
:102470008021C248001FFFF7B5FE0021BE48FEF7CD
:10248000C6FABD481430FEF7F5F9BC480090BD48C7
:102490000190002002904FF4FA7003900020049005
:1024A00080200590002006900790202008900002D0
:1024B000099000200A906946AF481430FEF77CFA74
:1024C00001220221AC481430FEF7ADFA01220821A6
:1024D000A9481430FEF7A7FA01224021A748001F9F
:1024E000FFF780FE0121A4481430FEF790FA0BB0EC
:1024F00000BD08B525208DF8000000208DF80100F2
:1025000002208DF8020001208DF803006846FDF7D7
:1025100020FF0E208DF8000000208DF80100012022
:102520008DF802008DF803006846FDF712FF0F20BA
:102530008DF8000000208DF801008DF802000120C8
:102540008DF803006846FDF704FF08BD00B585B0AF
:1025500001210420FEF7D4FD01218803FEF7D0FD00
:102560004FF40070ADF8100018208DF81300032010
:102570008DF8120004A98448FEF706FB4FF4806032
:10258000ADF8100004208DF8130004A97E48FEF772
:10259000FBFA4FF4E13000900020ADF80400ADF8F4
:1025A0000600ADF80800ADF80C000C20ADF80A00EC
:1025B00069467248001FFFF758FD012240F224418E
:1025C0006E48001FFFF7E9FD01216C48001FFFF76F
:1025D000D8FD40216948001FFFF7BBFEFFF71CFF35
:1025E000FFF787FF01206949087005B000BD70B58D
:1025F00004460D4629462046FFF730FE00BF8021E5
:102600002046FFF799FE0028F9D070BD2DE9F04172
:1026100006460C4615462F4604E021783046FFF763
:10262000E6FF641C381EA7F101018FB2F5D1BDE8A9
:10263000F08110B5044621465048001FFFF70EFEFA
:1026400000BF80214D48001FFFF776FE0028F8D01C
:1026500010BD70B505460C4644B1B4F5FA7F02DDF5
:102660004FF4806000E02046044600E070BD00BFEB
:10267000474800780028FBD025B12246294640482B
:1026800003F04EFF4FF40050FEF70FFA4FF40040F6
:10269000FEF70BFA00213848FEF7B9F936484438FE
:1026A000846401213448FEF7B2F9002038490870EB
:1026B00000BFDBE7012037490870704710B540F2D2
:1026C00024412E48001FFFF74DFE48B32B48001F42
:1026D0000488001D0488002127481430FEF797F96C
:1026E00025481430FEF7AAF9C0F5FA7084B22246E4
:1026F0002449294802F0B8FD4FF47020FEF7B6F9DE
:102700004FF4FA701C494439C86501211A48143045
:10271000FEF77DF940F224411848001FFFF74CFEF8
:1027200010BD10B54FF40050FEF7BFF94FF4004054
:10273000FEF7BBF900211048FEF769F901201449A2
:10274000087010BD10B54FF40030FEF7AEF94FF42D
:102750000020FEF7AAF9002107481430FEF757F9C8
:102760004FF4FA7004494439C86501210248143015
:10277000FEF74DF910BD000044000240043801404E
:102780008001002074030020000801402A0000207E
:10279000290000202B0000206805002010B54FF410
:1027A000FA71F94802F030FD10BD01B5F748007824
:1027B00040B19DF80010F648FFF719FF0020F349DB
:1027C000087009E0F348007830B10121684603F051
:1027D000B5FD0020EF49087008BDB0B5ACB02AA91E
:1027E000E94802F065FD9DF8A800CA38162834D2E1
:1027F000DFE800F0F6F5F4F3F2333333333333F13B
:10280000F0EFEEED0B347933CBEC2BA9DE4802F080
:102810004FFD9DF8AC001F909DF8AC00022802DD32
:102820001E982CB0B0BD2BA9D74802F041FD9DF8F1
:10283000AC00A12801D01D98F3E71F9AD0B2D64A68
:10284000516E8847F9208DF8A400D44800788DF89F
:10285000A500022129A803F071FDC6E22BA9CA48F0
:1028600002F026FD9DF8AC00FF2801D05846D8E7BD
:102870000CE02BA9C44802F01BFD9DF8AC00FF281A
:1028800000D104E09DF8AC0004F8010BF1E700BFB3
:102890000CE02BA9BC4802F00BFD9DF8AC00FF2812
:1028A00000D104E09DF8AC0005F8010BF1E700BF92
:1028B0002BA9B54802F0FCFC9DF8AC00A12801D082
:1028C0001C98AEE7E9B2E0B2B34B9A6E9047F9209C
:1028D0008DF8A400B14800788DF8A500022129A840
:1028E00003F02CFD81E22BA9A74802F0E1FC9DF842
:1028F000AC00FF2801D0504693E70CE02BA9A2487A
:1029000002F0D6FC9DF8AC00FF2800D104E09DF851
:10291000AC0004F8010BF1E700BF0CE02BA99A48CA
:1029200002F0C6FC9DF8AC00FF2800D104E09DF841
:10293000AC0005F8010BF1E700BF2BA9924802F0AB
:10294000B7FC9DF8AC001F909DF8AC00042801DD99
:10295000304666E72BA98C4802F0AAFC9DF8AC0033
:10296000A12801D01B985CE7E9B2E0B28A4BDA6E8D
:102970009047F9208DF8A400884800788DF8A500CC
:10298000022129A803F0DAFC2FE22BA97E4802F0ED
:102990008FFC9DF8AC001F909DF8AC00012801DD74
:1029A0001A983EE72BA9784802F082FC9DF8AC000B
:1029B000FF2801D0199834E717E02BA9724802F0DC
:1029C00077FC9DF8AC00FF280BD10FE03DE062E002
:1029D00088E0ABE0CEE0F6E09EE175E151E138E160
:1029E0001FE19DF8AC0004F8010BE6E700BF0CE026
:1029F0002BA9654802F05CFC9DF8AC00FF2800D1D3
:102A000004E09DF8AC0005F8010BF1E700BF2BA92D
:102A10005D4802F04DFC9DF8AC00A12801D018984B
:102A2000FFE6EAB2E1B21F9FF8B25B4FBF6F3B46D1
:102A30009847F9208DF8A400584800788DF8A50033
:102A4000022129A803F07AFCCFE12BA94E4802F01D
:102A50002FFC9DF8AC005D2801D03846E1E62BA99B
:102A6000494802F025FC9DF8AC00A12801D0179838
:102A7000D7E64949C86F8047F9208DF8A400484837
:102A800000788DF8A500022129A803F057FC00204A
:102A900043490870A9E12BA93B4802F009FC9DF8C5
:102AA000AC009D2801D01698BBE62BA9364802F051
:102AB000FFFB9DF8AC00A12801D01598B1E636497E
:102AC000D1F880008047F9208DF8A40035480078BF
:102AD0008DF8A500022129A803F030FC002031491F
:102AE000087082E12BA9284802F0E2FB9DF8AC00B7
:102AF0008A2801D0149894E62BA9234802F0D8FB29
:102B00009DF8AC00A12801D013988AE62249D1F89B
:102B100084008047F9208DF8A400204800788DF8C3
:102B2000A500022129A803F009FC5EE12BA91648A3
:102B300002F0BEFB9DF8AC007C2801D0129870E634
:102B40002BA9114802F0B4FB9DF8AC00A12801D0DC
:102B5000119866E61049D1F888008047F9208DF871
:102B6000A4000E4800788DF8A500022129A803F0E2
:102B7000E5FB3AE12BA9044802F09AFB9DF8AC0072
:102B80006B2811D010984CE6680500202B0000201F
:102B9000003801406C0100202C000020680100205A
:102BA0006A0100206B0100202BA9F84802F080FB8D
:102BB0009DF8AC00A12801D00F9832E6F449D1F875
:102BC0008C00804711E12BA9F04802F071FB9DF8C1
:102BD000AC001F909DF8AC00012801DD0E9820E6A6
:102BE0002BA9EA4802F064FB9DF8AC00052801DD42
:102BF0000D9816E69DF8AC0020902BA9E34802F052
:102C000057FB9DF8AC00A12801D0404609E6209B67
:102C1000D9B21F9BD8B2DE4BD3F8902090474846DC
:102C2000FFE52BA9D94802F043FB9DF8AC006828CA
:102C300001D00C98F5E52BA9D44802F039FB9DF89A
:102C4000AC00A12801D00B98EBE5D149886D8047F5
:102C5000CBE02BA9CD4802F02BFB9DF8AC006928F6
:102C600001D00A98DDE52BA9C84802F021FB9DF8A8
:102C7000AC00A12801D00998D3E5C549C86D8047AB
:102C8000B3E02BA9C14802F013FB9DF8AC006A2801
:102C900001D00898C5E52BA9BC4802F009FB9DF8B6
:102CA000AC00A12801D00798BBE5B949086E804760
:102CB000F9208DF8A400B74800788DF8A50002210E
:102CC00029A803F03BFB90E02BA9B04802F0F0FAF2
:102CD0009DF8AC00022801DD0698A2E59DF8AC0045
:102CE0001F902BA9A94802F0E3FA9DF8AC00A12897
:102CF00001D0059895E51F9AD0B2A54A116F884773
:102D0000F9208DF8A400A34800788DF8A5000221D1
:102D100029A803F013FB68E02BA99C4802F0C8FA2D
:102D20009DF8AC00012801DD04987AE59DF8AC001F
:102D30001F902BA9954802F0BBFA9DF8AC00FF2824
:102D400001D003986DE50CE02BA9904802F0B0FA91
:102D50009DF8AC00FF2800D104E09DF8AC0004F819
:102D6000010BF1E700BF0CE02BA9884802F0A0FAA4
:102D70009DF8AC00FF2800D104E09DF8AC0005F8F8
:102D8000010BF1E700BF2BA9804802F091FA9DF8F2
:102D9000AC00052801DD029843E59DF8AC002090C9
:102DA0002BA97A4802F084FA9DF8AC00A12801D042
:102DB000019836E5DDF880E00EF0FF03EAB2E1B2FB
:102DC000DDF87CE00EF0FF00DFF8C4E1DEF874C04F
:102DD000E047F9208DF8A4006E4800788DF8A50032
:102DE000022129A803F0AAFA00BF00BFA620FFF71E
:102DF000DCFC01206749087000BF12E52DE9704135
:102E0000A1B000261FA9614802F052FA9DF87C008B
:102E1000CA2802D0DA2846D146E020A95B4802F051
:102E200047FA9DF880005C4941EA0020159020A9EE
:102E3000564802F03DFA9DF8800005119DF880008B
:102E400000F00F00A840169020A9504802F030FA78
:102E50009DF88000504941EA0020179020A94B4876
:102E600002F026FA9DF8800005119DF8800000F020
:102E70000F00A840189020A9444802F019FA9DF8C4
:102E80008000A12803D0384621B0BDE87081DDE97B
:102E900016821FFA88F1DFF8F880189B1598D8F889
:102EA0005480C446E047A7E020A9384802F000FA61
:102EB0009DF88000394908700846007830B9002034
:102EC000374908700120374908700CE03348007812
:102ED000012806D1022032490870032031490870C8
:102EE00001E04046D0E720A9284802F0E1F99DF82A
:102EF000800001282DD19DF880008DF80400012567
:102F000000BF20A9214802F0D3F99DF8800001A953
:102F1000485526B99DF88000022800D118E0012EFE
:102F200000D100269DF88000062801D1012000E094
:102F300000209DF880100622B2EB211F01D1012153
:102F400000E00021084300B10126681CC5B2D8E7A3
:102F500001E0484698E720A90C4802F0A9F99DF83D
:102F60008000A12801D050468EE7002433E001A85C
:102F7000005D062801D1012000E0002001A9095DC3
:102F80000622B2EB211F0FD101210EE068050020BF
:102F90002C000020680100200000014057010020A3
:102FA00058010020590100200021084358B101AB0D
:102FB000621C985C01AA125DFE4B53F822108847F0
:102FC000601CC4B205E001A9095DFA4A52F821006B
:102FD0008047601CC4B2AC42C9DDF748007840B9F4
:102FE0000120F54908709DF80510F24A52F82100B9
:102FF000804702F093FC00BF00BFA520FFF7D5FB80
:1030000000BF41E701B5ED48007828B19DF80010F8
:10301000EB48FFF7ECFA06E0EA48007818B1012126
:10302000684603F08BF908BD10B5034693FBF1F039
:1030300001FB1030C4B2A24201D1012010BD00201A
:10304000FCE7F0B595B0002400250026DE4901A874
:1030500002F08BF9DDE90101CDE9030113A9DA489A
:1030600002F026F914A9D84802F022F99DF8500080
:10307000342801D1012000E000209DF850102C29B7
:1030800001D1012100E00021084330B19DF850003A
:10309000CE4901EB0020089006E09DF850004FF06B
:1030A000804101EB002008909DF85000204484B23C
:1030B000681C85B29DF84C00DA2812D008DCAA28DA
:1030C00075D0CA2874D0CB2873D0CC2872D1F2E145
:1030D000DB2852D0DC286ED0DD286DD0DE28F5D17B
:1030E000E7E014A9B84802F0E3F89DF85000099011
:1030F0009DF85000204484B2681C85B202231A4611
:1031000007A9B14802F0EEF8BDF81C00ADF81400B4
:103110009DF81C00204484B29DF81D00204484B218
:10312000A81C85B214A9A84802F0C2F89DF8502046
:1031300029462046FFF778FF10B9002015B0F0BDF2
:1031400014A9A14802F0B4F89DF85000D52808D081
:10315000BDF80E20BDF80C109B4802F0FEF80020D0
:10316000ECE7BDF81420099FF9B2994F08983B6C21
:103170009847D520FFF746FF13E214A9924802F0C2
:1031800097F89DF8500009909DF85000204484B2B3
:10319000681C85B214A98C4802F08AF89DF850206A
:1031A00029462046FFF740FF38B90020C6E7C9E1AD
:1031B000BCE049E1ECE118E049E014A9824802F0E2
:1031C00077F89DF85000D62808D0BDF80E20BDF83D
:1031D0000C107D4802F0C1F80020AFE7099BD9B27E
:1031E0007B4B08985A6C9047DBE114A9764802F0B3
:1031F0005FF89DF8500009909DF85000204484B27B
:10320000681C85B214A9704802F052F89DF850204D
:1032100029462046FFF708FF08B900208EE714A9C9
:10322000694802F045F89DF85000D72808D0BDF84D
:103230000E20BDF80C10644802F08FF800207DE7E6
:10324000099BD9B2624B08989A6C9047A9E114A9DE
:103250005D4802F02DF89DF8500009909DF850004F
:10326000204484B2681C85B214A9574802F020F8A3
:103270009DF8502029462046FFF7D6FE08B90020C9
:103280005CE714A9504802F013F89DF85000D828C4
:1032900008D0BDF80E20BDF80C104B4802F05DF8C8
:1032A00000204BE7099BD9B2494B0898DA6C90474C
:1032B00077E102231A4607A9434802F013F8BDF844
:1032C0001C00ADF814009DF81C00204484B29DF849
:1032D0001D00204484B2A81C85B214A93A4801F00C
:1032E000E7FF9DF8502029462046FFF79DFE08B9CC
:1032F000002023E714A9344801F0DAFF9DF85000BC
:10330000D92808D0BDF80E20BDF80C102E4802F0C8
:1033100024F8002012E7BDF814102D4B0898D3F8BC
:1033200098209047D920FFF76DFE3AE1012304224F
:1033300012A9254801F0D6FF042605E012A8805DF9
:10334000204484B2681C85B2301EA6F10101CEB2C1
:10335000F4D102231A4607A91B4801F0C3FFBDF8A8
:103360001C00ADF814009DF81C00204484B29DF8A8
:103370001D00204484B2A81C85B202231A4607A966
:10338000114801F0AFFFBDF81C00ADF816009DF824
:103390001C00204484B29DF81D00204484B2A81C67
:1033A00085B202231A4607A9074801F09BFFBDF822
:1033B0001C000FE0C80000205A0100202B00002054
:1033C000003801406C010020680500200000014029
:1033D0002C000020ADF818009DF81C00204484B299
:1033E0009DF81D00204484B2A81C85B214A9FD4894
:1033F00001F05EFF9DF8502029462046FFF714FE9D
:1034000008B900209AE614A9F64801F051FF9DF88A
:103410005000D12808D0BDF80E20BDF80C10F1489E
:1034200001F09BFF002089E6BDF818000090BDF870
:103430001630BDF81420EC4908980F6B12A9B84754
:10344000D120FFF7DFFDACE002231A4607A9E548CB
:1034500001F048FF9DF81C00204484B29DF81D0037
:10346000204484B2A81C85B214A9DE4801F020FFD4
:103470009DF8502029462046FFF7D6FD08B90020C8
:103480005CE614A9D74801F013FF9DF85000D2283C
:1034900008D0BDF80E20BDF80C10D24801F05DFF39
:1034A00000204BE6D04908984A6B07A99047D220E4
:1034B000FFF7A8FD75E014A9CA4801F0F9FE9DF8D0
:1034C000500009909DF85000204484B2681C85B2D9
:1034D00002231A4607A9C34801F004FFBDF81C00E7
:1034E0000A909DF81C00204484B29DF81D002044E1
:1034F00084B2A81C85B214A9BA4801F0D9FE9DF87F
:10350000502029462046FFF78FFD08B9002015E618
:1035100014A9B44801F0CCFE9DF85000D32808D07F
:10352000BDF80E20BDF80C10AE4801F016FF0020CB
:1035300004E6AD4F08A807C8BB6B9847D320FFF738
:1035400061FD2EE014A9A74801F0B2FE9DF85020BD
:1035500029462046FFF768FD08B90020EEE514A9CA
:10356000A04801F0A5FE9DF85000D42808D0BDF871
:103570000E20BDF80C109B4801F0EFFE0020DDE5A9
:10358000994A0898D16B8847D420FFF73BFD08E0A3
:10359000BDF80E20BDF80C10924801F0DEFE0020B0
:1035A000CCE500BFFD20FFF700F900BFC6E5F0B590
:1035B00095B000270024002500268A4901A801F0C3
:1035C000D4FEDDE90101CDE9030113A9854801F02D
:1035D0006FFE9DF84C00AA2870D0CA2833D0DA2894
:1035E0006DD114A97F4801F063FE9DF85000099049
:1035F0009DF85000204484B2681C85B214A9794813
:1036000001F056FE9DF8502029462046FFF70CFD9C
:1036100010B9002015B0F0BD14A9724801F048FEA1
:103620009DF85000C32808D0BDF80E20BDF80C103E
:103630006C4801F092FE0020ECE7099AD0B26A4A89
:10364000D16A884778E014A9664801F031FE9DF8F8
:103650005000000309909DF85000204484B2681C7B
:1036600085B214A95F4801F023FE9DF850709DF8C3
:103670005000204484B2681C85B200260FE014A9D3
:10368000584801F015FE9DF8500005A988559DF891
:103690005000204484B2681C85B2701C06B2BE4241
:1036A000EDDB14A94F4801F003FE9DF85020294698
:1036B0002046FFF7B9FC18B90020ABE71BE032E069
:1036C00014A9484801F0F4FD9DF85000C12808D025
:1036D000BDF80E20BDF80C10424801F03EFE00205F
:1036E00098E7414909983A464B6A05A99847C1208D
:1036F000FFF788FC20E014A93A4801F0D9FD9DF8B5
:103700005000C22808D0BDF80E20BDF80C10354876
:1037100001F023FE00207DE73349886A8047C220FC
:10372000FFF770FC08E0BDF80E20BDF80C102D4826
:1037300001F013FE00206DE700BFFC20FFF735F815
:10374000012067E72DE9F04196B000260027002010
:103750000990089000240025224903A801F005FEE5
:10376000DDE90301CDE9050114A91E4801F0A0FD22
:103770009DF85000DC2818D115A91A4801F098FDD1
:103780009DF85400A5280AD0BDF81620BDF81410E5
:10379000144801F0E2FD002016B0BDE8F0811249A6
:1037A000D1F8940080470120F6E715A90D4801F0F3
:1037B0007FFD9DF854004FF0804141EA00200A90BF
:1037C0009DF85400204484B2681C85B29DF85000D6
:1037D000AA286FD0CA286ED0DA2807D0DB286BD190
:1037E0005BE00000680500202C00002015A9FD48C2
:1037F00001F05EFD9DF854709DF85400204484B2A1
:10380000681C85B215A9F74801F052FD9DF85420B7
:1038100029462046FFF708FC08B90020BCE7002431
:10382000002500260FE015A9EE4801F041FD9DF8A6
:103830005400ED4988559DF85400204484B2681C1A
:1038400085B2701C06B2BE42EDDB15A9E54801F059
:103850002FFD9DF8542029462046FFF7E5FB08B9C7
:10386000002099E715A9DF4801F022FD9DF85400DA
:10387000A32808D0BDF81620BDF81410D94801F0CF
:103880006CFD002088E7D9490A983A46CB69D649A9
:103890009847A320FFF7B6FB10E115A9D14801F026
:1038A00007FD9DF8542029462046FFF7BDFB20B9AF
:1038B000002071E7D3E042E0F7E015A9C94801F024
:1038C000F7FC9DF85400A42808D0BDF81620BDF8D8
:1038D0001410C44801F041FD00205DE7C4490A9876
:1038E000884212D1A4208DF81C0044208DF81D00C0
:1038F000BE480221026A07A89047BC48026ABD4838
:10390000B0F90010BC48904718E0BC490A988842BA
:1039100012D1A4208DF81C004C208DF81D00B34856
:103920000221026A07A89047B048026AB448B0F979
:103930000010B448904701E000202DE7BEE015A933
:10394000A84801F0B5FC9DF854000B909DF8540078
:10395000204484B2681C85B215A9A24801F0A8FCD5
:103960009DF8540000020C909DF85400204484B24D
:10397000681C85B215A99B4801F09AFC9DF854007B
:1039800000020D909DF85400204484B2681C85B25A
:1039900015A9944801F08CFC9DF8540000020E908B
:1039A0009DF85400204484B2681C85B215A98D4846
:1039B00001F07EFC9DF8540000020F909DF8540029
:1039C000204484B2681C85B215A9864801F070FCB9
:1039D0009DF8540010909DF85400204484B2681C57
:1039E00085B215A97F4801F063FC9DF85400119041
:1039F0009DF85400204484B2681C85B215A979480A
:103A000001F056FC9DF8542029462046FFF70CFB98
:103A100008B90020C0E615A9724801F049FC9DF8DC
:103A20005400A12808D0BDF81620BDF814106D4828
:103A300001F093FC0020AFE6DDE90E23DDE9101074
:103A4000CDE90023CDE90210DFF8A0810AA80FC854
:103A5000D8F814C0E047A120FFF7D4FA2EE015A94A
:103A6000604801F025FC9DF8542029462046FFF7C8
:103A7000DBFA08B900208FE615A95A4801F018FCB6
:103A80009DF85400A22808D0BDF81620BDF81410E7
:103A9000544801F062FC00207EE6544A0A9891697D
:103AA0008847A220FFF7AEFA08E0BDF81620BDF85F
:103AB00014104C4801F051FC00206DE600BFFA20C4
:103AC000FEF773FE012067E6F0B591B000240025F3
:103AD000444901A801F049FCDDE90101CDE90301F8
:103AE0000FA9404801F0E4FB10A93E4801F0E0FBBB
:103AF0009DF84000444941EA002005909DF84000AF
:103B000004446D1C9DF83C00AA287FD0CA287ED0B2
:103B1000DA2802D0DB287BD14EE010A9314801F031
:103B2000C7FB9DF8400006119DF8400000F00F0013
:103B3000B04006909DF84000204484B2681C85B2D5
:103B400010A9284801F0B4FB9DF8400007909DF8AB
:103B50004000204484B2681C85B2079828B10798B9
:103B6000012802D0002011B0F0BD10A91D4801F0BD
:103B70009FFB9DF8402029462046FFF755FA08B9DB
:103B80000020F0E710A9174801F092FB9DF84000D3
:103B9000E32808D0BDF80E20BDF80C10114801F044
:103BA000DCFB0020DFE7114F05A807C83B699847F9
:103BB000E320FFF727FAD7E010A90A4801F078FBC5
:103BC0009DF8400006119DF8400000F00F00B04045
:103BD00006909DF84000204484B2681C85B210A96C
:103BE000004816E068050020740500202C00002025
:103BF00000440040EA000020480E0020004C004035
:103C0000EC000020AC0E0020000001407DE022E02E
:103C1000A1E001F04DFB9DF8402029462046FFF72A
:103C200003FA08B900209EE710A97F4801F040FB85
:103C30009DF84000E42808D0BDF80E20BDF80C1017
:103C4000794801F08AFB00208DE7784BDDE905011A
:103C50001A6D904788E010A9734801F029FB9DF880
:103C6000400006119DF8400000F00F00B0400690A3
:103C70009DF84000204484B2681C85B210A96A48AF
:103C800001F016FB9DF8400007909DF8400020448D
:103C900084B2681C85B210A9634801F009FB9DF845
:103CA000400008909DF84000204484B2681C85B212
:103CB00010A95D4801F0FCFA9DF8402029462046F5
:103CC000FFF7B2F908B900204DE710A9564801F0F6
:103CD000EFFA9DF84000E12808D0BDF80E20BDF8AD
:103CE0000C10514801F039FB00203CE7DDE906C229
:103CF0001FFA8CF1DFF834C1089B0598DCF80870D6
:103D0000B847E120FFF77EF92EE010A9464801F000
:103D1000CFFA9DF8402029462046FFF785F908B9DB
:103D2000002020E710A9404801F0C2FA9DF84000A9
:103D3000E22808D0BDF80E20BDF80C103A4801F07A
:103D40000CFB00200FE7394A0598D1688847E2202C
:103D5000FFF758F908E0BDF80E20BDF80C10324806
:103D600001F0FBFA0020FEE600BFFE20FEF71DFD7D
:103D70000120F8E638B501252B484089022837DDB7
:103D80006946294801F094FA9DF800000F21B1EB33
:103D9000201F2CD19DF8000000F00F04A4F10900B1
:103DA00006281CD2DFE800F01707130B0F03FFF7FC
:103DB0008BFE054613E0FFF7C5FC05460FE0FFF755
:103DC000F6FB05460BE0FFF73CF9054607E0FFF779
:103DD00015F8054603E0FEF700FD054600BF00BFED
:103DE00035B90020124908701249087000E038BD4A
:103DF00000BFFCE701460868704701607047024653
:103E000013780B7053784B70704730B5024600231F
:103E100000204C1EA3B201E0D45C20441C1EA3F180
:103E20000105ABB2F8D130BD680500202C000020A0
:103E30002B0000206C01002010B50446FE49601ADA
:103E40008C4238D01ADCFD49A4EB01008C4269D0C9
:103E50000ADCB4F1804F56D0F9482044002857D0EE
:103E6000B0F5806F6DD158E0B0F5605F41D0B0F52E
:103E7000705F43D0B0F57C4F63D117E0B0F5805F41
:103E80002DD009DCB0F5806F1AD0B0F5006F1CD0D2
:103E9000B0F5406F55D11DE0B0F5A05F24D0B0F56E
:103EA000005F44D0B0F5205F4BD145E001210420F4
:103EB000FDF726F945E001210820FDF721F940E052
:103EC00001211020FDF71CF93BE001212020FDF726
:103ED00017F936E001214020FDF712F931E0012108
:103EE0008020FDF70DF92CE001210802FDF708F90B
:103EF00027E001214804FDF710F922E001218804A0
:103F0000FDF70BF91DE001210846FDF706F918E061
:103F100001210220FDF701F913E001210420FDF742
:103F2000FCF80EE001210820FDF7F7F809E0012177
:103F3000C802FDF7E5F804E001214803FDF7E0F8C9
:103F400000BF00BF10BD0146BC4A881A91421BD079
:103F500009DCB1F1804F11D0B948084480B1B0F507
:103F6000806F13D10EE0B0F5605F03D0B0F5705FE5
:103F70000CD101E0262070472720FCE71C20FAE73F
:103F80001D20F8E71E20F6E73220F4E700BFF2E735
:103F9000F8B507460C4615461E463846FFF74CFF57
:103FA000A0B2ADF80000E8B28DF80300F0B28DF8D1
:103FB000020069463846FCF7E7FDF8BD10B5044637
:103FC0002046FCF781FD9F48844201D1FEF7BEFAEE
:103FD00010BD0146012902D14FF416507047022945
:103FE00002D14DF6C020F9E7032902D14FF4E130A8
:103FF000F4E74FF41650F1E730B58DB005460121D6
:104000000846FDF770F89048FCF734FC012D04D108
:104010008E4C32208E49088005E025B98D4C4FF436
:10402000FA708B49088088481438FCF723FC8A48CA
:1040300002900394002004908548B0F90000059098
:1040400000200690802007900020089009902020F2
:104050000A9000020B9000200C9002A97A481438B4
:10406000FCF7AAFC0122022177481438FCF7DBFC9C
:104070000122082174481438FCF7D5FC01224021A4
:104080007548001FFEF7AEF801216F481438FCF7A1
:10409000BEFC10208DF8040001208DF805000020E2
:1040A0008DF8060001208DF8070001A8FCF751F9F2
:1040B0000DB030BD30B58DB0054601210220FDF7B1
:1040C00012F86648FCF7D6FB012D04D1644C32206F
:1040D0006449088005E025B9634C4FF4FA706149E2
:1040E00008805E482838FCF7C5FB604802900394BE
:1040F000002004905B48B0F9000005900020069075
:104100008020079000200890099020200A9000024B
:104110000B9000200C9002A950482838FCF74CFC6A
:10412000012202214D482838FCF77DFC012208219C
:104130004A482838FCF777FC012240214B48001FF1
:10414000FEF750F8012145482838FCF760FC3A207A
:104150008DF8040001208DF8050002208DF806007E
:1041600001208DF8070001A8FCF7F3F80DB030BD71
:1041700011BB394A121F90420CD100223C4B1A70DD
:104180003C4A12781AB1F9223B4B1A7002E0FA222B
:10419000394B1A70354A121F90421FD10022374BFB
:1041A0001A70344A12781AB1F922354B1A7015E098
:1041B000FA22334B1A7011E0274A121F904204D1A1
:1041C00001222B4B1A702F4A1180284A121F90424D
:1041D00004D10122294B1A702B4A118070472DE916
:1041E000F04F85B004460E4617469846DDE90FAB02
:1041F000DDF83890119D01210420FCF781FF204655
:10420000FFF71AFEE9B22046FFF7B2FFF0B2FFF760
:10421000E0FE0190B8B2ADF808001FFA88F0ADF8E2
:104220000A001FFA89F0ADF80C001FFA8AF0ADF809
:1042300010001FFA8BF029E0000C0140000C004038
:1042400000FCFFBF00080140800002407A0E002001
:10425000EE0000206C080020044400405804024096
:10426000DE0E0020F0000020540C0020044C004022
:10427000E40000206C010020F2000020E500002096
:10428000F3000020E6000020E8000020ADF80E005A
:1042900001A92046FDF7E9FE4FF4C060FCF754F891
:1042A0002046FFF750FEC0B28DF800002046FFF711
:1042B0004AFE2538C0B28DF8010000208DF80200BA
:1042C00001208DF803006846FCF743F8012240F214
:1042D00024412046FDF761FF01212046FDF751FFF3
:1042E000FE48844203D1E8B2FFF786FE05E0FC48B1
:1042F000844202D1E8B2FFF7DDFE05B0BDE8F08FE1
:10430000024613780B7053784B70704770B50446B3
:104310000D461646FA2C04D132462946F148FEF7DE
:1043200075F9F92C03D13146284602F007F870BD23
:104330007CB50020019000900025002640F2244129
:10434000E648FEF70FF800287ED0E448008800B267
:104350000190E248001D008800B201900021E2486F
:10436000FCF755FBE1480078002852D1DE48FCF705
:1043700065FBC0F5FA7000B201904FF47000FCF7D5
:1043800075FB4FF4FA70D8496C390867FF2020702C
:10439000FA2060704420A070694601A8FFF7B0FFC2
:1043A000BDF80000A4F803009DF800009DF801107E
:1043B0000844FF2190FBF1F201FB12006071BDF98E
:1043C0000420CB49A01D02F0ABF8BDF8040085B273
:1043D00002E0C748405D0644281EA5F101018DB2E8
:1043E000F7D1FF20B6FBF0F100FB1161BDF904002D
:1043F000801D2154A621BDF90400C01D2154BDF823
:104400000400C01D82B22146BA480078FFF77EFF43
:104410001DE0B6480078D0B1B348FCF70FFBC0F1FF
:10442000320000B20190BDF90420B349B34802F054
:1044300077F84FF47000FCF719FB3220AA496C3969
:104440000867BDF9040000E00AE0AD4908800121D9
:10445000A548FCF7DCFA40F22441A048FDF7ACFF88
:104460007CBD7CB50020019000900025002640F224
:1044700024419B48FDF776FF00287DD098480088AE
:1044800000B201909648001D008800B20190002102
:104490009C48FCF7BCFA9C480078002851D1994808
:1044A000FCF7CCFAC0F5FA7000B201909748FCF71F
:1044B000DDFA4FF4FA709349091D0860FF2020705F
:1044C000FA2060704C20A070694601A8FFF718FF21
:1044D000BDF80000A4F803009DF800009DF801104D
:1044E0000844FF2190FBF1F201FB12006071BDF95D
:1044F00004207F49A01D02F013F8BDF8040085B226
:1045000002E07B48405D0644281EA5F101018DB202
:10451000F7D1FF20B6FBF0F100FB1161BDF90400FB
:10452000801D2154A621BDF90400C01D2154BDF8F1
:104530000400C01D82B2214675480078FFF7E6FEF0
:104540001CE071480078C8B16E48FCF777FAC0F1FA
:10455000320000B20190BDF904206E496E4801F0AE
:10456000DFFF6A48FCF782FA32206649091D0860BD
:10457000BDF90400694900E009E0088001216148B3
:10458000FCF745FA40F224415548FDF715FF7CBD84
:1045900010B54FF40010FCF788FA4FF40000FCF758
:1045A00084FA00215048FCF732FA5D48B0F9000067
:1045B0004D496C39086701214B48FCF728FA10BDBA
:1045C00010B55848FCF771FA5748FCF76EFA00210D
:1045D0004C48FCF71CFA5548B0F900004949091D40
:1045E000086001214748FCF712FA10BD10B50446D7
:1045F0003A48844202D1FDF7F5FC04E03848844291
:1046000001D1FDF7EFFC10BDF0B591B007460D46A6
:104610001646002400BF05E00120295D444A50549D
:10462000601CC4B2B442F7DB01210846FCF75BFD15
:1046300001214802FCF764FD2B486438FCF71AF9A5
:104640003C48FBF7EFFE3B484C3006903A48079059
:10465000002008901020099000200A9080200B90E4
:1046600040000C9080000D9020200E9000020F90D2
:104670000020109006A91C486438FCF79DF9012120
:1046800019486438FCF7C3F90020019001208DF827
:1046900008008DF809004FF460200390002004907A
:1046A00010208DF8140001A92248FBF7E2FE3846DD
:1046B000FCF78AFC0523012200211E48FBF771FF4D
:1046C0000523022201211B48FBF76BFF0523032270
:1046D00002211848FBF765FF05232FE00044004046
:1046E000004C0040003801406C000240E400002013
:1046F0006C080020F20000207A0E0020480E0020F6
:10470000EA00002030040240E5000020000F001005
:10471000F3000020DE0E0020AC0E0020EC00002094
:10472000EE0000200002001000080010F000002041
:10473000300F002000240140100F0020042203212C
:10474000FE48FBF72EFF05231A460421FB48FBF722
:1047500028FF052306221946F848FBF722FF052308
:1047600007220621F548FBF71CFF05230822072135
:10477000F248FBF716FF052309220821EF48FBF753
:1047800010FF05230A220921EC48FBF70AFF052345
:104790000B220A21E948FBF704FF05230C220B2119
:1047A000E648FBF7FEFE05230D220C21E348FBF74C
:1047B000F8FE05230E220D21E048FBF7F2FE05234B
:1047C0000F220E21DD48FBF7ECFE052310220F21FE
:1047D000DA48FBF7E6FE0121D848FBF781FE01210C
:1047E000D648FBF772FED548FBF791FE00BFD348D1
:1047F000FBF792FE0028FAD1D048FBF797FE00BFE6
:10480000CE48FBF798FE0028FAD10121CB48FBF7F0
:104810009CFE11B0F0BD10B5C848FBF703FE10BDFB
:104820002DE9F04387B080460D4616461F46DDF859
:10483000389000244046FFF7FFFA4046FCF7C4FCDE
:10484000701E80B2ADF81400781E80B2ADF8100072
:104850000020ADF81600ADF8120004A94046FCF7A0
:1048600087FD6020ADF800000120ADF802000020B7
:10487000ADF80800ADF8069000BF32E0285D70B3D7
:10488000285D012806D002280DD0032814D0042862
:1048900024D11AE069464046FCF7A7FD08214046AE
:1048A000FDF7F2F91AE069464046FCF7E0FD082101
:1048B0004046FDF7F2F911E069464046FCF724FE58
:1048C00008214046FDF7F6F908E069464046FCF746
:1048D00066FE08214046FDF7F6F900BF00BF601CE8
:1048E00004B2042CCADB01214046FDF7A9F80121DE
:1048F0004046FDF799F901214046FDF795F807B0CC
:10490000BDE8F0830146042902D00C2904D101E05E
:10491000042070471020FCE70020FAE7F0B587B0CC
:1049200007460D46002400263846FFF785FA4FF467
:104930008060FBF709FD3846FFF705FBC0B28DF834
:1049400000003846FFF7FFFA322807D03846FFF755
:10495000FAFA1C38C0B28DF8010002E003208DF88D
:10496000010003208DF8020001208DF80300684645
:10497000FBF7EFFC4FF6FF70ADF814000020ADF828
:104980001000ADF81600ADF8120004A93846FCF787
:10499000EFFC0220ADF806000120ADF80800002071
:1049A000ADF80A00ADF80C00002412E055F8240020
:1049B00070B135F8241088B2FFF7A4FF064335F82C
:1049C000240080B2ADF8040001A93846FCF7AEFF20
:1049D000641C022CEADB60213846FDF75FF80421F5
:1049E0003846FDF7A3FA80213846FDF7A8FA0122E0
:1049F00031463846FDF733F831463846FDF7DAFAE6
:104A000001213846FDF710F807B0F0BD02460B460D
:104A1000002100BF07E04A4850F82100904201D130
:104A200001207047491C474800788142F3DB002091
:104A3000F7E770B586B004460D4616462046FFF7E8
:104A4000FBF92046FCF7C0FB0520ADF800004FF64F
:104A5000FF70ADF804000020ADF80600ADF80200CC
:104A600069462046FCF784FCA9B200231A4620467A
:104A7000FDF78DF803A8FCF7BAFF0120ADF814008C
:104A800003A92046FCF707FF0020A084012120464F
:104A9000FCF7CAFF2A492046FFF7B8FF08B106B065
:104AA00070BD29482749097840F8216024482549E4
:104AB000097840F8214023480078401C21490870BB
:104AC00000F049FB00BFEAE710B504462046FCF7BA
:104AD0007BFB10BD2DE9F04104210807FDF76DFABD
:104AE000E8B10024002600254FF08040048F858E19
:104AF00016480068B0FBF4F7384601F0F7FD0646AB
:104B0000601B13490860134805601349304601F0E3
:104B10003DFD074601F0EFFD1049086000BF102180
:104B20008806FDF74AFA90B30024002600250C48B9
:104B300004880006858F0548006813E000240140C2
:104B4000880F002054010020580F00200000002092
:104B5000F40000201401002000007A4434010020F9
:104B600040000040B0FBF4F7384601F0BFFD0646B8
:104B7000601B7A4948607A4845607A49304601F0BE
:104B800005FD074601F0B7FD7749486000BFBDE865
:104B9000F0812DE9F04104217448FDF70EFAF0B1DF
:104BA000002400260025714838300488001F05883D
:104BB0006F480068B0FBF4F7384601F097FD0646F1
:104BC000601B6C4908606C4805606649304601F01E
:104BD000DDFC074601F08FFD6849086000BF102129
:104BE0006248FDF7EAF9F0B10024002600255F488D
:104BF00040300488001F05885D480068B0FBF4F76A
:104C0000384601F073FD0646601B5A4948605A4811
:104C100045605449304601F0B9FC074601F06BFD90
:104C20005649486000BFBDE8F0812DE9F0410421FC
:104C30005348FDF7C2F9F0B1002400260025504882
:104C400038300488001F058849480068B0FBF4F735
:104C5000384601F04BFD0646601B4A4908604A4849
:104C600005604049304601F091FC074601F043FDE4
:104C70004649086000BF10214148FDF79EF9F0B198
:104C80000024002600253E4840300488001F058887
:104C900037480068B0FBF4F7384601F027FD0646B8
:104CA000601B38494860384845602E49304601F05D
:104CB0006DFC074601F01FFD3449486000BFBDE8A8
:104CC000F0812DE9F04104213148FDF776F9F0B18A
:104CD0000024002600252E4838300488001F05884F
:104CE00023480068B0FBF4F7384601F0FFFC0646A5
:104CF000601B28490860284805601A49304601F0C1
:104D000045FC074601F0F7FC2449086000BF10216C
:104D10001F48FDF752F9F0B10024002600251C4879
:104D200040300488001F058811480068B0FBF4F784
:104D3000384601F0DBFC0646601B16494860164801
:104D400045600849304601F021FC074601F0D3FCDC
:104D50001249486000BFBDE8F0810000F400002067
:104D60001401002000007A443401002000040040B7
:104D700000000020FC0000201C0100203C0100205D
:104D8000000800400401002024010020440100200C
:104D9000000C00400C0100202C0100204C010020E0
:104DA00070B504460D46CE48007820B12A4621460B
:104DB000CC48FDF72BFCCC48007818B1294620469A
:104DC00001F0BCFA70BDD3B2012B02D18BB20361EA
:104DD00003E0D3B20BB98BB243617047F8B5044618
:104DE0000D460026A068284008B1012600E00026F4
:104DF000E4208DF800008DF8016002216846FFF77D
:104E0000CFFFF8BD70B504460D461646324629461A
:104E10002046FDF7FBFB70BD70B504460D462946E4
:104E20002046FFF7BDFF70BD024613780B70537824
:104E30004B7093788B70D378CB7070472DE9F04F1F
:104E400085B081464FF0000A0024A84931F81900C6
:104E500001F04CFC4FF08B41009001F097FB834632
:104E600001F05DFC07464FF06632A14B01F0CCFB30
:104E7000054601F067FC019004A901A8FFF7D4FFE3
:104E8000C3208DF8080000BF06E004A8005D504470
:104E90001FFA80FA601CC4B2042CF6DB0498CDF82B
:104EA0000900FF209AFBF0F100FB11A0C0B28DF8C1
:104EB0000D00062102A8FFF773FF05B0BDE8F08FD3
:104EC000012906D0022906D0032906D0042909D1D8
:104ED00005E0828606E0028704E0828702E0A0F80F
:104EE000402000BF00BF70470185012282827047C9
:104EF0002DE9FF4107460D46002600247D4850F865
:104F00002500009003A96846FFF78EFFD8208DF892
:104F1000040000BF05E003A8005D304486B2601CB9
:104F2000C4B2042CF7DB0398CDF80500FF2096FBF4
:104F3000F0F100FB1160C0B28DF80900062101A854
:104F4000FFF72EFFBDE8FF81024613780B70537800
:104F50004B7093788B70D378CB7070472DE9FF41FD
:104F600007460C464FF000080026251104F00F04F8
:104F7000B7F1804F09D060483844A0B1B0F5806FD8
:104F80001FD0B0F5006F38D129E0012D05D1601E8A
:104F90005A4951F82000009004E0601E584951F829
:104FA0002000009029E0012D05D1601E554951F8DF
:104FB0002000009004E0601E534951F8200000904A
:104FC0001BE0012D05D1601E504951F820000090D2
:104FD00004E0601E4E4951F8200000900DE0012DC4
:104FE00005D1601E4B4951F82000009004E0601E7E
:104FF000494951F82000009000BF00BF03A968464E
:10500000FFF7A2FFD6208DF80400002606E003A8D3
:10501000805D40441FFA80F8701CC6B2042EF6DB97
:105020000398CDF80500FF2098FBF0F100FB1180FC
:10503000C0B28DF80900062101A8FFF7B1FEBDE856
:10504000FF812DE9FF4106460C4600270025B6F1F9
:10505000804F09D02848304460B1B0F5806F0FD040
:10506000B0F5006F18D111E0601E2C4951F82000F6
:10507000009011E0601E2A4951F8200000900BE0DA
:10508000601E284951F82000009005E0601E264966
:1050900051F82000009000BF00BF03A96846FFF749
:1050A00053FFD7208DF80400002505E003A8405DDC
:1050B000384487B2681CC5B2042DF7DB0398CDF8DD
:1050C0000500FF2097FBF0F100FB1170C0B28DF8D6
:1050D0000900062101A8FFF763FEBDE8FF8100007B
:1050E0002B000020003801406C010020100F002030
:1050F00066660A40700F002000FCFFBFF40000202D
:1051000014010020FC0000201C01002004010020EC
:10511000240100200C0100202C010020340100207B
:105120003C010020440100204C01002008B54FF450
:10513000A060FBF709F936208DF8000002208DF8F9
:10514000010000208DF8020001208DF80300684660
:10515000FBF7FFF808BD0EB501211020FBF7DDFFBE
:1051600041F61F40ADF800000920ADF80400002012
:10517000ADF80600ADF8020069461D48FCF7F8F8E6
:10518000012211461A48FCF76AFC01211848FCF775
:1051900025FF01211648FCF747FCFFF7C7FF0EBDAE
:1051A00010B5002400BF1DE0124850F82400401C38
:1051B000104941F82400084650F824000E4951F8DF
:1051C000241088420CD90D4951F82410888C01F024
:1051D0008DFA0B4908600020084951F82410888492
:1051E000601CC4B2074800788442DDDB10BD0000BB
:1051F00000100040400F0020580F0020880F0020B2
:10520000700F00205401002070B504460D460CB903
:10521000022070BD2581208901F0FCFC20602189DD
:10522000206801F096F90020A080E08060810120D4
:10523000EFE702460AB902207047D3881068C154CC
:10524000D0889388984201D100205081D088401C9A
:10525000D0805089401C5081D0881389984201D158
:105260000020D0800120E7E770B503460C460BB95B
:10527000022070BD002117E0605CDE881D68A85523
:10528000D8889D88A84201D100205881D888401C28
:10529000D8805889401C5881D8881D89A84201D1DE
:1052A0000020D880481C81B29142E5DB0120E0E774
:1052B00002460AB90220704700BF50890028FCD07E
:1052C00093881068C05C08709088401C908050895A
:1052D000401E508190881389984201D1002090800F
:1052E0000120E8E72DE9F04106460C4617469846AE
:1052F0003D4606B114B90220BDE8F08100BF7089B7
:10530000A842FCDBB8F1010F0CD1E019441E06E005
:105310002146641E3046FFF7CBFF681E85B2002D84
:10532000F6D10CE0B8F1020F09D106E02146641C69
:105330003046FFF7BDFF681E85B2002DF6D1012073
:10534000DAE710B504460CB9012010BD206801F061
:1053500039FC002020600120F7E703460BB901204B
:10536000704799805A810120FAE7024609B9012362
:1053700003718B8803804B894380036813608388A3
:105380009380704730B5F74CF74D2D7844F82500E1
:105390002546F54C2478641C45F82420F34CF24D46
:1053A0002D7844F825102546EF4C2478641C45F8E8
:1053B0002430ED4C2478A41CEB4D2C7030BDF8B596
:1053C00007460C4615461E463846FEF735FD28466C
:1053D000FEF732FDA0B2ADF8000010208DF80300FA
:1053E00001208DF8020069463846FBF7CDFBB0B2CC
:1053F000ADF8000010208DF8030001208DF80200A8
:1054000069462846FBF7C0FBA0B23861B0B22861FC
:1054100033462A4621463846FFF7B4FFF8BD38B573
:105420000446D24830F8240080B2ADF800000120D4
:105430008DF8020028208DF80300CA4951F8240095
:105440006946FBF7A1FB38BD38B50446C74830F8BC
:10545000240080B2ADF8000001208DF80200102079
:105460008DF80300BF4951F824006946FBF78CFB17
:1054700038BD0020BB49BE4A127851F82210896815
:10548000BA4ABB4B1B7852F82320114009B10120C6
:1054900000E00020704738B1B44A52F82120B14BE7
:1054A00053F821301A6106E0B04A52F82120AD4B82
:1054B00053F821305A61704738B1AC4A52F8212074
:1054C000A84B53F821301A6106E0A84A52F821206F
:1054D000A44B53F821305A61704700B5A5480078B5
:1054E00000282CD0A24801780120FFF7D4FF00202B
:1054F00000E0401CB0F5FA7FFBD39F480178012003
:10550000FFF7DAFF002000E0401CB0F5FA7FFBD384
:10551000974801780020FFF7BEFF002000E0401C04
:10552000B0F5FA7FFBD3944801780020FFF7C4FF61
:10553000002000E0401CB0F5FA7FFBD300BF00BDA7
:1055400000B58C48007800282CD08B4801780020CA
:10555000FFF7B2FF002000E0401CB0F5FA7FFBD35C
:10556000834801780020FFF796FF002000E0401CF0
:10557000B0F5FA7FFBD3804801780120FFF79CFF4C
:10558000002000E0401CB0F5FA7FFBD3784801789A
:105590000120FFF780FF002000E0401CB0F5FA7FFB
:1055A000FBD300BF00BD10B572480078002840D082
:1055B00005246F480078FFF732FF002000E0401C10
:1055C000B0F5FA7FFBD36C4801780120FFF774FF38
:1055D000002000E0401CB0F5FA7FFBD312E0601E13
:1055E000C4B2002000E0401CB0F5FA7FFBD34CB9F8
:1055F0005F480078FFF728FFFFF7A2FF00205D4912
:10560000087010BDFFF735FF0028E8D15848007832
:10561000FFF71AFF584801780020FFF74DFF0020E0
:1056200000E0401CB0F5FA7FFBD30120514908701F
:10563000E7E700BFE5E700B54E48007838B34C48CF
:1056400001780020FFF727FF002000E0401CB0F5A4
:10565000FA7FFBD3002000E0401CB0F5FA7FFBD3BB
:10566000454801780120FFF727FF002000E0401C9B
:10567000B0F5FA7FFBD3404801780020FFF71CFF0C
:10568000002000E0401CB0F5FA7FFBD300BF00BD56
:1056900000B53848007838B3354801780120FFF765
:1056A000FAFE002000E0401CB0F5FA7FFBD300209A
:1056B00000E0401CB0F5FA7FFBD32F4801780120B1
:1056C000FFF7FAFE002000E0401CB0F5FA7FFBD3A4
:1056D000294801780020FFF7EFFE002000E0401C81
:1056E000B0F5FA7FFBD300BF00BD30B504460825F6
:1056F00020480078002846D02BE01F480178002081
:10570000FFF7DAFE002000E0401CB0F5FA7FFBD383
:1057100004F0800016490978FFF7BDFE002000E084
:10572000401CB0F5FA7FFBD36006040E002000E0B9
:10573000401CB0F5FA7FFBD30F4801780120FFF73A
:10574000BBFE002000E0401CB0F5FA7FFBD3681ED2
:10575000C5B2002DD1DC084801780020FFF7ACFE6F
:1057600000200CE0A00F002056010020B00F002008
:10577000590100205A01002058010020401CB0F5BA
:10578000FA7FFBD300BF30BD7C497D4A127831F8E7
:10579000121050290DDA7A49097801EB8101794A12
:1057A00002EB0111754A764B1B7832F813208854AE
:1057B00012E000227149724B1B7821F813207049C6
:1057C000097801EB81016F4A02EB01116B4A6C4BC6
:1057D0001B7832F8132088546849694A127831F8E6
:1057E0001210491C654A664B1B7822F81310664953
:1057F000634A127831F81210491C8AB26249604B30
:105800001B7821F81320704770B5082500245F48E5
:10581000007800283BD05E480078FFF700FE22E0C9
:105820006006040E5B4801780020FFF745FE00206B
:1058300000E0401CB0F5FA7FFBD3002000E0401CE4
:10584000B0F5FA7FFBD3534801780120FFF734FE0F
:10585000002000E0401CB0F5FA7FFBD3FFF709FE03
:105860000443681EC5B2002DDADC4A4801780020E6
:10587000FFF722FE002000E0401CB0F5FA7FFBD3CA
:1058800043480078FFF7E0FD2046FFF77DFF70BD3D
:105890003D48E0B340483A4A127830F812005028A8
:1058A0000DDA3748007800EB8000364A02EB001032
:1058B000394A334B1B7832F81320815C12E0002206
:1058C00035482F4B1B7820F813202D48007800EB2B
:1058D00080002C4A02EB00122F48294B1B7830F82D
:1058E0001300115C2C48264A127830F81200401C34
:1058F000294A234B1B7822F813002348204A1278A8
:1059000030F81200401E204A1D4B1B7800E003E0D7
:1059100022F81300084670470020FCE730B5C1B0FC
:1059200019481749097830F81100C01C85B216488B
:105930001349097830F8110008B941B030BDFB2097
:105940008DF800000E4800788DF801000E480C49D3
:10595000097810F811008DF80200032405E0FFF724
:1059600097FF0DF80400601CC4B2AC42F7DB294677
:105970006846FCF76EFE00BFDFE700006001002014
:1059800057010020C00F0020640100205A010020B0
:1059900059010020580100205C010020F0B50346A9
:1059A0000D461646002729460A2E03D0002008700F
:1059B0002846F0BD33B9302001F8010B00200870F3
:1059C0002846F6E7002B03DA2D2001F8010B5B4295
:1059D00042F210720DE093FBF2F404B937B104F116
:1059E000300001F8010B04FB123301270A2092FB5F
:1059F000F0F2002AEFDC002008702846D9E70FB447
:105A000070B586B006460CA8019073E00B9800783C
:105A10005C281CD10B98401C0B9000786E2809D094
:105A200072280FD10D213046FCF718FC0B98401C52
:105A30000B900BE00A213046FCF710FC0B98401C41
:105A40000B9003E00B98401C0B9000BF4BE00B98B1
:105A50000078252840D10B98401C0B9000786428D2
:105A600018D0732833D1019810C801900BE0217829
:105A70003046FCF7F3FB00BF80213046FCF75CFCAE
:105A80000028F9D0641C20780028F0D10B98401C25
:105A90000B9020E0019820C801900A2202A9284614
:105AA000FFF77CFF02AC0BE021783046FCF7D6FB19
:105AB00000BF80213046FCF73FFC0028F9D0641C71
:105AC00020780028F0D10B98401C0B9003E00B9835
:105AD000401C0B9000BF06E00B9810F8011B0B90C8
