:020000040800F2
:10000000681A002045010008FD230008FF230008AE
:1000100003240008072400080B2400080000000047
:100020000000000000000000000000000F24000895
:100030001124000800000000132400081524000803
:100040005F0100085F0100085F0100085F01000810
:100050005F0100085F0100085F0100085F01000800
:100060005F0100085F0100085F0100085F010008F0
:100070005F010008276200082327000845270008C1
:10008000814A00085F0100085F0100085F01000865
:100090005F0100085F0100085F0100085F010008C0
:1000A0005F0100085F0100085F0100085F010008B0
:1000B000C54F0008835000081B5100085F0100086D
:1000C0005F0100085F0100085F0100085F01000890
:1000D0005F010008BD26000821480008A161000852
:1000E0005F0100085F0100085F0100085F01000870
:1000F0005F0100085F0100085F0100085F01000860
:100100005F0100085F010008B35100085F010008AB
:10011000534900085F010008915600085F0100087C
:100120005F0100085F010008B14A00085F01000894
:10013000DFF80CD006F054FE00480047ED2300081D
:10014000681A00200648804706480047FEE7FEE799
:10015000FEE7FEE7FEE7FEE7FEE7FEE7FEE7FEE777
:1001600047020008310100080CB500200190009002
:100170006C48006840F480306A49086000BF6948F4
:10018000006800F4003000900198401C0190009835
:1001900018B90198B0F5A06FF1D16248006800F479
:1001A000003010B10120009001E000200090009884
:1001B000012843D15C48006840F010005A490860AB
:1001C0000846006820F0030008600846006840F018
:1001D0000200086053484068524948600846406839
:1001E00048600846406840F48060486008464068BF
:1001F00020F47C1048600846406840F4E8104860ED
:100200000846006840F08070086000BF45480068FC
:1002100000F000700028F9D04248406820F0030048
:10022000404948600846406840F00200486000BF0E
:100230003C48406800F00C000828F9D10CBD10B50E
:10024000FFF792FF10BD10B53648006840F001007E
:1002500034490860084640683449084031494860DC
:1002600008460068324908402E4908600846006880
:1002700020F4802008600846406820F4FE004860B2
:100280004FF41F008860FFF7DAFF4FF00060294944
:10029000086010BD10B5002100200022214B5B68D2
:1002A00003F00C0121B1042906D0082928D107E068
:1002B000214B224C236027E01F4B204C236023E07E
:1002C000184B5B6803F47010164B5B6803F48032C4
:1002D000022303EB904022B9194B4343174C236090
:1002E0000DE0104B5B6803F4003323B1144B434320
:1002F000124C236003E0104B4343104C236003E097
:100300000D4B0E4C236000BF00BF064B5B68C3F370
:1003100003130C4CE15C094B1B68CB40074C23607A
:1003200010BD000000100240002002400000FFF855
:10033000FFFFF6FE08ED00E000127A00000000204A
:1003400000093D000400002031490143314A116099
:10035000704770B5002100230F22C47804B32D4CE0
:10036000246804F4E064C4F5E064210AC1F10403E4
:10037000CA40447804FA03F1847814402143090107
:10038000254C0678A155047804F01F050124AC40E3
:1003900005786D11AD0005F1E025C5F8004109E0D3
:1003A000047804F01F050124AC401C4D067876113A
:1003B00045F8264070BD1A4A0A400243154B1B1FE0
:1003C0001A60704739B1134A121D12680243114B6B
:1003D0001B1D1A6006E00F4A121D126882430D4B66
:1003E0001B1D1A607047042808D14FF0E0210969ED
:1003F00041F004014FF0E022116107E04FF0E021ED
:10040000096921F004014FF0E022116170470000FA
:100410000000FA050CED00E000E400E080E100E0FF
:1004200080FFFF1F10B50446FA48844208D101211D
:10043000401500F07FFE0021601500F07BFE17E004
:10044000F548844208D10121001500F073FE002117
:10045000201500F06FFE0BE0F048844208D1012126
:10046000C80300F067FE00214FF4004000F062FE78
:1004700010BD30B50246002000235068E84C2040F3
:100480000D790C6844EA0524204350609068E54CDF
:100490002040D1E902542C434D7944EA45042043DD
:1004A0009060D06A20F470000C7C641EE4B2234398
:1004B00040EA0350D06230BD0021016001714171FA
:1004C0008160C16001210174704721B1826842F0EE
:1004D0000102826003E0826822F0010282607047BC
:1004E00021B1826842F48072826003E0826822F463
:1004F00080728260704710B50023CBB21AB1446895
:100500001C43446002E044689C43446010BD816821
:1005100041F0080181607047014600208A6802F0BE
:1005200008020AB1012000E000207047816841F014
:10053000040181607047014600208A6802F00402CD
:100540000AB1012000E00020704721B1826842F426
:10055000A002826003E0826822F4A00282607047F9
:10056000014600208A6802F480020AB1012000E0FE
:100570000020704710B50A4600210023416821F48D
:100580006041531E41EA4331416010BD21B14268D0
:1005900042F40062426003E0426822F4006242607A
:1005A0007047F0B504460D4600200021092D11DDED
:1005B000E068A5F10A0606EB4607072606FA07F1EA
:1005C0008843A5F10A0606EB460603FA06F108433E
:1005D000E0600CE0206905EB4507072606FA07F105
:1005E000884305EB450603FA06F108432061072A14
:1005F0000FDA606B561E06EB86071F2606FA07F118
:100600008843561E06EB860605FA06F1084360632A
:1006100022E00D2A0FDA206BD61F06EB86071F2675
:1006200006FA07F18843D61F06EB860605FA06F19F
:100630000843206310E0E06AA2F10D0606EB86078E
:100640001F2606FA07F18843A2F10D0606EB86067F
:1006500005FA06F10843E062F0BD21B1826842F478
:100660008012826003E0826822F480128260704708
:100670000146C86C80B2704766484C3000687047CD
:1006800021B1426842F48062426003E0426822F491
:1006900080624260704721B1426842F480524260F9
:1006A00003E0426822F48052426070470A4600210B
:1006B000816821F4E04111438160704721B1826873
:1006C00042F40042826003E0826822F400428260C9
:1006D000704721B1826842F40212826003E08268AE
:1006E00022F4021282607047014600208A6802F4F8
:1006F00000120AB1012000E000207047F0B5044666
:100700001546002000220026092911DDE068A1F12C
:100710000A0707EB470C072707FA0CF29043A1F1F1
:100720000A0707EB470703FA07F21043E0600CE003
:10073000206901EB410C072707FA0CF2904301EB0B
:10074000410703FA07F210432061A06BC0F3015682
:10075000EF1C06F1010CA7EB0C0707EB870C1F271A
:1007600007FA0CF29043EF1C06F1010CA7EB0C0703
:1007700007EB870701FA07F21043A063F0BD10B53D
:100780000A4600210023816B21F44011531E41EAE7
:100790000351816310BD08B5002300930090009BB6
:1007A0000B440093009B1A6008BD08B50246002068
:1007B0000090009201F12800009B184400900098DE
:1007C000006880B208BD0A4600214168164B1940F6
:1007D0001143416070474162826270470A460021BE
:1007E000416821F01F0111434160704740B1094940
:1007F0000831096841F40001064A0832116007E037
:1008000004490831096821F40001024A08321160E4
:10081000704700000024014000280140003C0140D6
:10082000FFFEF0FFFDF7F1FFFFFD3FFF0246002056
:1008300013680B400BB1012000E000207047CA4351
:100840000260704770B502460020002300240B129E
:100850005568CEB205EA060415681D4015B10CB105
:10086000012000E0002070BD00220A12D343036083
:100870007047000001684FF6FE72114001600021D0
:10088000016041608160C1608D49884208D18C4916
:100890000839496841F00F01894A083A51608AE0F5
:1008A00087491431884208D185490839496841F09F
:1008B000F001834A083A51607DE08149283188423D
:1008C00008D17F490839496841F470617C4A083A87
:1008D000516070E07A493C31884208D17849083942
:1008E000496841F47041764A083A516063E07449BE
:1008F0005031884208D172490839496841F4702161
:100900006F4A083A516056E06D496431884208D117
:100910006B490839496841F47001694A083A5160E5
:1009200049E067497831884208D165490839496802
:1009300041F07061624A083A51603CE06149884286
:1009400006D1011F096841F00F01021F116032E05A
:100950005C491431884208D15A49091F096841F09D
:10096000F001584A121F116025E05649283188428B
:1009700008D15449091F096841F47061514A121F96
:10098000116018E04F493C31884208D14D49091F98
:10099000096841F470414B4A121F11600BE049494C
:1009A0005031884207D14749091F096841F4702135
:1009B000444A121F1160704710B50022026847F6C2
:1009C000F0739A430C6A8B6823430C6923434C6988
:1009D00023438C692343CC6923434C6A23438C6AA9
:1009E00023431A430260CB6843600B6883604B6803
:1009F000C36010BD0021016041608160C160016180
:100A000041618161C161016241628162704721B1CE
:100A1000026842F00102026004E002684FF6FE73D1
:100A20001A40026070471AB103680B43036002E08A
:100A300003688B4303607047416070470146486814
:100A400080B2704701460020002201F080531BB1A4
:100A50001C4B083B1A6802E0194B083B1A6802EA73
:100A600001030BB1012000E00020704700F080512D
:100A700019B11449091F086002E01149083948609A
:100A8000704701460020002201F080531BB10D4B3E
:100A9000083B1A6802E00A4B083B1A6802EA0103A5
:100AA0000BB1012000E00020704700F0805119B127
:100AB0000449091F086002E001490839486070478D
:100AC000080002400804024010B50446CC488442A5
:100AD00008D10121042000F02DFB0021042000F0AA
:100AE00029FB46E0C748844208D10121082000F0D4
:100AF00021FB0021082000F01DFB3AE0C24884429F
:100B000008D10121102000F015FB0021102000F079
:100B100011FB2EE0BD48844208D10121202000F0C5
:100B200009FB0021202000F005FB22E0B8488442A8
:100B300008D10121402000F0FDFA0021402000F002
:100B4000F9FA16E0B348844208D10121802000F070
:100B5000F1FA0021802000F0EDFA0AE0AE4884426C
:100B600007D10121801500F0E5FA0021A01500F061
:100B7000E1FA10BD10B50121084600F0DBFA0021B2
:100B8000012000F0D7FA10BD2DE9F0410246002502
:100B90000026002000230024002791F803C00CF059
:100BA0000F0591F803C00CF0100CBCF1000F03D03E
:100BB00091F802C04CEA050591F800C0BCF1000FA5
:100BC00031D0146800202BE04FF0010C0CFA00F338
:100BD000B1F800C00CEA03069E4220D183004FF01A
:100BE0000F0C0CFA03F7BC4305FA03FC4CEA0404AF
:100BF00091F803C0BCF1280F06D14FF0010C0CFA9C
:100C000000FCC2F814C00AE091F803C0BCF1480F20
:100C100005D14FF0010C0CFA00FCC2F810C0401CCA
:100C20000828D1D31460B1F800C0BCF1FF0F34DD47
:100C3000546800202EE000F1080C4FF0010808FA7B
:100C40000CF3B1F800C00CEA03069E4221D18300E8
:100C50004FF00F0C0CFA03F7BC4305FA03FC4CEA07
:100C6000040491F803C0BCF1280F05D100F1080C71
:100C700008FA0CF8C2F8148091F803C0BCF1480FD0
:100C800007D100F1080C4FF0010808FA0CF8C2F87F
:100C90001080401C0828CED35460BDE8F0814FF688
:100CA000FF710180022181700421C17070470246EA
:100CB000002093680B400BB1012000E0002070473A
:100CC0000146886880B2704702460020D3680B4016
:100CD0000BB1012000E0002070470146C86880B2D7
:100CE000704701617047416170470AB1016100E0DE
:100CF00041617047C16070474FF480320A4382619E
:100D00008161826182698269704702460020434B9B
:100D100018684FF68073184040EA021008433F4BB2
:100D2000186070473E49C8617047F0B50A46002315
:100D300000240021002500F00046B6F1004F02D14A
:100D4000364EF16901E0354E7168C0F3034583B258
:100D500000F44016B6F5401F08D121F070612F4E07
:100D6000766826F070662D4F7E6012E000F48016E3
:100D7000B6F5801F06D1032606FA05F4A14341F01B
:100D8000706106E0460D360103FA06F6B14341F004
:100D9000706122B1460D360103FA06F6314300F0C8
:100DA0000046B6F1004F02D11C4EF16101E01B4E2E
:100DB0007160F0BD30B500228B071C0F0F2303FAC2
:100DC00004F2164B08338C1053F824309343134C21
:100DD00008348D1044F8253023468C1053F8243005
:100DE0008C07240F00FA04F423430C4C08348D10B4
:100DF00044F8253030BD0A49DC31086070470000F6
:100E000000080140000C01400010014000140140A6
:100E100000180140001C014000200140000001407A
:100E200000002042DF48006840F00100DD49086012
:100E300008464068DC490840DA49486008460068CE
:100E4000DA490840D74908600846006820F4802045
:100E500008600846406820F4FE0048604FF41F0018
:100E600088607047CF49096821F48031CD4A11600C
:100E70001146096821F480211160B0F5803F03D04C
:100E8000B0F5802F0ED106E0C649096841F48031E3
:100E9000C44A116007E0C349096841F4A021C14A6E
:100EA000116000E000BF00BF704710B5014600228E
:100EB000002300204A11012A02D1BA4C236806E01F
:100EC000022A02D1B74C236A01E0B64C636A01F0F2
:100ED0001F02012494401C400CB1012000E00020BE
:100EE00010BD38B5002000900024002500BF31203F
:100EF000FFF7DBFF05460098401C00900098B0F516
:100F0000A06F01D0002DF2D03120FFF7CEFF08B145
:100F1000012400E00024204638BD01460020A14AFB
:100F2000106820F0F80040EAC10010607047A04946
:100F300008607047024600209A4B586820F47C10E5
:100F400042EA01031843974B586070479849086676
:100F5000704701460020934A506820F00300084380
:100F6000506070478F48406800F00C0070470146A1
:100F700000208C4A506820F0F00008435060704711
:100F800001460020874A506820F4E0600843506022
:100F9000704701460020834A506820F4605040EAC0
:100FA000C1005060704729B17E4A527A02437D4B9E
:100FB0005A7204E07B4A527A82437A4B5A727047E3
:100FC0007B49D8310860704701460020754A506857
:100FD00020F440400843506070470021714A20329D
:100FE0001170704A82F82010012802D004280AD11A
:100FF00004E001216B4A2032117005E00521694AA5
:101000002032117000E000BF00BF704769490860DE
:1010100070476449096A0143624A11627047654931
:1010200044390860704730B50021002200240023B5
:101030005C4D6D6805F00C0121B1042905D008292B
:1010400023D105E05C4D056022E05B4D05601FE0AB
:10105000544D6D6805F47012524D6D6805F480347E
:10106000022505EB92421CB9544D554305600BE037
:101070004C4D6D6805F400351DB1504D554305606C
:1010800002E04D4D5543056002E04B4D056000BF49
:1010900000BF444D6D6805F0F0010909484D6B5CD7
:1010A0000568DD4045603F4D6D6805F4E061090A63
:1010B000434D6B5C4568DD4085603A4D6D6805F4D5
:1010C0006051C90A3E4D6B5C4568DD40C560354DD9
:1010D0006D6805F44041890B3A4D6B5CC568B5FB02
:1010E000F3F5056130BD29B12E4A526902432D4BFB
:1010F0005A6104E02B4A526982432A4B5A61704775
:1011000029B1284A92690243264B9A6104E0254A94
:1011100092698243234B9A61704729B1214AD2696F
:101120000243204BDA6104E01E4AD26982431D4B20
:10113000DA61704729B11B4AD2680243194BDA6061
:1011400004E0184AD2688243164BDA60704729B12E
:10115000144A12690243134B1A6104E0114A1269DE
:101160008243104B1A61704712494039086070473A
:101170000F49C86470470B49C87170470948406AF5
:1011800040F0807007494862704701460020054AD8
:1011900092680A400AB1012000E00020704701492E
:1011A00088727047001002400000FFF8FFFFF6FE53
:1011B000000042428004424200127A0000093D00D1
:1011C000140000202400002010B50446FE4884428C
:1011D00008D10121C014FFF7ADFF0021E014FFF793
:1011E000A9FFC4E0B4F1804F08D101210846FFF700
:1011F000AEFF00210120FFF7AAFFB8E0F3488442C8
:1012000008D101210220FFF7A2FF00210220FFF7F1
:101210009EFFACE0EE48844208D101210420FFF794
:1012200096FF00210420FFF792FFA0E0E9488442E6
:1012300008D101210820FFF78AFF00210820FFF7CD
:1012400086FF94E0E448844208D101211020FFF792
:101250007EFF00211020FFF77AFF88E0DF488442FC
:1012600008D101212020FFF772FF00212020FFF785
:101270006EFF7CE0DA48844208D101214014FFF778
:1012800059FF00216014FFF755FF70E0D5488442F4
:1012900009D10121C804FFF74DFF00214FF40020C0
:1012A000FFF748FF63E0D048844209D101210805D7
:1012B000FFF740FF00214FF48010FFF73BFF56E09F
:1012C000CA48844209D101214805FFF733FF0021B4
:1012D0004FF40010FFF72EFF49E0C548844208D1C3
:1012E00001214020FFF733FF00214020FFF72FFFAF
:1012F0003DE0C048844208D101218020FFF727FF4C
:1013000000218020FFF723FF31E0BB48844208D151
:1013100001218015FFF71BFF0021A015FFF717FF24
:1013200025E0B648844209D101210804FFF702FFF5
:1013300000214FF48030FFF7FDFE18E0B0488442F2
:1013400009D101214804FFF7F5FE00214FF40030D8
:10135000FFF7F0FE0BE0AB48844208D1012188047E
:10136000FFF7E8FE00214FF48020FFF7E3FE10BDF9
:1013700000220288944B98420ED0994B98420BD091
:10138000B0F1804F08D0914B984205D0904B9842D5
:1013900002D0904B984204D14FF68F731A404B887D
:1013A0001A438D4B984207D08C4B984204D04FF68D
:1013B000FF431A40CB881A4302808B8883850B88B1
:1013C0000385814B98420BD0854B984208D08B4BBC
:1013D000984205D08A4B984202D08A4B984201D15C
:1013E0000B7A038601238382704770B500240022A4
:1013F0000023058C4FF6FE7635400584028C8388E9
:10140000048B4FF68F752C40B51E2C400D882C4355
:10141000751E2A400D892A434D882A436A4DA842E9
:101420000BD06F4DA84208D0744DA84205D0744D22
:10143000A84202D0734DA84213D14FF6F7752A4047
:101440004D892A434FF6FB752A408D882A434FF673
:10145000FF652B404FF6FF552B408D892B43CD89DF
:101460002B4383800483CD888586028470BD70B54C
:10147000002400220023058C4FF6EF7635400584CA
:10148000028C8388048B48F6FF752C404FF6FF458D
:101490002C400D884FF6FF7606EA05252C434FF6C3
:1014A000DF752A400D8906EA05152A434D8806EAAC
:1014B00005152A43444DA84202D0494DA8421DD1EA
:1014C0004FF67F752A404D894FF6FF7606EA0515DF
:1014D0002A434FF6BF752A408D8806EA05152A4330
:1014E0004FF6FF352B404FF2FF752B408D8906EAF2
:1014F00085052B43CD8906EA85052B43838004832C
:10150000CD880587028470BD70B5002400220023B9
:10151000058C4FF6FF6635400584028C8388848BEA
:101520004FF68F752C404FF6FC752C400D882C43E0
:101530004FF6FF552A400D894FF6FF7606EA05253E
:101540002A434D8806EA05252A431F4DA84202D0AA
:10155000234DA8421DD14FF2FF752A404D894FF609
:10156000FF7606EA05252A434FF6FF352A408D8887
:1015700006EA05252A434EF6FF752B404DF6FF750A
:101580002B408D8906EA05152B43CD8906EA051502
:101590002B4383808483CD888587028470BD70B59A
:1015A000002200230024058C4EF6FF76354005848A
:1015B000038C8488828B48F6FF752A404FF6FF45DE
:1015C0002A400D8820E00000002C0140000400406B
:1015D00000080040000C00400010004000140040D3
:1015E00000340140004C01400050014000540140D3
:1015F00000180040001C0040002000400040014056
:1016000000440140004801404FF6FF7606EA0525F8
:101610002A434DF6FF752B400D8906EA05352B430D
:101620004D8806EA05352B43FA4DA84202D0FA4D03
:10163000A84208D14BF6FF752C408D894FF6FF76F6
:1016400006EA85152C4384808283CD88A0F840501B
:10165000038470BD828B4FF2FF331A408283828BEA
:101660004FF6FF7303EA01231A4382837047F0B5F4
:101670000C461546002200210026078C4EF6FF7C02
:1016800007EA0C070784828B018C4FF6FF7707EA85
:10169000043640F6FF473A404FF6FF7707EA052742
:1016A0003A434FF6FF7707EA03373A43D94FB84238
:1016B0000ED0D94FB8420BD0B0F1804F08D0D74FE1
:1016C000B84205D0D64FB84202D0D64FB84206D164
:1016D0004DF6FF77394046F48057394305E047F629
:1016E000FF57394044F48057394382830184F0BD69
:1016F000828B4FF6F3731A408283828B0A43828374
:101700007047F0B50C461546002200210026078CD4
:101710004FF6FF6C07EA0C070784828B018C4FF6AB
:10172000FF7707EA04264FF60C773A404FF6FF772B
:1017300007EA03172F433A43B64FB8420ED0B64FCD
:10174000B8420BD0B0F1804F08D0B44FB84205D0AA
:10175000B34FB84202D0B34FB84206D14FF6FF574D
:10176000394046F48077394305E04FF2FF5739405E
:1017700044F48077394382830184F0BD028B4FF2B9
:10178000FF331A400283028B4FF6FF7303EA0123F3
:101790001A4302837047F0B50C461546002200211B
:1017A0000026078C4FF6EF7C07EA0C070784028BB4
:1017B000018C4FF6FF7707EA041640F6FF473A40E0
:1017C0004FF6FF7707EA03373A434FF6FF7707EA0A
:1017D00005273A438F4FB8420ED08F4FB8420BD0F7
:1017E000B0F1804F08D08D4FB84205D08C4FB84231
:1017F00002D08C4FB84206D14FF6DF77394046F021
:101800001007394305E04FF65F77394044F0100781
:10181000394302830184F0BD028B4FF6F3731A4003
:101820000283028B0A4302837047F0B50C461546CB
:1018300000220021068C4FF6FE773E400684028B84
:10184000018C4FF60C7632407E1C06EA03162E43BE
:101850003243704EB0420ED06F4EB0420BD0B0F15A
:10186000804F08D06D4EB04205D06D4EB04202D0D0
:101870006C4EB04206D14FF6FD76314044F0010681
:10188000314305E04FF6F576314044F0010631432F
:1018900002830184F0BD70B505460C465D48854263
:1018A0000ED05D4885420BD0B5F1804F08D05B4823
:1018B000854205D05A48854202D05A48854200D117
:1018C00000E000BF208850B92389A288618828469B
:1018D000FFF7ABFFE1882846FFF79EFF25E0208851
:1018E00004280AD12389A28861882846FFF753FF7C
:1018F000E1882846FFF742FF17E0208808280AD130
:101900002389A28861882846FFF7FBFEE1882846E4
:10191000FFF7EEFE09E02389A28861882846FFF7D9
:10192000A6FEE1882846FFF795FE70BD2DE9F0413F
:1019300005460C4600260127608808B9022600E00B
:101940000026A088012801D1022700E00127208875
:10195000A0B92389A28861882846FFF766FFE1883D
:101960002846FFF759FF23893A4631462846FFF7B4
:1019700012FFE1882846FFF701FF13E02389A288C0
:1019800061882846FFF707FFE1882846FFF7F6FE43
:1019900023893A4631462846FFF747FFE188284623
:1019A000FFF73AFFBDE8F0810A884B881A438B881D
:1019B0001A43CB881A430B891A434B891A438B89E4
:1019C0001A43A0F8442070474FF6FF718180002130
:1019D0000180C180418001727047002101804180F7
:1019E0008180C180018141818181C1817047002155
:1019F00001804180012181800021C18001817047E7
:101A00000021018041808180C180018141818181EB
:101A100070470000002C01400034014000040040E9
:101A200000080040000C004021B1028842F0010291
:101A3000028004E002884FF6FE731A40028070476D
:101A400031B1B0F8442042F40042A0F8442005E04F
:101A5000B0F84420C2F30E02A0F8442070471AB137
:101A600083890B43838102E083898B4383817047A1
:101A70008182704741EA0203A0F8483070471AB1EA
:101A800083890B43838102E083898B438381704781
:101A900001894FF6F8721140018170470A46002112
:101AA00001894FF68F73194011430181704730B59A
:101AB00004460D4629462046FFF7F0FF208940F0F6
:101AC0000700208130BD2DE9F04104460D46164641
:101AD0001F46602D06D13B46012231462046FFF7C6
:101AE0005AFE05E03B46012231462046FFF79DFEA7
:101AF00029462046FFF7D2FF208940F007002081C9
:101B0000BDE8F08130B50C4600210189C9B24FF61D
:101B1000FF7505EA0325154325432943018130BD9F
:101B20002DE9F04105460E461746984600244346E7
:101B30003A4631462846FFF7E5FF2C894FF6F87004
:101B4000044044F007044FF68F70044044F07004E2
:101B50002C81BDE8F081F0B504460D4616461F46BF
:101B60003B46324629462046FFF7CCFF208940F409
:101B700080402081F0BD0185828270470A460021A5
:101B800001884FF68F731940114301807047F0B5FB
:101B90000C4615461E460021002200230189028BB7
:101BA000038C4FF6F877394021434FF6FC473A4013
:101BB00040F201173A434FF6DD773B404FF6FF778F
:101BC00007EA06172F433B43018102830384F0BDDC
:101BD0000A460021018B4FF68F7319401143018390
:101BE00070470A460021018B48F6FF7319404FF6F3
:101BF000FF7303EA02231943018370470A46002159
:101C0000818B4FF68F7319401143818370470A46C9
:101C10000021818B48F6FF7319404FF6FF7303EAEA
:101C2000022319438183704721B1028842F0800268
:101C3000028004E002884FF67F731A4002807047EA
:101C400021B1828842F00402828004E082884FF64B
:101C5000FB731A408280704721B1828842F00802EB
:101C6000828004E082884FF6F7731A4082807047C2
:101C700021B1828842F00102828004E082884FF61E
:101C8000FE731A40828070470A460021018B4FF68E
:101C9000F77319401143018370470A460021018BF5
:101CA0004FF2FF7319404FF6FF7303EA0223194303
:101CB000018370470A460021818B4FF6F773194064
:101CC0001143818370470A460021818B4FF2FF73D5
:101CD00019404FF6FF7303EA0223194381837047CB
:101CE0000A460021018B4FF6FB7319401143018313
:101CF00070470A460021018B4FF6FF3319404FF61B
:101D0000FF7303EA02231943018370470A46002147
:101D1000818B4FF6FB7319401143818370470A464C
:101D20000021818B4FF6FF3319404FF6FF7303EA12
:101D300002231943818370470A460021018B4FF625
:101D40007F7319401143018370470A460021018BBC
:101D5000C1F30E014FF6FF7303EA02231943018317
:101D600070470A460021818B4FF67F73194011435B
:101D7000818370470A460021818BC1F30E014FF623
:101D8000FF7303EA02231943818370470A46002147
:101D9000018C4FF6FD7319401143018470470A46C8
:101DA0000021018C4FF6F7731940114301847047ED
:101DB0000A460021018C4FF6DF7319404FF6FF737E
:101DC00003EA02131943018470470A460021018C7B
:101DD0004FF67F7319404FF6FF7303EA021319435E
:101DE000018470470A460021018C4FF6FF531940C9
:101DF0004FF6FF7303EA02231943018470470A4632
:101E00000021018C4FF2FF7319404FF6FF7303EA74
:101E100002231943018470470A460021018C4DF6C4
:101E2000FF7319404FF6FF7303EA0233194301842D
:101E3000704730B5002301248C40A3B2048C9C432E
:101E40000484048C02FA01F5ADB22C43048430BD45
:101E500030B5002304248C40A3B2048C9C4304843A
:101E6000048C02FA01F5ADB22C43048430BD70B588
:101E70000346002000241846183001258D40ACB2DE
:101E80001D8CA5431D8409B1082909D100EB61000F
:101E9000056825F0700505600568154305600EE0CE
:101EA0000D1FC5F34E052844056825F4E04505607F
:101EB00005684FF6FF7606EA02263543056070BDD9
:101EC00021B1028842F00202028004E002884FF64B
:101ED000FD731A400280704721B1028842F004026B
:101EE000028004E002884FF6FB731A4002807047BC
:101EF00021B1828842F08002828004E082884FF61D
:101F00007F731A408280704702884FF6F7731A4039
:101F1000028002880A430280704782884FF68F73DE
:101F20001A40828082880A438280704702894FF675
:101F3000F8731A40028102890A43028170470289BC
:101F40004FF67F731A40028102890A43028170476B
:101F5000818470478185704781867047018770470B
:101F600081877047A0F84010704702884FF6FF4302
:101F70001A40028002880A43028070470146888E18
:101F800070470146088F70470146888F70470146A9
:101F9000B1F8400070470146888C70470146088DB3
:101FA000704702460020138A0B400BB1012000E06D
:101FB00000207047CA430282704730B502460020B5
:101FC00000230024158A05EA0103958905EA010426
:101FD00013B10CB1012000E0002030BDCA430282E1
:101FE0007047000010B50446FB48844209D1012126
:101FF0008803FFF79FF800214FF48040FFF79AF81D
:1020000032E0F648844209D101214804FFF79FF8E5
:1020100000214FF40030FFF79AF825E0F0488442A1
:1020200009D101218804FFF792F800214FF48020A4
:10203000FFF78DF818E0EB48844209D10121C8046C
:10204000FFF785F800214FF40020FFF780F80BE040
:10205000E548844208D101210805FFF778F80021FE
:102060004FF48010FFF773F810BD2DE9F04786B0EC
:1020700005460E460024A24600BFA1460027B089AF
:1020800000B100BF2F462C8A4CF6FF700440F08848
:1020900004432C82AC894EF6F3100440B088318999
:1020A0000843718908430443AC81AC8A4FF6FF4072
:1020B0000440B0890443AC8201A8FEF7B4FFC648CF
:1020C000874202D1DDF810A001E0DDF80CA0A8895C
:1020D00000F4004040B10AEBCA0000EB0A1031687E
:1020E0004900B0FBF1F807E00AEBCA0000EB0A1068
:1020F00031688900B0FBF1F86420B8FBF0F004010E
:102100002009642101FB1089A88900F4004040B136
:10211000322000EBC900B0FBF1F000F007000443EF
:1021200008E0322000EB09106421B0FBF1F000F070
:102130000F0004432C8106B0BDE8F0874FF4165120
:10214000016000218180C18001810C214181002139
:102150008181704710B502460020108A4FF2FF03BC
:1021600018400B884C8823438C882343CC88234316
:102170001843108210BD0021018041808180C18000
:10218000704721B1828942F40052828104E0828941
:102190004DF6FF731A4082817047F0B50346002464
:1021A00000260025002040F66A17B94200D100BF82
:1021B0001846C1F3421401F01F06012707FA06F57D
:1021C000012C01D10C3004E0022C01D1103000E0D0
:1021D00014301AB107682F43076002E00768AF4365
:1021E0000760F0BD1AB1838A0B43838202E0838AC1
:1021F0008B4383827047028A4FF6F0731A40028243
:10220000028A0A430282704782894FF2FF731A40A2
:10221000828182890A438281704721B1828942F09A
:102220000202828104E082894FF6FD731A408281A6
:102230007047028A4FF6DF731A400282028A0A430D
:102240000282704721B1028A42F48042028204E095
:10225000028A4BF6FF731A4002827047C1F30802EC
:102260008280704701468888C0F3080070478189E2
:1022700041F0010181817047028BD2B20283028B4F
:1022800042EA012202837047028B02F47F420283FA
:10229000028B0A430283704721B1828A42F02002F6
:1022A000828204E0828A4FF6DF731A40828270478E
:1022B00021B1828A42F01002828204E0828A4FF6C3
:1022C000EF731A408282704721B1828A42F008027D
:1022D000828204E0828A4FF6F7731A408282704746
:1022E00021B1828942F40042828103E08289C2F3F3
:1022F0000E028281704721B1828A42F4006282829A
:1023000004E0828A4FF2FF731A4082827047828A09
:102310004FF6FB731A408282828A0A438282704798
:1023200021B1828A42F00202828204E0828A4FF660
:10233000FD731A408282704702460020B1F5007F8B
:1023400000D100BF13880B400BB1012000E000203A
:10235000704701F40072B2F5007F00D100BFCA439C
:102360000280704770B5024600240023002500203B
:1023700040F66A16B14200D100BFC1F3421501F028
:102380001F03012606FA03F3012D02D1968933407B
:1023900006E0022D02D1168A334001E0968A3340CE
:1023A0000C12012606FA04F41688344013B10CB15D
:1023B000012000E0002070BD10B50022002340F68F
:1023C0006A14A14200D100BF0A1201249440A3B2B2
:1023D000DC43048010BD0000003801400044004090
:1023E00000480040004C00400050004000F0AEF8B3
:1023F00000F0D4F901E001F035FFFCE7704700BFC1
:10240000FEE700BFFEE700BFFEE700BFFEE7704744
:10241000704770477047000000B58BB00121084637
:10242000FEF761FED448FEF725FAD4480090D44860
:1024300001901020029000200390049080200590CD
:1024400000200690079020200890000209900020AC
:102450000A906946C848FEF7AFFA01220221C64831
:10246000FEF7E1FA01220821C348FEF7DCFA012257
:102470008021C248001FFFF7B5FE0021BE48FEF7CD
:10248000C6FABD481430FEF7F5F9BC480090BD48C7
:102490000190002002904FF4FA7003900020049005
:1024A00080200590002006900790202008900002D0
:1024B000099000200A906946AF481430FEF77CFA74
:1024C00001220221AC481430FEF7ADFA01220821A6
:1024D000A9481430FEF7A7FA01224021A748001F9F
:1024E000FFF780FE0121A4481430FEF790FA0BB0EC
:1024F00000BD08B525208DF8000000208DF80100F2
:1025000002208DF8020001208DF803006846FDF7D7
:1025100020FF0E208DF8000000208DF80100012022
:102520008DF802008DF803006846FDF712FF0F20BA
:102530008DF8000000208DF801008DF802000120C8
:102540008DF803006846FDF704FF08BD00B585B0AF
:1025500001210420FEF7D4FD01218803FEF7D0FD00
:102560004FF40070ADF8100018208DF81300032010
:102570008DF8120004A98448FEF706FB4FF4806032
:10258000ADF8100004208DF8130004A97E48FEF772
:10259000FBFA4FF4E13000900020ADF80400ADF8F4
:1025A0000600ADF80800ADF80C000C20ADF80A00EC
:1025B00069467248001FFFF758FD012240F224418E
:1025C0006E48001FFFF7E9FD01216C48001FFFF76F
:1025D000D8FD40216948001FFFF7BBFEFFF71CFF35
:1025E000FFF787FF01206949087005B000BD70B58D
:1025F00004460D4629462046FFF730FE00BF8021E5
:102600002046FFF799FE0028F9D070BD2DE9F04172
:1026100006460C4615462F4604E021783046FFF763
:10262000E6FF641C381EA7F101018FB2F5D1BDE8A9
:10263000F08110B5044621465048001FFFF70EFEFA
:1026400000BF80214D48001FFFF776FE0028F8D01C
:1026500010BD70B505460C4644B1B4F5FA7F02DDF5
:102660004FF4806000E02046044600E070BD00BFEB
:10267000474800780028FBD025B12246294640482B
:1026800004F0D6F94FF40050FEF70FFA4FF4004073
:10269000FEF70BFA00213848FEF7B9F936484438FE
:1026A000846401213448FEF7B2F9002038490870EB
:1026B00000BFDBE7012037490870704710B540F2D2
:1026C00024412E48001FFFF74DFE48B32B48001F42
:1026D0000488001D0488002127481430FEF797F96C
:1026E00025481430FEF7AAF9C0F5FA7084B22246E4
:1026F0002449294803F030F84FF47020FEF7B6F96A
:102700004FF4FA701C494439C86501211A48143045
:10271000FEF77DF940F224411848001FFFF74CFEF8
:1027200010BD10B54FF40050FEF7BFF94FF4004054
:10273000FEF7BBF900211048FEF769F901201449A2
:10274000087010BD10B54FF40030FEF7AEF94FF42D
:102750000020FEF7AAF9002107481430FEF757F9C8
:102760004FF4FA7004494439C86501210248143015
:10277000FEF74DF910BD000044000240043801404E
:102780008001002074030020000801402A0000207E
:10279000290000202B0000206805002010B54FF410
:1027A000FA71FE4802F0A8FF10BD01B5FC480078A0
:1027B00040B19DF80010FB48FFF719FF0020F849D1
:1027C000087009E0F848007830B10121684604F04B
:1027D0003DF80020F449087008BD70B504460D4668
:1027E000EF48007828B12A462146EE48FFF70EFF51
:1027F00006E0ED48007818B12946204604F026F896
:1028000070BD10B5034693FBF1F001FB1030C4B26C
:10281000A24201D1012010BD0020FCE701B5E04833
:10282000007828B19DF80010DE48FFF7E0FE06E0D2
:10283000DD48007818B10121684604F007F808BDAA
:102840002DE9F04192B000240025D44901A803F0FD
:1028500004F8DDE90101CDE9030110A9CF4802F038
:102860009FFF9DF84000CA3816287DD2DFE810F09F
:1028700015032D0345036F03C7037C007C007C0018
:102880007C007C007C00EC02D302A8027D024F0297
:1028900016006500E9007C007F01220211A9BF48F3
:1028A00002F07EFF9DF8440005909DF8440020440E
:1028B00084B2681C85B211A9B84802F071FF9DF876
:1028C000442029462046FFF79CFF50B9BDF80E2052
:1028D000BDF80C10B14802F0B8FF002012B0BDE8FE
:1028E000F08111A9AD4802F05BFF9DF844009628E5
:1028F00008D0BDF80E20BDF80C10A84802F0A5FFC6
:102900000020EBE7059AD0B2A84A516E884796207E
:102910008DF83C00A64800788DF83D00A44800786A
:10292000FF2190FBF1F201FB1200C0B28DF83E00D6
:1029300003210FA8FFF751FF16E211A9974802F0F3
:102940002FFF9DF84400204484B2681C85B29DF896
:102950004400FF2809D0BDF80E20BDF80C108F48A8
:1029600002F073FF0020B9E7F0E312E011A98B48F1
:1029700002F016FF9DF84400204484B2681C85B222
:102980009DF84400FF2800D104E09DF8440006F8BB
:10299000010BEBE700BF12E011A9804802F000FF35
:1029A0009DF84400204484B2681C85B29DF8440020
:1029B000FF2800D104E09DF8440007F8010BEBE785
:1029C00000BF11A9754802F0EBFE9DF8442029468E
:1029D0002046FFF716FF40B9BDF80E20BDF80C10D9
:1029E0006E4802F032FF002078E711A96B4802F030
:1029F000D7FE9DF84400972808D0BDF80E20BDF8FA
:102A00000C10664802F021FF002067E7F9B2F0B22F
:102A1000664B9A6E904797208DF83C00644800788A
:102A20008DF83D0062480078FF2190FBF1F201FB38
:102A30001200C0B28DF83E0003210FA8FFF7CDFEB3
:102A40008EE311A9554802F0ABFE9DF844002044E6
:102A500084B2681C85B29DF84400FF2808D0BDF8F8
:102A60000E20BDF80C104D4802F0EFFE002035E7B7
:102A700012E011A9494802F093FE9DF84400204459
:102A800084B2681C85B29DF84400FF2800D104E0A0
:102A90009DF8440006F8010BEBE700BF12E011A916
:102AA0003E4802F07DFE9DF84400204484B2681C3C
:102AB00085B29DF84400FF2800D104E09DF8440051
:102AC00007F8010BEBE700BF11A9344802F068FEDC
:102AD0009DF84400204484B2681C85B29DF84400EF
:102AE00005909DF84400042801DD0020F6E611A9B8
:102AF0002A4802F055FE9DF8442029462046FFF75B
:102B000080FE40B9BDF80E20BDF80C10234802F03D
:102B10009CFE0020E2E611A9204802F041FE9DF84B
:102B20004400982808D0BDF80E20BDF80C101B48B2
:102B300002F08BFE0020D1E6F9B2F0B21B4BDA6E48
:102B4000904798208DF83C00194800788DF83D009A
:102B500017480078FF2190FBF1F201FB1200C0B290
:102B60008DF83E0003210FA8FFF737FEF8E211A908
:102B70000A4802F015FE9DF8440005909DF84400B7
:102B8000204484B2681C85B211A9044802F008FEF2
:102B90009DF84400204484B2681C0BE068050020C6
:102BA0002B000020003801406C0100202C00002088
:102BB0006801002085B29DF84400FF2808D0BDF8C8
:102BC0000E20BDF80C10FB4802F03FFE002085E609
:102BD00012E011A9F74802F0E3FD9DF844002044FB
:102BE00084B2681C85B29DF84400FF2800D104E03F
:102BF0009DF8440006F8010BEBE700BF12E011A9B5
:102C0000EC4802F0CDFD9DF84400204484B2681CDD
:102C100085B29DF84400FF2800D104E09DF84400EF
:102C200007F8010BEBE700BF11A9E24802F0B8FD7D
:102C30009DF8442029462046FFF7E3FD40B9BDF842
:102C40000E20BDF80C10DB4802F0FFFD002045E629
:102C500011A9D84802F0A4FD9DF84400992808D095
:102C6000BDF80E20BDF80C10D24802F0EEFD002099
:102C700034E6FAB2F1B2DDF814C00CF0FF00DFF870
:102C800038C3DCF87830984799208DF83C00CB4861
:102C900000788DF83D00C9480078FF2190FBF1F2E3
:102CA00001FB1200C0B28DF83E0003210FA8FFF710
:102CB00094FD55E211A9BF4802F072FD9DF8440051
:102CC0009A2808D0BDF80E20BDF80C10B94802F0C3
:102CD000BCFD002002E6B849C86F80479A208DF8F5
:102CE0003C00B74800788DF83D00B5480078FF21DA
:102CF00090FBF1F201FB1200C0B28DF83E000321FF
:102D00000FA8FFF76AFD0020AD49087028E211A95D
:102D1000A84802F045FD9DF844009B2808D0BDF866
:102D20000E20BDF80C10A34802F08FFD0020D5E561
:102D3000A149D1F8800080479B208DF83C00A14834
:102D400000788DF83D009F480078FF2190FBF1F25C
:102D500001FB1200C0B28DF83E0003210FA8FFF75F
:102D60003CFD002097490870FAE111A9914802F052
:102D700017FD9DF844009C2808D0BDF80E20BDF832
:102D80000C108C4802F061FD0020A7E58A49D1F8BB
:102D9000840080479C208DF83C00884800788DF89E
:102DA0003D0086480078FF2190FBF1F201FB120004
:102DB000C0B28DF83E0003210FA8FFF70EFDCFE152
:102DC00011A97C4802F0ECFC9DF844009D2808D035
:102DD000BDF80E20BDF80C10764802F036FD00203C
:102DE0007CE57549D1F8880080479D208DF83C002E
:102DF000724800788DF83D0070480078FF2190FB04
:102E0000F1F201FB1200C0B28DF83E0003210FA8C1
:102E1000FFF7E3FCA4E111A9664802F0C1FC9DF8AC
:102E200044009E2808D0BDF80E20BDF80C10614863
:102E300002F00BFD002051E55F49D1F88C0080477E
:102E40009E20FFF7EBFC8BE111A95A4802F0A8FC89
:102E50009DF84400059011A9564802F0A1FC9DF888
:102E60004400069011A9534802F09AFC9DF84400D2
:102E70009F2808D0BDF80E20BDF80C104D4802F078
:102E8000E4FC00202AE5069BD9B2059BD8B24A4B48
:102E9000D3F890209047012020E511A9454802F081
:102EA0007FFC9DF84400912808D0BDF80E20BDF8A5
:102EB0000C10404802F0C9FC00200FE53E49886D27
:102EC00080479120FFF7AAFC4AE111A9394802F096
:102ED00067FC9DF84400922808D0BDF80E20BDF88C
:102EE0000C10344802F0B1FC0020F7E43249C86D00
:102EF00080479220FFF792FC32E111A92D4802F0A1
:102F00004FFC9DF84400932808D0BDF80E20BDF872
:102F10000C10284802F099FC0020DFE42649086ED6
:102F2000804793208DF83C00244800788DF83D00C0
:102F300022480078FF2190FBF1F201FB1200C0B2A1
:102F40008DF83E0003210FA8FFF747FC08E111A907
:102F5000184802F025FC9DF8440005909DF84400B7
:102F6000204484B2681C85B211A9124802F018FCF2
:102F70009DF8442029462046FFF743FC40B9BDF8A0
:102F80000E20BDF80C100B4802F05FFC0020A5E4F9
:102F900011A9084802F004FC9DF84400942813D0BD
:102FA000BDF80E20BDF80C10024802F04EFC0020C7
:102FB00094E40000680500202C0000206801002037
:102FC0006A0100206B010020059AD0B2F84A116F07
:102FD000884794208DF83C00F64800788DF83D0035
:102FE000F4480078FF2190FBF1F201FB1200C0B21F
:102FF0008DF83E0003210FA8FFF7EFFBB0E011A909
:10300000ED4802F0CDFB9DF8440005909DF844008A
:10301000204484B2681C85B211A9E74802F0C0FBC5
:103020009DF84400204484B2681C85B29DF8440099
:10303000FF2808D0BDF80E20BDF80C10DE4802F0C5
:1030400004FC00204AE412E011A9DB4802F0A8FBCE
:103050009DF84400204484B2681C85B29DF8440069
:10306000FF2800D104E09DF8440006F8010BEBE7CF
:1030700000BF12E011A9D04802F092FB9DF8440075
:10308000204484B2681C85B29DF84400FF2800D11A
:1030900004E09DF8440007F8010BEBE700BF11A91D
:1030A000C54802F07DFB9DF8440006909DF8440061
:1030B000204484B2681C85B211A9BF4802F070FB9D
:1030C0009DF8442029462046FFF79BFB40B9BDF8F8
:1030D0000E20BDF80C10B84802F0B7FB002010E439
:1030E00011A9B54802F05CFB9DF84400952808D072
:1030F000BDF80E20BDF80C10AF4802F0A6FB002072
:1031000031E4DDF8188008F0FF03FAB2F1B2DDF81F
:10311000148008F0FF00DFF89882D8F874C0E04708
:1031200095208DF83C00A34800788DF83D00A1481B
:103130000078FF2190FBF1F201FB1200C0B28DF884
:103140003E0003210FA8FFF748FB09E0FFE7BDF8A9
:103150000E20BDF80C10984802F077FB002043E4E5
:1031600000BFF920FFF721FB01209249087000BF42
:103170003AE42DE9F041A4B0002500268E496846C6
:1031800002F06BFBDDE90001CDE9020122A98A48CA
:1031900002F006FB9DF88800CA2802D0DA287CD10C
:1031A0007CE023A9844802F0FBFA9DF88C00834957
:1031B00041EA002018909DF88C00284485B2701CCC
:1031C00086B223A97C4802F0EBFA9DF88C00071127
:1031D0009DF88C0000F00F00B84019909DF88C000D
:1031E000284485B2701C86B223A9734802F0D8FA2D
:1031F0009DF88C00714941EA00201A909DF88C00DE
:10320000284485B2701C86B223A96B4802F0C8FA24
:103210009DF88C0007119DF88C0000F00F00B8405D
:103220001B909DF88C00284485B2701C86B223A99F
:10323000614802F0B5FA9DF88C2031462846FFF728
:10324000E0FA50B9BDF80A20BDF808105A4802F05B
:10325000FCFA002024B0BDE8F08123A9564802F012
:103260009FFA9DF88C00B12808D0BDF80A20BDF85F
:103270000810514802F0E9FA0020EBE7DDE9198275
:103280001FFA88F1DFF828811B9B1898D8F854C0E2
:10329000E047B120FFF7C2FABCE0B2E023A94648FC
:1032A00002F07EFA9DF88C00454908709DF88C006C
:1032B000284485B2701C86B20846007830B90020D8
:1032C000404908700120404908700CE03C480078F3
:1032D000012806D102203B49087003203A490870B2
:1032E00001E00020B6E723A9334802F059FA9DF81F
:1032F0008C709DF88C00284485B2701C86B2002426
:103300000FE023A92C4802F04BFA9DF88C0004A989
:1033100008559DF88C00284485B2701C86B2601C4C
:10332000C4B2BC42EDDB23A9234802F039FA9DF870
:103330008C2031462846FFF764FA40B9BDF80A20D0
:10334000BDF808101C4802F080FA002082E723A98B
:10335000194802F025FA9DF88C00B22808D0BDF873
:103360000A20BDF80810144802F06FFA002071E737
:10337000002435E004A8005D062801D1012000E00A
:10338000002004A9095D0622B2EB211F01D1012111
:1033900000E000210843D8B104AB621C985C04AA89
:1033A000125D0A4B53F822108847601CC4B215E026
:1033B0002C0000206801002068050020000001406A
:1033C000570100205801002059010020C8000020AA
:1033D00004A9095DFE4A52F821008047601CC4B26E
:1033E000BC42C7DDFB48007840B90120F9490870AC
:1033F0009DF81110F64A52F82100804702F006FDB0
:1034000008E0BDF80A20BDF80810F34802F01DFAE4
:1034100000201FE700BFFB20FFF7C7F900BF19E737
:10342000F0B595B0002400250026EB4901A802F074
:1034300014FADDE90101CDE9030113A9E64802F020
:10344000AFF914A9E44802F0ABF99DF85000342814
:1034500001D1012000E000209DF850102C2901D15D
:10346000012100E00021084330B19DF85000DB4904
:1034700001EB0020089006E09DF850004FF08041DD
:1034800001EB002008909DF85000204484B2681C95
:1034900085B29DF84C00DA2812D008DCAA287DD02D
:1034A000CA287CD0CB287BD0CC287AD11EE2DB285E
:1034B00059D0DC2876D0DD2875D0DE28F5D104E19E
:1034C00014A9C54802F06CF99DF8500009909DF8C8
:1034D0005000204484B2681C85B202231A4607A912
:1034E000BD4802F077F9BDF81C00ADF814009DF856
:1034F0001C00204484B29DF81D00204484B2A81C06
:1035000085B214A9B44802F04BF99DF85020294621
:103510002046FFF776F948B9BDF80E20BDF80C102B
:10352000AD4802F092F9002015B0F0BD14A9AA48E8
:1035300002F036F99DF85000D52808D0BDF80E20CD
:10354000BDF80C10A44802F080F90020ECE7BDF8AB
:103550001420099FF9B2A24F08983B6C9847D520D8
:10356000FFF75CF946E214A99B4802F019F99DF8AF
:10357000500009909DF85000204484B2681C85B228
:1035800014A9954802F00CF99DF8502029462046D0
:10359000FFF737F978B9BDF80E2005E0F4E1D8E07F
:1035A00066E11EE21FE057E0BDF80C108A4802F009
:1035B0004CF90020B8E714A9874802F0F1F89DF80B
:1035C0005000D62808D0BDF80E20BDF80C10824857
:1035D00002F03BF90020A7E7099BD9B2804B08987D
:1035E0005A6C904706E214A97B4802F0D9F89DF87E
:1035F000500009909DF85000204484B2681C85B2A8
:1036000014A9754802F0CCF89DF8502029462046B0
:10361000FFF7F7F840B9BDF80E20BDF80C106E4862
:1036200002F013F900207FE714A96B4802F0B8F804
:103630009DF85000D72808D0BDF80E20BDF80C101A
:10364000654802F002F900206EE7099BD9B2644B8D
:1036500008989A6C9047CDE114A95F4802F0A0F851
:103660009DF8500009909DF85000204484B2681CD9
:1036700085B214A9584802F093F89DF850202946C5
:103680002046FFF7BEF840B9BDF80E20BDF80C107B
:10369000514802F0DAF8002046E714A94E4802F03B
:1036A0007FF89DF85000D82808D0BDF80E20BDF84E
:1036B0000C10494802F0C9F8002035E7099BD9B23F
:1036C000474B0898DA6C904794E102231A4607A901
:1036D000414802F07FF8BDF81C00ADF814009DF8D9
:1036E0001C00204484B29DF81D00204484B2A81C14
:1036F00085B214A9384802F053F89DF850202946A5
:103700002046FFF77EF840B9BDF80E20BDF80C103A
:10371000314802F09AF8002006E714A92E4802F07A
:103720003FF89DF85000D92808D0BDF80E20BDF80C
:103730000C10294802F089F80020F5E6BDF81410B5
:10374000274B0898D3F898209047D920FFF766F8C0
:1037500050E10123042212A91F4802F03BF804267D
:1037600005E012A8805D204484B2681C85B2301E3A
:10377000A6F10101CEB2F4D102231A4607A91648D8
:1037800002F028F8BDF81C00ADF814009DF81C00EC
:10379000204484B29DF81D00204484B2A81C85B248
:1037A00002231A4607A90C4802F014F8BDF81C00C1
:1037B000ADF816009DF81C00204484B29DF81D0051
:1037C000204484B2A81C85B202231A4607A909E046
:1037D000C80000205A0100206805002000000140B8
:1037E0002C000020FE4801F0F5FFBDF81C00ADF8EC
:1037F00018009DF81C00204484B29DF81D00204450
:1038000084B2A81C85B214A9F54801F0C9FF9DF83F
:10381000502029462046FEF7F4FF40B9BDF80E209F
:10382000BDF80C10EE4802F010F800207CE614A958
:10383000EB4801F0B5FF9DF85000D12808D0BDF845
:103840000E20BDF80C10E64801F0FFFF00206BE6EB
:10385000BDF818000090BDF81630BDF81420E149FD
:1038600008980F6B12A9B847D120FEF7D7FFC1E027
:1038700002231A4607A9DA4801F0ACFF9DF81C00A4
:10388000204484B29DF81D00204484B2A81C85B257
:1038900014A9D34801F084FF9DF850202946204602
:1038A000FEF7AFFF40B9BDF80E20BDF80C10CC48B4
:1038B00001F0CBFF002037E614A9C94801F070FFE2
:1038C0009DF85000D22808D0BDF80E20BDF80C108D
:1038D000C34801F0BAFF002026E6C24908984A6BA7
:1038E00007A99047D220FEF799FF83E014A9BC48AE
:1038F00001F056FF9DF8500009909DF850002044BB
:1039000084B2681C85B202231A4607A9B44801F0A4
:1039100061FFBDF81C000A909DF81C00204484B291
:103920009DF81D00204484B2A81C85B214A9AC489F
:1039300001F036FF9DF8502029462046FEF761FF32
:1039400040B9BDF80E20BDF80C10A54801F07DFF70
:103950000020E9E514A9A24801F022FF9DF85000DB
:10396000D32808D0BDF80E20BDF80C109C4801F0FB
:103970006CFF0020D8E59B4F08A807C8BB6B984791
:10398000D320FEF74BFF35E014A9954801F008FF5E
:103990009DF8502029462046FEF733FF40B9BDF878
:1039A0000E20BDF80C108E4801F04FFF0020BBE543
:1039B00014A98B4801F0F4FE9DF85000D42808D0DB
:1039C000BDF80E20BDF80C10854801F03EFF002028
:1039D000AAE5844A0898D16B8847D420FEF71EFFD9
:1039E00008E0BDF80E20BDF80C107D4801F02DFF59
:1039F000002099E500BFFD20FEF7D7FE00BF93E54C
:103A0000F0B595B00027002400250026744901A8D0
:103A100001F023FFDDE90101CDE9030113A970489D
:103A200001F0BEFE9DF84C00AA287DD0CA283AD0ED
:103A3000DA287AD114A96A4801F0B2FE9DF8500044
:103A400009909DF85000204484B2681C85B214A9E6
:103A5000634801F0A5FE9DF8502029462046FEF758
:103A6000D0FE48B9BDF80E20BDF80C105C4801F03E
:103A7000ECFE002015B0F0BD14A9594801F090FEED
:103A80009DF85000C32808D0BDF80E20BDF80C10DA
:103A9000534801F0DAFE0020ECE7099AD0B2514A0F
:103AA000D16A884780E014A94D4801F079FE9DF85D
:103AB0005000000309909DF85000204484B2681C17
:103AC00085B214A9464801F06BFE9DF850709DF830
:103AD0005000204484B2681C85B200260FE014A96F
:103AE0003F4801F05DFE9DF8500005A988559DF8FE
:103AF0005000204484B2681C85B2701C06B2BE42DD
:103B0000EDDB14A9364801F04BFE9DF85020294604
:103B10002046FEF776FE58B9BDF80E20BDF80C1011
:103B20002F4801F092FE01E01DE034E00020A1E703
:103B300014A92B4801F034FE9DF85000C12808D08C
:103B4000BDF80E20BDF80C10254801F07EFE0020C7
:103B500090E7244909983A464B6A05A99847C1203D
:103B6000FEF75CFE20E014A91D4801F019FE9DF847
:103B70005000C22808D0BDF80E20BDF80C1018481F
:103B800001F063FE002075E71649886A8047C2206D
:103B9000FEF744FE08E0BDF80E20BDF80C101048FA
:103BA00001F053FE002065E700BFFC20FEF7FDFD9D
:103BB00001205FE72DE9F04196B0002600270020A4
:103BC0000990089000240025054903A801F045FE4E
:103BD000DDE90301CDE9050114A9014804E0000075
:103BE000680500202C00002001F0DAFD9DF850004F
:103BF000DC2818D115A9F74801F0D2FD9DF8540032
:103C0000A5280AD0BDF81620BDF81410F14801F01F
:103C10001CFE002016B0BDE8F081EF49D1F89400F9
:103C200080470120F6E715A9EA4801F0B9FD9DF8A3
:103C300054004FF0804141EA00200A909DF8540062
:103C4000204484B2681C85B29DF85000AA287CD01C
:103C5000CA287BD0DA2802D0DB2878D164E015A905
:103C6000DC4801F09DFD9DF854709DF854002044FF
:103C700084B2681C85B215A9D64801F091FD9DF863
:103C8000542029462046FEF7BCFD40B9BDF8162059
:103C9000BDF81410CF4801F0D8FD0020BAE7002489
:103CA000002500260FE015A9CA4801F079FD9DF80E
:103CB0005400CA4988559DF85400204484B2681CB9
:103CC00085B2701C06B2BE42EDDB15A9C14801F0F9
:103CD00067FD9DF8542029462046FEF792FD40B925
:103CE000BDF81620BDF81410BA4801F0AEFD002052
:103CF00090E715A9B74801F053FD9DF85400A3289B
:103D000008D0BDF81620BDF81410B24801F09DFD92
:103D100000207FE7B0490A983A46CB69AF499847F7
:103D2000A320FEF77BFD26E115A9AA4801F038FD86
:103D30009DF8542029462046FEF763FD60B9BDF882
:103D40001620BDF81410A34802E0DEE046E009E1C9
:103D500001F07BFD00205DE715A99E4801F020FDE4
:103D60009DF85400A42808D0BDF81620BDF8141002
:103D7000984801F06AFD00204CE799490A9888426A
:103D800012D1A4208DF81C0044208DF81D0092480B
:103D90000221026A07A890478F48026A9148B0F949
:103DA00000109148904718E090490A98884212D133
:103DB000A4208DF81C004C208DF81D00864802219F
:103DC000026A07A890478448026A8948B0F900103F
:103DD0008848904701E000201CE7CCE015A97D4809
:103DE00001F0DEFC9DF854000B909DF85400204437
:103DF00084B2681C85B215A9764801F0D1FC9DF803
:103E0000540000020C909DF85400204484B2681CB9
:103E100085B215A96F4801F0C3FC9DF8540000025B
:103E20000D909DF85400204484B2681C85B215A9F9
:103E3000684801F0B5FC9DF8540000020E909DF812
:103E40005400204484B2681C85B215A9614801F071
:103E5000A7FC9DF8540000020F909DF854002044E8
:103E600084B2681C85B215A95A4801F099FC9DF8E6
:103E7000540010909DF85400204484B2681C85B210
:103E800015A9544801F08CFC9DF8540011909DF840
:103E90005400204484B2681C85B215A94D4801F035
:103EA0007FFC9DF8542029462046FEF7AAFC40B925
:103EB000BDF81620BDF81410464801F0C6FC0020DD
:103EC000A8E615A9434801F06BFC9DF85400A12811
:103ED00008D0BDF81620BDF814103E4801F0B5FC1E
:103EE000002097E6DDE90E23DDE91010CDE900237F
:103EF000CDE90210DFF8E0800AA80FC8D8F814C096
:103F0000E047A120FEF78AFC35E015A9314801F011
:103F100047FC9DF8542029462046FEF772FC40B924
:103F2000BDF81620BDF814102A4801F08EFC0020C0
:103F300070E615A9274801F033FC9DF85400A2282B
:103F400008D0BDF81620BDF81410224801F07DFC01
:103F500000205FE6204A0A9891698847A220FEF770
:103F60005DFC08E0BDF81620BDF81410194801F0FA
:103F70006CFC00204EE600BFFA20FEF716FC012084
:103F800048E6F0B591B000240025124901A801F0DF
:103F900064FCDDE90101CDE903010FA90D4801F041
:103FA000FFFB10A90B4801F0FBFB9DF840001249F4
:103FB00041EA002005909DF8400004446D1C9DF8E6
:103FC0003C00AA2870D0CA286FD0DA2816D0DB2887
:103FD0006CD16CE0680500202C00002074050020E6
:103FE00000440040EA000020480E0020004C004041
:103FF000EC000020AC0E00200000014010A9C648D3
:1040000001F0CEFB9DF8400006119DF8400000F045
:104010000F00B04006909DF84000204484B2681C18
:1040200085B210A9BC4801F0BBFB9DF84000079089
:104030009DF84000204484B2681C85B2079828B1DE
:104040000798012802D0002011B0F0BD10A9B24895
:1040500001F0A6FB9DF8402029462046FEF7D1FB43
:1040600040B9BDF80E20BDF80C10AB4801F0EDFBD7
:104070000020E9E710A9A84801F092FB9DF8400054
:10408000E32808D0BDF80E20BDF80C10A24801F0BE
:10409000DCFB0020D8E7A14F05A807C83B6998477B
:1040A000E320FEF7BBFBD7E0A0E03EE0CBE010A9A9
:1040B000994801F075FB9DF8400006119DF84000FD
:1040C00000F00F00B04006909DF84000204484B2FC
:1040D000681C85B210A9904801F062FB9DF8402051
:1040E00029462046FEF78DFB40B9BDF80E20BDF8ED
:1040F0000C10894801F0A9FB0020A5E710A986480B
:1041000001F04EFB9DF84000E42808D0BDF80E20D9
:10411000BDF80C10804801F098FB002094E77F4B1D
:10412000DDE905011A6D904796E010A97A4801F083
:1041300037FB9DF8400006119DF8400000F00F008D
:10414000B04006909DF84000204484B2681C85B2BF
:1041500010A9714801F024FB9DF8400007909DF8DC
:104160004000204484B2681C85B210A96A4801F05E
:1041700017FB9DF8400008909DF84000204484B251
:10418000681C85B210A9644801F00AFB9DF8402024
:1041900029462046FEF735FB40B9BDF80E20BDF894
:1041A0000C105D4801F051FB00204DE710A95A4862
:1041B00001F0F6FA9DF84000E12808D0BDF80E2085
:1041C000BDF80C10544801F040FB00203CE7DDE94D
:1041D00006C21FFA8CF1DFF844C1089B0598DCF891
:1041E0000870B847E120FEF719FB35E010A94A48EE
:1041F00001F0D6FA9DF8402029462046FEF701FB43
:1042000040B9BDF80E20BDF80C10434801F01DFB6D
:10421000002019E710A9404801F0C2FA9DF84000BB
:10422000E22808D0BDF80E20BDF80C103A4801F085
:104230000CFB002008E7394A0598D1688847E2203E
:10424000FEF7ECFA08E0BDF80E20BDF80C1032487D
:1042500001F0FBFA0020F7E600BFFE20FEF7A5FA0A
:104260000120F1E638B501252B484089022837DDC9
:104270006946294801F094FA9DF800000F21B1EB3E
:10428000201F2CD19DF8000000F00F04A4F10900BC
:1042900006281CD2DFE800F01707130B0F03FFF707
:1042A00070FE054613E0FFF785FC05460FE0FFF7BB
:1042B000A7FB05460BE0FFF7B3F8054607E0FEF75E
:1042C00058FF054603E0FEF7BBFA054600BF00BFF6
:1042D00035B90020124908701249087000E038BD55
:1042E00000BFFCE70146086870470160704702465E
:1042F00013780B7053784B70704730B5024600232B
:1043000000204C1EA3B201E0D45C20441C1EA3F18B
:104310000105ABB2F8D130BD680500202C000020AB
:104320002B0000206C01002010B50446FE49601AE5
:104330008C4238D01ADCFD49A4EB01008C4269D0D4
:104340000ADCB4F1804F56D0F9482044002857D0F9
:10435000B0F5806F6DD158E0B0F5605F41D0B0F539
:10436000705F43D0B0F57C4F63D117E0B0F5805F4C
:104370002DD009DCB0F5806F1AD0B0F5006F1CD0DD
:10438000B0F5406F55D11DE0B0F5A05F24D0B0F579
:10439000005F44D0B0F5205F4BD145E001210420FF
:1043A000FCF7AEFE45E001210820FCF7A9FE40E045
:1043B00001211020FCF7A4FE3BE001212020FCF7A6
:1043C0009FFE36E001214020FCF79AFE31E00121FA
:1043D0008020FCF795FE2CE001210802FCF790FEFE
:1043E00027E001214804FCF798FE22E0012188041F
:1043F000FCF793FE1DE001210846FCF78EFE18E055
:1044000001210220FCF789FE13E001210420FCF7C2
:1044100084FE0EE001210820FCF77FFE09E0012167
:10442000C802FCF76DFE04E001214803FCF768FEBA
:1044300000BF00BF10BD0146BC4A881A91421BD084
:1044400009DCB1F1804F11D0B948084480B1B0F512
:10445000806F13D10EE0B0F5605F03D0B0F5705FF0
:104460000CD101E0262070472720FCE71C20FAE74A
:104470001D20F8E71E20F6E73220F4E700BFF2E740
:10448000F8B507460C4615461E463846FFF74CFF62
:10449000A0B2ADF80000E8B28DF80300F0B28DF8DC
:1044A000020069463846FCF76FFBF8BD10B50446BC
:1044B0002046FCF709FB9F48844201D1FEF746F8ED
:1044C00010BD0146012902D14FF416507047022950
:1044D00002D14DF6C020F9E7032902D14FF4E130B3
:1044E000F4E74FF41650F1E730B58DB005460121E1
:1044F0000846FCF7F8FD9048FCF7BCF9012D04D103
:104500008E4C32208E49088005E025B98D4C4FF441
:10451000FA708B49088088481438FCF7ABF98A4850
:1045200002900394002004908548B0F900000590A3
:1045300000200690802007900020089009902020FD
:104540000A9000020B9000200C9002A97A481438BF
:10455000FCF732FA0122022177481438FCF763FA9B
:104560000122082174481438FCF75DFA0122402129
:104570007548001FFDF736FE01216F481438FCF71F
:1045800046FA10208DF8040001208DF80500002067
:104590008DF8060001208DF8070001A8FBF7D9FE71
:1045A0000DB030BD30B58DB0054601210220FCF7BD
:1045B0009AFD6648FCF75EF9012D04D1644C322067
:1045C0006449088005E025B9634C4FF4FA706149ED
:1045D00008805E482838FCF74DF960480290039443
:1045E000002004905B48B0F9000005900020069080
:1045F0008020079000200890099020200A90000257
:104600000B9000200C9002A950482838FCF7D4F9F0
:10461000012202214D482838FCF705FA0122082121
:104620004A482838FCF7FFF9012240214B48001F77
:10463000FDF7D8FD012145482838FCF7E8F93A2074
:104640008DF8040001208DF8050002208DF8060089
:1046500001208DF8070001A8FBF77BFE0DB030BDEF
:1046600011BB394A121F90420CD100223C4B1A70E8
:104670003C4A12781AB1F9223B4B1A7002E0FA2236
:10468000394B1A70354A121F90421FD10022374B06
:104690001A70344A12781AB1F922354B1A7015E0A3
:1046A000FA22334B1A7011E0274A121F904204D1AC
:1046B00001222B4B1A702F4A1180284A121F904258
:1046C00004D10122294B1A702B4A118070472DE921
:1046D000F04F85B004460E4617469846DDE90FAB0D
:1046E000DDF83890119D01210420FCF709FD2046DA
:1046F000FFF71AFEE9B22046FFF7B2FFF0B2FFF76C
:10470000E0FE0190B8B2ADF808001FFA88F0ADF8ED
:104710000A001FFA89F0ADF80C001FFA8AF0ADF814
:1047200010001FFA8BF029E0000C0140000C004043
:1047300000FCFFBF00080140800002407A0E00200C
:10474000EE0000206C0800200444004058040240A1
:10475000DE0E0020F0000020540C0020044C00402D
:10476000E40000206C010020F2000020E5000020A1
:10477000F3000020E6000020E8000020ADF80E0065
:1047800001A92046FDF771FC4FF4C060FBF7DCFD8A
:104790002046FFF750FEC0B28DF800002046FFF71C
:1047A0004AFE2538C0B28DF8010000208DF80200C5
:1047B00001208DF803006846FBF7CBFD012240F293
:1047C00024412046FDF7E9FC01212046FDF7D9FCF4
:1047D000FE48844203D1E8B2FFF786FE05E0FC48BC
:1047E000844202D1E8B2FFF7DDFE05B0BDE8F08FEC
:1047F000024613780B7053784B70704770B50446BF
:104800000D461646FA2C04D132462946F148FDF7EA
:10481000FDFEF92C03D13146284602F017F870BD91
:104820007CB50020019000900025002640F2244134
:10483000E648FDF797FD00287ED0E448008800B2E6
:104840000190E248001D008800B201900021E2487A
:10485000FCF7DDF8E1480078002852D1DE48FCF78B
:10486000EDF8C0F5FA7000B201904FF47000FCF75B
:10487000FDF84FF4FA70D8496C390867FF202070B2
:10488000FA2060704420A070694601A8FFF7B0FFCD
:10489000BDF80000A4F803009DF800009DF8011089
:1048A0000844FF2190FBF1F201FB12006071BDF999
:1048B0000420CB49A01D02F0BBF8BDF8040085B26E
:1048C00002E0C748405D0644281EA5F101018DB2F3
:1048D000F7D1FF20B6FBF0F100FB1161BDF9040038
:1048E000801D2154A621BDF90400C01D2154BDF82E
:1048F0000400C01D82B22146BA480078FFF77EFF4F
:104900001DE0B6480078D0B1B348FCF797F8C0F185
:10491000320000B20190BDF90420B349B34802F05F
:1049200087F84FF47000FCF7A1F83220AA496C39DF
:104930000867BDF9040000E00AE0AD4908800121E4
:10494000A548FCF764F840F22441A048FDF734FD87
:104950007CBD7CB50020019000900025002640F22F
:1049600024419B48FDF7FEFC00287DD09848008834
:1049700000B201909648001D008800B2019000210D
:104980009C48FCF744F89C480078002851D199488D
:10499000FCF754F8C0F5FA7000B201909748FCF7A4
:1049A00065F84FF4FA709349091D0860FF202070E4
:1049B000FA2060704C20A070694601A8FFF718FF2C
:1049C000BDF80000A4F803009DF800009DF8011058
:1049D0000844FF2190FBF1F201FB12006071BDF968
:1049E00004207F49A01D02F023F8BDF8040085B221
:1049F00002E07B48405D0644281EA5F101018DB20E
:104A0000F7D1FF20B6FBF0F100FB1161BDF9040006
:104A1000801D2154A621BDF90400C01D2154BDF8FC
:104A20000400C01D82B2214675480078FFF7E6FEFB
:104A30001CE071480078C8B16E48FBF7FFFFC0F179
:104A4000320000B20190BDF904206E496E4801F0B9
:104A5000EFFF6A48FCF70AF832206649091D086032
:104A6000BDF90400694900E009E0088001216148BE
:104A7000FBF7CDFF40F224415548FDF79DFC7CBD7E
:104A800010B54FF40010FCF710F84FF40000FCF7DD
:104A90000CF800215048FBF7BAFF5D48B0F9000060
:104AA0004D496C39086701214B48FBF7B0FF10BD39
:104AB00010B55848FBF7F9FF5748FBF7F6FF002100
:104AC0004C48FBF7A4FF5548B0F900004949091DBF
:104AD000086001214748FBF79AFF10BD10B5044656
:104AE0003A48844202D1FDF77DFA04E03848844216
:104AF00001D1FDF777FA10BDF0B591B007460D462C
:104B00001646002400BF05E00120295D444A5054A8
:104B1000601CC4B2B442F7DB01210846FCF7E3FA9B
:104B200001214802FCF7ECFA2B486438FBF7A2FE9F
:104B30003C48FBF777FC3B484C3006903A480790DE
:104B4000002008901020099000200A9080200B90EF
:104B500040000C9080000D9020200E9000020F90DD
:104B60000020109006A91C486438FBF725FF01219E
:104B700019486438FBF74BFF0020019001208DF8A5
:104B800008008DF809004FF4602003900020049085
:104B900010208DF8140001A92248FBF76AFC384662
:104BA000FCF712FA0523012200211E48FBF7F9FC4D
:104BB0000523022201211B48FBF7F3FC05230322F6
:104BC00002211848FBF7EDFC05232FE000440040CC
:104BD000004C0040003801406C000240E40000201E
:104BE0006C080020F20000207A0E0020480E002001
:104BF000EA00002030040240E5000020000F001011
:104C0000F3000020DE0E0020AC0E0020EC0000209F
:104C1000EE0000200002001000080010F00000204C
:104C2000300F002000240140100F00200422032137
:104C3000FE48FBF7B6FC05231A460421FB48FBF7A8
:104C4000B0FC052306221946F848FBF7AAFC052309
:104C500007220621F548FBF7A4FC052308220721BB
:104C6000F248FBF79EFC052309220821EF48FBF7D9
:104C700098FC05230A220921EC48FBF792FC052346
:104C80000B220A21E948FBF78CFC05230C220B219F
:104C9000E648FBF786FC05230D220C21E348FBF7D1
:104CA00080FC05230E220D21E048FBF77AFC05234A
:104CB0000F220E21DD48FBF774FC052310220F2183
:104CC000DA48FBF76EFC0121D848FBF709FC01210B
:104CD000D648FBF7FAFBD548FBF719FC00BFD348D1
:104CE000FBF71AFC0028FAD1D048FBF71FFC00BFE5
:104CF000CE48FBF720FC0028FAD10121CB48FBF776
:104D000024FC11B0F0BD10B5C848FBF78BFB10BDFB
:104D10002DE9F04387B080460D4616461F46DDF864
:104D2000389000244046FFF7FFFA4046FCF74CFA63
:104D3000701E80B2ADF81400781E80B2ADF810007D
:104D40000020ADF81600ADF8120004A94046FCF7AB
:104D50000FFB6020ADF800000120ADF8020000203C
:104D6000ADF80800ADF8069000BF32E0285D70B3E2
:104D7000285D012806D002280DD0032814D004286D
:104D800024D11AE069464046FCF72FFB0821404633
:104D9000FCF77AFF1AE069464046FCF768FB0821F9
:104DA0004046FCF77AFF11E069464046FCF7ACFB51
:104DB00008214046FCF77EFF08E069464046FCF7C4
:104DC000EEFB08214046FCF77EFF00BF00BF601CE1
:104DD00004B2042CCADB01214046FCF731FE01215C
:104DE0004046FCF721FF01214046FCF71DFE07B0BD
:104DF000BDE8F0830146042902D00C2904D101E06A
:104E0000042070471020FCE70020FAE7F0B587B0D7
:104E100007460D46002400263846FFF785FA4FF472
:104E20008060FBF791FA3846FFF705FBC0B28DF8BA
:104E300000003846FFF7FFFA322807D03846FFF760
:104E4000FAFA1C38C0B28DF8010002E003208DF898
:104E5000010003208DF8020001208DF80300684650
:104E6000FBF777FA4FF6FF70ADF814000020ADF8AD
:104E70001000ADF81600ADF8120004A93846FCF792
:104E800077FA0220ADF806000120ADF808000020F6
:104E9000ADF80A00ADF80C00002412E055F824002B
:104EA00070B135F8241088B2FFF7A4FF064335F837
:104EB000240080B2ADF8040001A93846FCF736FDA5
:104EC000641C022CEADB60213846FCF7E7FD042174
:104ED0003846FDF72BF880213846FDF730F80122DF
:104EE00031463846FCF7BBFD31463846FDF762F8DF
:104EF00001213846FCF798FD07B0F0BD02460B468D
:104F0000002100BF07E04A4850F82100904201D13B
:104F100001207047491C474800788142F3DB00209C
:104F2000F7E770B586B004460D4616462046FFF7F3
:104F3000FBF92046FCF748F90520ADF800004FF6D4
:104F4000FF70ADF804000020ADF80600ADF80200D7
:104F500069462046FCF70CFAA9B200231A462046FF
:104F6000FCF715FE03A8FCF742FD0120ADF8140084
:104F700003A92046FCF78FFC0020A08401212046D5
:104F8000FCF752FD2A492046FFF7B8FF08B106B0EA
:104F900070BD29482749097840F8216024482549EF
:104FA000097840F8214023480078401C21490870C6
:104FB00000F049FB00BFEAE710B504462046FCF7C5
:104FC00003F910BD2DE9F04104210807FCF7F5FFB6
:104FD000E8B10024002600254FF08040048F858E24
:104FE00016480068B0FBF4F7384601F007FE0646A5
:104FF000601B13490860134805601349304601F0EF
:105000004DFD074601F0FFFD1049086000BF10216B
:105010008806FCF7D2FF90B30024002600250C4838
:1050200004880006858F0548006813E000240140CD
:10503000880F002054010020580F0020000000209D
:10504000F40000201401002000007A443401002004
:1050500040000040B0FBF4F7384601F0CFFD0646B3
:10506000601B7A4948607A4845607A49304601F0C9
:1050700015FD074601F0C7FD7749486000BFBDE850
:10508000F0812DE9F04104217448FCF796FFF0B15E
:10509000002400260025714838300488001F058848
:1050A0006F480068B0FBF4F7384601F0A7FD0646EC
:1050B000601B6C4908606C4805606649304601F029
:1050C000EDFC074601F09FFD6849086000BF102114
:1050D0006248FCF772FFF0B10024002600255F480B
:1050E00040300488001F05885D480068B0FBF4F775
:1050F000384601F083FD0646601B5A4948605A480D
:1051000045605449304601F0C9FC074601F07BFD7B
:105110005649486000BFBDE8F0812DE9F041042107
:105120005348FCF74AFFF0B1002400260025504800
:1051300038300488001F058849480068B0FBF4F740
:10514000384601F05BFD0646601B4A4908604A4844
:1051500005604049304601F0A1FC074601F053FDCF
:105160004649086000BF10214148FCF726FFF0B116
:105170000024002600253E4840300488001F058892
:1051800037480068B0FBF4F7384601F037FD0646B3
:10519000601B38494860384845602E49304601F068
:1051A0007DFC074601F02FFD3449486000BFBDE893
:1051B000F0812DE9F04104213148FCF7FEFEF0B109
:1051C0000024002600252E4838300488001F05885A
:1051D00023480068B0FBF4F7384601F00FFD06469F
:1051E000601B28490860284805601A49304601F0CC
:1051F00055FC074601F007FD2449086000BF102157
:105200001F48FCF7DAFEF0B10024002600251C48F8
:1052100040300488001F058811480068B0FBF4F78F
:10522000384601F0EBFC0646601B164948601648FC
:1052300045600849304601F031FC074601F0E3FCC7
:105240001249486000BFBDE8F0810000F400002072
:105250001401002000007A443401002000040040C2
:1052600000000020FC0000201C0100203C01002068
:105270000008004004010020240100204401002017
:10528000000C00400C0100202C0100204C010020EB
:1052900070B504460D46CE48007820B12A46214616
:1052A000CC48FDF7B3F9CC48007818B12946204620
:1052B00001F0CCFA70BDD3B2012B02D18BB20361E5
:1052C00003E0D3B20BB98BB243617047F8B5044623
:1052D0000D460026A068284008B1012600E00026FF
:1052E000E4208DF800008DF8016002216846FFF788
:1052F000CFFFF8BD70B504460D4616463246294626
:105300002046FDF783F970BD70B504460D46294669
:105310002046FFF7BDFF70BD024613780B7053782F
:105320004B7093788B70D378CB7070472DE9F04F2A
:1053300085B081464FF0000A0024A84931F81900D1
:1053400001F05CFC4FF08B41009001F0A7FB83461D
:1053500001F06DFC07464FF06632A14B01F0DCFB1B
:10536000054601F077FC019004A901A8FFF7D4FFDE
:10537000C3208DF8080000BF06E004A8005D50447B
:105380001FFA80FA601CC4B2042CF6DB0498CDF836
:105390000900FF209AFBF0F100FB11A0C0B28DF8CC
:1053A0000D00062102A8FFF773FF05B0BDE8F08FDE
:1053B000012906D0022906D0032906D0042909D1E3
:1053C00005E0828606E0028704E0828702E0A0F81A
:1053D000402000BF00BF70470185012282827047D4
:1053E0002DE9FF4107460D46002600247D4850F870
:1053F0002500009003A96846FFF78EFFD8208DF89E
:10540000040000BF05E003A8005D304486B2601CC4
:10541000C4B2042CF7DB0398CDF80500FF2096FBFF
:10542000F0F100FB1160C0B28DF80900062101A85F
:10543000FFF72EFFBDE8FF81024613780B7053780B
:105440004B7093788B70D378CB7070472DE9FF4108
:1054500007460C464FF000080026251104F00F0403
:10546000B7F1804F09D060483844A0B1B0F5806FE3
:105470001FD0B0F5006F38D129E0012D05D1601E95
:105480005A4951F82000009004E0601E584951F834
:105490002000009029E0012D05D1601E554951F8EA
:1054A0002000009004E0601E534951F82000009055
:1054B0001BE0012D05D1601E504951F820000090DD
:1054C00004E0601E4E4951F8200000900DE0012DCF
:1054D00005D1601E4B4951F82000009004E0601E89
:1054E000494951F82000009000BF00BF03A9684659
:1054F000FFF7A2FFD6208DF80400002606E003A8DF
:10550000805D40441FFA80F8701CC6B2042EF6DBA2
:105510000398CDF80500FF2098FBF0F100FB118007
:10552000C0B28DF80900062101A8FFF7B1FEBDE861
:10553000FF812DE9FF4106460C4600270025B6F104
:10554000804F09D02848304460B1B0F5806F0FD04B
:10555000B0F5006F18D111E0601E2C4951F8200001
:10556000009011E0601E2A4951F8200000900BE0E5
:10557000601E284951F82000009005E0601E264971
:1055800051F82000009000BF00BF03A96846FFF754
:1055900053FFD7208DF80400002505E003A8405DE7
:1055A000384487B2681CC5B2042DF7DB0398CDF8E8
:1055B0000500FF2097FBF0F100FB1170C0B28DF8E1
:1055C0000900062101A8FFF763FEBDE8FF81000086
:1055D0002B000020003801406C010020100F00203B
:1055E00066660A40700F002000FCFFBFF400002038
:1055F00014010020FC0000201C01002004010020F8
:10560000240100200C0100202C0100203401002086
:105610003C010020440100204C01002008B54FF45B
:10562000A060FAF791FE36208DF8000002208DF878
:10563000010000208DF8020001208DF8030068466B
:10564000FAF787FE08BD0EB501211020FBF765FDB6
:1056500041F61F40ADF800000920ADF8040000201D
:10566000ADF80600ADF8020069461D48FBF780FE64
:10567000012211461A48FCF7F2F901211848FCF7FB
:10568000ADFC01211648FCF7CFF9FFF7C7FF0EBDAF
:1056900010B5002400BF1DE0124850F82400401C43
:1056A000104941F82400084650F824000E4951F8EA
:1056B000241088420CD90D4951F82410888C01F02F
:1056C0009DFA0B4908600020084951F8241088848D
:1056D000601CC4B2074800788442DDDB10BD0000C6
:1056E00000100040400F0020580F0020880F0020BD
:1056F000700F00205401002070B504460D460CB90F
:10570000022070BD2581208901F00CFD20602189D7
:10571000206801F0A6F90020A080E08060810120CF
:10572000EFE702460AB902207047D3881068C154D7
:10573000D0889388984201D100205081D088401CA5
:10574000D0805089401C5081D0881389984201D163
:105750000020D0800120E7E770B503460C460BB966
:10576000022070BD002117E0605CDE881D68A8552E
:10577000D8889D88A84201D100205881D888401C33
:10578000D8805889401C5881D8881D89A84201D1E9
:105790000020D880481C81B29142E5DB0120E0E77F
:1057A00002460AB90220704700BF50890028FCD089
:1057B00093881068C05C08709088401C9080508965
:1057C000401E508190881389984201D1002090801A
:1057D0000120E8E72DE9F04106460C4617469846B9
:1057E0003D4606B114B90220BDE8F08100BF7089C2
:1057F000A842FCDBB8F1010F0CD1E019441E06E011
:105800002146641E3046FFF7CBFF681E85B2002D8F
:10581000F6D10CE0B8F1020F09D106E02146641C74
:105820003046FFF7BDFF681E85B2002DF6D101207E
:10583000DAE710B504460CB9012010BD206801F06C
:1058400049FC002020600120F7E703460BB9012046
:10585000704799805A810120FAE7024609B901236D
:1058600003718B8803804B894380036813608388AE
:105870009380704730B5F74CF74D2D7844F82500EC
:105880002546F54C2478641C45F82420F34CF24D51
:105890002D7844F825102546EF4C2478641C45F8F3
:1058A0002430ED4C2478A41CEB4D2C7030BDF8B5A1
:1058B00007460C4615461E463846FEF735FD284677
:1058C000FEF732FDA0B2ADF8000010208DF8030005
:1058D00001208DF8020069463846FBF755F9B0B251
:1058E000ADF8000010208DF8030001208DF80200B3
:1058F00069462846FBF748F9A0B23861B0B2286182
:1059000033462A4621463846FFF7B4FFF8BD38B57E
:105910000446D24830F8240080B2ADF800000120DF
:105920008DF8020028208DF80300CA4951F82400A0
:105930006946FBF729F938BD38B50446C74830F841
:10594000240080B2ADF8000001208DF80200102084
:105950008DF80300BF4951F824006946FBF714F99C
:1059600038BD0020BB49BE4A127851F82210896820
:10597000BA4ABB4B1B7852F82320114009B10120D1
:1059800000E00020704738B1B44A52F82120B14BF2
:1059900053F821301A6106E0B04A52F82120AD4B8D
:1059A00053F821305A61704738B1AC4A52F821207F
:1059B000A84B53F821301A6106E0A84A52F821207A
:1059C000A44B53F821305A61704700B5A5480078C0
:1059D00000282CD0A24801780120FFF7D4FF002036
:1059E00000E0401CB0F5FA7FFBD39F48017801200E
:1059F000FFF7DAFF002000E0401CB0F5FA7FFBD390
:105A0000974801780020FFF7BEFF002000E0401C0F
:105A1000B0F5FA7FFBD3944801780020FFF7C4FF6C
:105A2000002000E0401CB0F5FA7FFBD300BF00BDB2
:105A300000B58C48007800282CD08B4801780020D5
:105A4000FFF7B2FF002000E0401CB0F5FA7FFBD367
:105A5000834801780020FFF796FF002000E0401CFB
:105A6000B0F5FA7FFBD3804801780120FFF79CFF57
:105A7000002000E0401CB0F5FA7FFBD378480178A5
:105A80000120FFF780FF002000E0401CB0F5FA7F06
:105A9000FBD300BF00BD10B572480078002840D08D
:105AA00005246F480078FFF732FF002000E0401C1B
:105AB000B0F5FA7FFBD36C4801780120FFF774FF43
:105AC000002000E0401CB0F5FA7FFBD312E0601E1E
:105AD000C4B2002000E0401CB0F5FA7FFBD34CB903
