:020000040800F2
:10000000681A002045010008FD230008FF230008AE
:1000100003240008072400080B2400080000000047
:100020000000000000000000000000000F24000895
:100030001124000800000000132400081524000803
:100040005F0100085F0100085F0100085F01000810
:100050005F0100085F0100085F0100085F01000800
:100060005F0100085F0100085F0100085F010008F0
:100070005F010008A3570008232700084527000850
:10008000C54000085F0100085F0100085F0100082B
:100090005F0100085F0100085F0100085F010008C0
:1000A0005F0100085F0100085F0100085F010008B0
:1000B00009460008C74600085F4700085F010008BE
:1000C0005F0100085F0100085F0100085F01000890
:1000D0005F010008BD260008653E00081D570008A6
:1000E0005F0100085F0100085F0100085F01000870
:1000F0005F0100085F0100085F0100085F01000860
:100100005F0100085F010008F74700085F01000871
:10011000973F00085F0100082D4C00085F010008B0
:100120005F0100085F010008F54000085F0100085A
:10013000DFF80CD006F012F900480047ED23000864
:10014000681A00200648804706480047FEE7FEE799
:10015000FEE7FEE7FEE7FEE7FEE7FEE7FEE7FEE777
:1001600047020008310100080CB500200190009002
:100170006C48006840F480306A49086000BF6948F4
:10018000006800F4003000900198401C0190009835
:1001900018B90198B0F5A06FF1D16248006800F479
:1001A000003010B10120009001E000200090009884
:1001B000012843D15C48006840F010005A490860AB
:1001C0000846006820F0030008600846006840F018
:1001D0000200086053484068524948600846406839
:1001E00048600846406840F48060486008464068BF
:1001F00020F47C1048600846406840F4E8104860ED
:100200000846006840F08070086000BF45480068FC
:1002100000F000700028F9D04248406820F0030048
:10022000404948600846406840F00200486000BF0E
:100230003C48406800F00C000828F9D10CBD10B50E
:10024000FFF792FF10BD10B53648006840F001007E
:1002500034490860084640683449084031494860DC
:1002600008460068324908402E4908600846006880
:1002700020F4802008600846406820F4FE004860B2
:100280004FF41F008860FFF7DAFF4FF00060294944
:10029000086010BD10B5002100200022214B5B68D2
:1002A00003F00C0121B1042906D0082928D107E068
:1002B000214B224C236027E01F4B204C236023E07E
:1002C000184B5B6803F47010164B5B6803F48032C4
:1002D000022303EB904022B9194B4343174C236090
:1002E0000DE0104B5B6803F4003323B1144B434320
:1002F000124C236003E0104B4343104C236003E097
:100300000D4B0E4C236000BF00BF064B5B68C3F370
:1003100003130C4CE15C094B1B68CB40074C23607A
:1003200010BD000000100240002002400000FFF855
:10033000FFFFF6FE08ED00E000127A00000000204A
:1003400000093D000400002031490143314A116099
:10035000704770B5002100230F22C47804B32D4CE0
:10036000246804F4E064C4F5E064210AC1F10403E4
:10037000CA40447804FA03F1847814402143090107
:10038000254C0678A155047804F01F050124AC40E3
:1003900005786D11AD0005F1E025C5F8004109E0D3
:1003A000047804F01F050124AC401C4D067876113A
:1003B00045F8264070BD1A4A0A400243154B1B1FE0
:1003C0001A60704739B1134A121D12680243114B6B
:1003D0001B1D1A6006E00F4A121D126882430D4B66
:1003E0001B1D1A607047042808D14FF0E0210969ED
:1003F00041F004014FF0E022116107E04FF0E021ED
:10040000096921F004014FF0E022116170470000FA
:100410000000FA050CED00E000E400E080E100E0FF
:1004200080FFFF1F10B50446FA48844208D101211D
:10043000401500F07FFE0021601500F07BFE17E004
:10044000F548844208D10121001500F073FE002117
:10045000201500F06FFE0BE0F048844208D1012126
:10046000C80300F067FE00214FF4004000F062FE78
:1004700010BD30B50246002000235068E84C2040F3
:100480000D790C6844EA0524204350609068E54CDF
:100490002040D1E902542C434D7944EA45042043DD
:1004A0009060D06A20F470000C7C641EE4B2234398
:1004B00040EA0350D06230BD0021016001714171FA
:1004C0008160C16001210174704721B1826842F0EE
:1004D0000102826003E0826822F0010282607047BC
:1004E00021B1826842F48072826003E0826822F463
:1004F00080728260704710B50023CBB21AB1446895
:100500001C43446002E044689C43446010BD816821
:1005100041F0080181607047014600208A6802F0BE
:1005200008020AB1012000E000207047816841F014
:10053000040181607047014600208A6802F00402CD
:100540000AB1012000E00020704721B1826842F426
:10055000A002826003E0826822F4A00282607047F9
:10056000014600208A6802F480020AB1012000E0FE
:100570000020704710B50A4600210023416821F48D
:100580006041531E41EA4331416010BD21B14268D0
:1005900042F40062426003E0426822F4006242607A
:1005A0007047F0B504460D4600200021092D11DDED
:1005B000E068A5F10A0606EB4607072606FA07F1EA
:1005C0008843A5F10A0606EB460603FA06F108433E
:1005D000E0600CE0206905EB4507072606FA07F105
:1005E000884305EB450603FA06F108432061072A14
:1005F0000FDA606B561E06EB86071F2606FA07F118
:100600008843561E06EB860605FA06F1084360632A
:1006100022E00D2A0FDA206BD61F06EB86071F2675
:1006200006FA07F18843D61F06EB860605FA06F19F
:100630000843206310E0E06AA2F10D0606EB86078E
:100640001F2606FA07F18843A2F10D0606EB86067F
:1006500005FA06F10843E062F0BD21B1826842F478
:100660008012826003E0826822F480128260704708
:100670000146C86C80B2704766484C3000687047CD
:1006800021B1426842F48062426003E0426822F491
:1006900080624260704721B1426842F480524260F9
:1006A00003E0426822F48052426070470A4600210B
:1006B000816821F4E04111438160704721B1826873
:1006C00042F40042826003E0826822F400428260C9
:1006D000704721B1826842F40212826003E08268AE
:1006E00022F4021282607047014600208A6802F4F8
:1006F00000120AB1012000E000207047F0B5044666
:100700001546002000220026092911DDE068A1F12C
:100710000A0707EB470C072707FA0CF29043A1F1F1
:100720000A0707EB470703FA07F21043E0600CE003
:10073000206901EB410C072707FA0CF2904301EB0B
:10074000410703FA07F210432061A06BC0F3015682
:10075000EF1C06F1010CA7EB0C0707EB870C1F271A
:1007600007FA0CF29043EF1C06F1010CA7EB0C0703
:1007700007EB870701FA07F21043A063F0BD10B53D
:100780000A4600210023816B21F44011531E41EAE7
:100790000351816310BD08B5002300930090009BB6
:1007A0000B440093009B1A6008BD08B50246002068
:1007B0000090009201F12800009B184400900098DE
:1007C000006880B208BD0A4600214168164B1940F6
:1007D0001143416070474162826270470A460021BE
:1007E000416821F01F0111434160704740B1094940
:1007F0000831096841F40001064A0832116007E037
:1008000004490831096821F40001024A08321160E4
:10081000704700000024014000280140003C0140D6
:10082000FFFEF0FFFDF7F1FFFFFD3FFF0246002056
:1008300013680B400BB1012000E000207047CA4351
:100840000260704770B502460020002300240B129E
:100850005568CEB205EA060415681D4015B10CB105
:10086000012000E0002070BD00220A12D343036083
:100870007047000001684FF6FE72114001600021D0
:10088000016041608160C1608D49884208D18C4916
:100890000839496841F00F01894A083A51608AE0F5
:1008A00087491431884208D185490839496841F09F
:1008B000F001834A083A51607DE08149283188423D
:1008C00008D17F490839496841F470617C4A083A87
:1008D000516070E07A493C31884208D17849083942
:1008E000496841F47041764A083A516063E07449BE
:1008F0005031884208D172490839496841F4702161
:100900006F4A083A516056E06D496431884208D117
:100910006B490839496841F47001694A083A5160E5
:1009200049E067497831884208D165490839496802
:1009300041F07061624A083A51603CE06149884286
:1009400006D1011F096841F00F01021F116032E05A
:100950005C491431884208D15A49091F096841F09D
:10096000F001584A121F116025E05649283188428B
:1009700008D15449091F096841F47061514A121F96
:10098000116018E04F493C31884208D14D49091F98
:10099000096841F470414B4A121F11600BE049494C
:1009A0005031884207D14749091F096841F4702135
:1009B000444A121F1160704710B50022026847F6C2
:1009C000F0739A430C6A8B6823430C6923434C6988
:1009D00023438C692343CC6923434C6A23438C6AA9
:1009E00023431A430260CB6843600B6883604B6803
:1009F000C36010BD0021016041608160C160016180
:100A000041618161C161016241628162704721B1CE
:100A1000026842F00102026004E002684FF6FE73D1
:100A20001A40026070471AB103680B43036002E08A
:100A300003688B4303607047416070470146486814
:100A400080B2704701460020002201F080531BB1A4
:100A50001C4B083B1A6802E0194B083B1A6802EA73
:100A600001030BB1012000E00020704700F080512D
:100A700019B11449091F086002E01149083948609A
:100A8000704701460020002201F080531BB10D4B3E
:100A9000083B1A6802E00A4B083B1A6802EA0103A5
:100AA0000BB1012000E00020704700F0805119B127
:100AB0000449091F086002E001490839486070478D
:100AC000080002400804024010B50446CC488442A5
:100AD00008D10121042000F02DFB0021042000F0AA
:100AE00029FB46E0C748844208D10121082000F0D4
:100AF00021FB0021082000F01DFB3AE0C24884429F
:100B000008D10121102000F015FB0021102000F079
:100B100011FB2EE0BD48844208D10121202000F0C5
:100B200009FB0021202000F005FB22E0B8488442A8
:100B300008D10121402000F0FDFA0021402000F002
:100B4000F9FA16E0B348844208D10121802000F070
:100B5000F1FA0021802000F0EDFA0AE0AE4884426C
:100B600007D10121801500F0E5FA0021A01500F061
:100B7000E1FA10BD10B50121084600F0DBFA0021B2
:100B8000012000F0D7FA10BD2DE9F0410246002502
:100B90000026002000230024002791F803C00CF059
:100BA0000F0591F803C00CF0100CBCF1000F03D03E
:100BB00091F802C04CEA050591F800C0BCF1000FA5
:100BC00031D0146800202BE04FF0010C0CFA00F338
:100BD000B1F800C00CEA03069E4220D183004FF01A
:100BE0000F0C0CFA03F7BC4305FA03FC4CEA0404AF
:100BF00091F803C0BCF1280F06D14FF0010C0CFA9C
:100C000000FCC2F814C00AE091F803C0BCF1480F20
:100C100005D14FF0010C0CFA00FCC2F810C0401CCA
:100C20000828D1D31460B1F800C0BCF1FF0F34DD47
:100C3000546800202EE000F1080C4FF0010808FA7B
:100C40000CF3B1F800C00CEA03069E4221D18300E8
:100C50004FF00F0C0CFA03F7BC4305FA03FC4CEA07
:100C6000040491F803C0BCF1280F05D100F1080C71
:100C700008FA0CF8C2F8148091F803C0BCF1480FD0
:100C800007D100F1080C4FF0010808FA0CF8C2F87F
:100C90001080401C0828CED35460BDE8F0814FF688
:100CA000FF710180022181700421C17070470246EA
:100CB000002093680B400BB1012000E0002070473A
:100CC0000146886880B2704702460020D3680B4016
:100CD0000BB1012000E0002070470146C86880B2D7
:100CE000704701617047416170470AB1016100E0DE
:100CF00041617047C16070474FF480320A4382619E
:100D00008161826182698269704702460020434B9B
:100D100018684FF68073184040EA021008433F4BB2
:100D2000186070473E49C8617047F0B50A46002315
:100D300000240021002500F00046B6F1004F02D14A
:100D4000364EF16901E0354E7168C0F3034583B258
:100D500000F44016B6F5401F08D121F070612F4E07
:100D6000766826F070662D4F7E6012E000F48016E3
:100D7000B6F5801F06D1032606FA05F4A14341F01B
:100D8000706106E0460D360103FA06F6B14341F004
:100D9000706122B1460D360103FA06F6314300F0C8
:100DA0000046B6F1004F02D11C4EF16101E01B4E2E
:100DB0007160F0BD30B500228B071C0F0F2303FAC2
:100DC00004F2164B08338C1053F824309343134C21
:100DD00008348D1044F8253023468C1053F8243005
:100DE0008C07240F00FA04F423430C4C08348D10B4
:100DF00044F8253030BD0A49DC31086070470000F6
:100E000000080140000C01400010014000140140A6
:100E100000180140001C014000200140000001407A
:100E200000002042DF48006840F00100DD49086012
:100E300008464068DC490840DA49486008460068CE
:100E4000DA490840D74908600846006820F4802045
:100E500008600846406820F4FE0048604FF41F0018
:100E600088607047CF49096821F48031CD4A11600C
:100E70001146096821F480211160B0F5803F03D04C
:100E8000B0F5802F0ED106E0C649096841F48031E3
:100E9000C44A116007E0C349096841F4A021C14A6E
:100EA000116000E000BF00BF704710B5014600228E
:100EB000002300204A11012A02D1BA4C236806E01F
:100EC000022A02D1B74C236A01E0B64C636A01F0F2
:100ED0001F02012494401C400CB1012000E00020BE
:100EE00010BD38B5002000900024002500BF31203F
:100EF000FFF7DBFF05460098401C00900098B0F516
:100F0000A06F01D0002DF2D03120FFF7CEFF08B145
:100F1000012400E00024204638BD01460020A14AFB
:100F2000106820F0F80040EAC10010607047A04946
:100F300008607047024600209A4B586820F47C10E5
:100F400042EA01031843974B586070479849086676
:100F5000704701460020934A506820F00300084380
:100F6000506070478F48406800F00C0070470146A1
:100F700000208C4A506820F0F00008435060704711
:100F800001460020874A506820F4E0600843506022
:100F9000704701460020834A506820F4605040EAC0
:100FA000C1005060704729B17E4A527A02437D4B9E
:100FB0005A7204E07B4A527A82437A4B5A727047E3
:100FC0007B49D8310860704701460020754A506857
:100FD00020F440400843506070470021714A20329D
:100FE0001170704A82F82010012802D004280AD11A
:100FF00004E001216B4A2032117005E00521694AA5
:101000002032117000E000BF00BF704769490860DE
:1010100070476449096A0143624A11627047654931
:1010200044390860704730B50021002200240023B5
:101030005C4D6D6805F00C0121B1042905D008292B
:1010400023D105E05C4D056022E05B4D05601FE0AB
:10105000544D6D6805F47012524D6D6805F480347E
:10106000022505EB92421CB9544D554305600BE037
:101070004C4D6D6805F400351DB1504D554305606C
:1010800002E04D4D5543056002E04B4D056000BF49
:1010900000BF444D6D6805F0F0010909484D6B5CD7
:1010A0000568DD4045603F4D6D6805F4E061090A63
:1010B000434D6B5C4568DD4085603A4D6D6805F4D5
:1010C0006051C90A3E4D6B5C4568DD40C560354DD9
:1010D0006D6805F44041890B3A4D6B5CC568B5FB02
:1010E000F3F5056130BD29B12E4A526902432D4BFB
:1010F0005A6104E02B4A526982432A4B5A61704775
:1011000029B1284A92690243264B9A6104E0254A94
:1011100092698243234B9A61704729B1214AD2696F
:101120000243204BDA6104E01E4AD26982431D4B20
:10113000DA61704729B11B4AD2680243194BDA6061
:1011400004E0184AD2688243164BDA60704729B12E
:10115000144A12690243134B1A6104E0114A1269DE
:101160008243104B1A61704712494039086070473A
:101170000F49C86470470B49C87170470948406AF5
:1011800040F0807007494862704701460020054AD8
:1011900092680A400AB1012000E00020704701492E
:1011A00088727047001002400000FFF8FFFFF6FE53
:1011B000000042428004424200127A0000093D00D1
:1011C000140000202400002010B50446FE4884428C
:1011D00008D10121C014FFF7ADFF0021E014FFF793
:1011E000A9FFC4E0B4F1804F08D101210846FFF700
:1011F000AEFF00210120FFF7AAFFB8E0F3488442C8
:1012000008D101210220FFF7A2FF00210220FFF7F1
:101210009EFFACE0EE48844208D101210420FFF794
:1012200096FF00210420FFF792FFA0E0E9488442E6
:1012300008D101210820FFF78AFF00210820FFF7CD
:1012400086FF94E0E448844208D101211020FFF792
:101250007EFF00211020FFF77AFF88E0DF488442FC
:1012600008D101212020FFF772FF00212020FFF785
:101270006EFF7CE0DA48844208D101214014FFF778
:1012800059FF00216014FFF755FF70E0D5488442F4
:1012900009D10121C804FFF74DFF00214FF40020C0
:1012A000FFF748FF63E0D048844209D101210805D7
:1012B000FFF740FF00214FF48010FFF73BFF56E09F
:1012C000CA48844209D101214805FFF733FF0021B4
:1012D0004FF40010FFF72EFF49E0C548844208D1C3
:1012E00001214020FFF733FF00214020FFF72FFFAF
:1012F0003DE0C048844208D101218020FFF727FF4C
:1013000000218020FFF723FF31E0BB48844208D151
:1013100001218015FFF71BFF0021A015FFF717FF24
:1013200025E0B648844209D101210804FFF702FFF5
:1013300000214FF48030FFF7FDFE18E0B0488442F2
:1013400009D101214804FFF7F5FE00214FF40030D8
:10135000FFF7F0FE0BE0AB48844208D1012188047E
:10136000FFF7E8FE00214FF48020FFF7E3FE10BDF9
:1013700000220288944B98420ED0994B98420BD091
:10138000B0F1804F08D0914B984205D0904B9842D5
:1013900002D0904B984204D14FF68F731A404B887D
:1013A0001A438D4B984207D08C4B984204D04FF68D
:1013B000FF431A40CB881A4302808B8883850B88B1
:1013C0000385814B98420BD0854B984208D08B4BBC
:1013D000984205D08A4B984202D08A4B984201D15C
:1013E0000B7A038601238382704770B500240022A4
:1013F0000023058C4FF6FE7635400584028C8388E9
:10140000048B4FF68F752C40B51E2C400D882C4355
:10141000751E2A400D892A434D882A436A4DA842E9
:101420000BD06F4DA84208D0744DA84205D0744D22
:10143000A84202D0734DA84213D14FF6F7752A4047
:101440004D892A434FF6FB752A408D882A434FF673
:10145000FF652B404FF6FF552B408D892B43CD89DF
:101460002B4383800483CD888586028470BD70B54C
:10147000002400220023058C4FF6EF7635400584CA
:10148000028C8388048B48F6FF752C404FF6FF458D
:101490002C400D884FF6FF7606EA05252C434FF6C3
:1014A000DF752A400D8906EA05152A434D8806EAAC
:1014B00005152A43444DA84202D0494DA8421DD1EA
:1014C0004FF67F752A404D894FF6FF7606EA0515DF
:1014D0002A434FF6BF752A408D8806EA05152A4330
:1014E0004FF6FF352B404FF2FF752B408D8906EAF2
:1014F00085052B43CD8906EA85052B43838004832C
:10150000CD880587028470BD70B5002400220023B9
:10151000058C4FF6FF6635400584028C8388848BEA
:101520004FF68F752C404FF6FC752C400D882C43E0
:101530004FF6FF552A400D894FF6FF7606EA05253E
:101540002A434D8806EA05252A431F4DA84202D0AA
:10155000234DA8421DD14FF2FF752A404D894FF609
:10156000FF7606EA05252A434FF6FF352A408D8887
:1015700006EA05252A434EF6FF752B404DF6FF750A
:101580002B408D8906EA05152B43CD8906EA051502
:101590002B4383808483CD888587028470BD70B59A
:1015A000002200230024058C4EF6FF76354005848A
:1015B000038C8488828B48F6FF752A404FF6FF45DE
:1015C0002A400D8820E00000002C0140000400406B
:1015D00000080040000C00400010004000140040D3
:1015E00000340140004C01400050014000540140D3
:1015F00000180040001C0040002000400040014056
:1016000000440140004801404FF6FF7606EA0525F8
:101610002A434DF6FF752B400D8906EA05352B430D
:101620004D8806EA05352B43FA4DA84202D0FA4D03
:10163000A84208D14BF6FF752C408D894FF6FF76F6
:1016400006EA85152C4384808283CD88A0F840501B
:10165000038470BD828B4FF2FF331A408283828BEA
:101660004FF6FF7303EA01231A4382837047F0B5F4
:101670000C461546002200210026078C4EF6FF7C02
:1016800007EA0C070784828B018C4FF6FF7707EA85
:10169000043640F6FF473A404FF6FF7707EA052742
:1016A0003A434FF6FF7707EA03373A43D94FB84238
:1016B0000ED0D94FB8420BD0B0F1804F08D0D74FE1
:1016C000B84205D0D64FB84202D0D64FB84206D164
:1016D0004DF6FF77394046F48057394305E047F629
:1016E000FF57394044F48057394382830184F0BD69
:1016F000828B4FF6F3731A408283828B0A43828374
:101700007047F0B50C461546002200210026078CD4
:101710004FF6FF6C07EA0C070784828B018C4FF6AB
:10172000FF7707EA04264FF60C773A404FF6FF772B
:1017300007EA03172F433A43B64FB8420ED0B64FCD
:10174000B8420BD0B0F1804F08D0B44FB84205D0AA
:10175000B34FB84202D0B34FB84206D14FF6FF574D
:10176000394046F48077394305E04FF2FF5739405E
:1017700044F48077394382830184F0BD028B4FF2B9
:10178000FF331A400283028B4FF6FF7303EA0123F3
:101790001A4302837047F0B50C461546002200211B
:1017A0000026078C4FF6EF7C07EA0C070784028BB4
:1017B000018C4FF6FF7707EA041640F6FF473A40E0
:1017C0004FF6FF7707EA03373A434FF6FF7707EA0A
:1017D00005273A438F4FB8420ED08F4FB8420BD0F7
:1017E000B0F1804F08D08D4FB84205D08C4FB84231
:1017F00002D08C4FB84206D14FF6DF77394046F021
:101800001007394305E04FF65F77394044F0100781
:10181000394302830184F0BD028B4FF6F3731A4003
:101820000283028B0A4302837047F0B50C461546CB
:1018300000220021068C4FF6FE773E400684028B84
:10184000018C4FF60C7632407E1C06EA03162E43BE
:101850003243704EB0420ED06F4EB0420BD0B0F15A
:10186000804F08D06D4EB04205D06D4EB04202D0D0
:101870006C4EB04206D14FF6FD76314044F0010681
:10188000314305E04FF6F576314044F0010631432F
:1018900002830184F0BD70B505460C465D48854263
:1018A0000ED05D4885420BD0B5F1804F08D05B4823
:1018B000854205D05A48854202D05A48854200D117
:1018C00000E000BF208850B92389A288618828469B
:1018D000FFF7ABFFE1882846FFF79EFF25E0208851
:1018E00004280AD12389A28861882846FFF753FF7C
:1018F000E1882846FFF742FF17E0208808280AD130
:101900002389A28861882846FFF7FBFEE1882846E4
:10191000FFF7EEFE09E02389A28861882846FFF7D9
:10192000A6FEE1882846FFF795FE70BD2DE9F0413F
:1019300005460C4600260127608808B9022600E00B
:101940000026A088012801D1022700E00127208875
:10195000A0B92389A28861882846FFF766FFE1883D
:101960002846FFF759FF23893A4631462846FFF7B4
:1019700012FFE1882846FFF701FF13E02389A288C0
:1019800061882846FFF707FFE1882846FFF7F6FE43
:1019900023893A4631462846FFF747FFE188284623
:1019A000FFF73AFFBDE8F0810A884B881A438B881D
:1019B0001A43CB881A430B891A434B891A438B89E4
:1019C0001A43A0F8442070474FF6FF718180002130
:1019D0000180C180418001727047002101804180F7
:1019E0008180C180018141818181C1817047002155
:1019F00001804180012181800021C18001817047E7
:101A00000021018041808180C180018141818181EB
:101A100070470000002C01400034014000040040E9
:101A200000080040000C004021B1028842F0010291
:101A3000028004E002884FF6FE731A40028070476D
:101A400031B1B0F8442042F40042A0F8442005E04F
:101A5000B0F84420C2F30E02A0F8442070471AB137
:101A600083890B43838102E083898B4383817047A1
:101A70008182704741EA0203A0F8483070471AB1EA
:101A800083890B43838102E083898B438381704781
:101A900001894FF6F8721140018170470A46002112
:101AA00001894FF68F73194011430181704730B59A
:101AB00004460D4629462046FFF7F0FF208940F0F6
:101AC0000700208130BD2DE9F04104460D46164641
:101AD0001F46602D06D13B46012231462046FFF7C6
:101AE0005AFE05E03B46012231462046FFF79DFEA7
:101AF00029462046FFF7D2FF208940F007002081C9
:101B0000BDE8F08130B50C4600210189C9B24FF61D
:101B1000FF7505EA0325154325432943018130BD9F
:101B20002DE9F04105460E461746984600244346E7
:101B30003A4631462846FFF7E5FF2C894FF6F87004
:101B4000044044F007044FF68F70044044F07004E2
:101B50002C81BDE8F081F0B504460D4616461F46BF
:101B60003B46324629462046FFF7CCFF208940F409
:101B700080402081F0BD0185828270470A460021A5
:101B800001884FF68F731940114301807047F0B5FB
:101B90000C4615461E460021002200230189028BB7
:101BA000038C4FF6F877394021434FF6FC473A4013
:101BB00040F201173A434FF6DD773B404FF6FF778F
:101BC00007EA06172F433B43018102830384F0BDDC
:101BD0000A460021018B4FF68F7319401143018390
:101BE00070470A460021018B48F6FF7319404FF6F3
:101BF000FF7303EA02231943018370470A46002159
:101C0000818B4FF68F7319401143818370470A46C9
:101C10000021818B48F6FF7319404FF6FF7303EAEA
:101C2000022319438183704721B1028842F0800268
:101C3000028004E002884FF67F731A4002807047EA
:101C400021B1828842F00402828004E082884FF64B
:101C5000FB731A408280704721B1828842F00802EB
:101C6000828004E082884FF6F7731A4082807047C2
:101C700021B1828842F00102828004E082884FF61E
:101C8000FE731A40828070470A460021018B4FF68E
:101C9000F77319401143018370470A460021018BF5
:101CA0004FF2FF7319404FF6FF7303EA0223194303
:101CB000018370470A460021818B4FF6F773194064
:101CC0001143818370470A460021818B4FF2FF73D5
:101CD00019404FF6FF7303EA0223194381837047CB
:101CE0000A460021018B4FF6FB7319401143018313
:101CF00070470A460021018B4FF6FF3319404FF61B
:101D0000FF7303EA02231943018370470A46002147
:101D1000818B4FF6FB7319401143818370470A464C
:101D20000021818B4FF6FF3319404FF6FF7303EA12
:101D300002231943818370470A460021018B4FF625
:101D40007F7319401143018370470A460021018BBC
:101D5000C1F30E014FF6FF7303EA02231943018317
:101D600070470A460021818B4FF67F73194011435B
:101D7000818370470A460021818BC1F30E014FF623
:101D8000FF7303EA02231943818370470A46002147
:101D9000018C4FF6FD7319401143018470470A46C8
:101DA0000021018C4FF6F7731940114301847047ED
:101DB0000A460021018C4FF6DF7319404FF6FF737E
:101DC00003EA02131943018470470A460021018C7B
:101DD0004FF67F7319404FF6FF7303EA021319435E
:101DE000018470470A460021018C4FF6FF531940C9
:101DF0004FF6FF7303EA02231943018470470A4632
:101E00000021018C4FF2FF7319404FF6FF7303EA74
:101E100002231943018470470A460021018C4DF6C4
:101E2000FF7319404FF6FF7303EA0233194301842D
:101E3000704730B5002301248C40A3B2048C9C432E
:101E40000484048C02FA01F5ADB22C43048430BD45
:101E500030B5002304248C40A3B2048C9C4304843A
:101E6000048C02FA01F5ADB22C43048430BD70B588
:101E70000346002000241846183001258D40ACB2DE
:101E80001D8CA5431D8409B1082909D100EB61000F
:101E9000056825F0700505600568154305600EE0CE
:101EA0000D1FC5F34E052844056825F4E04505607F
:101EB00005684FF6FF7606EA02263543056070BDD9
:101EC00021B1028842F00202028004E002884FF64B
:101ED000FD731A400280704721B1028842F004026B
:101EE000028004E002884FF6FB731A4002807047BC
:101EF00021B1828842F08002828004E082884FF61D
:101F00007F731A408280704702884FF6F7731A4039
:101F1000028002880A430280704782884FF68F73DE
:101F20001A40828082880A438280704702894FF675
:101F3000F8731A40028102890A43028170470289BC
:101F40004FF67F731A40028102890A43028170476B
:101F5000818470478185704781867047018770470B
:101F600081877047A0F84010704702884FF6FF4302
:101F70001A40028002880A43028070470146888E18
:101F800070470146088F70470146888F70470146A9
:101F9000B1F8400070470146888C70470146088DB3
:101FA000704702460020138A0B400BB1012000E06D
:101FB00000207047CA430282704730B502460020B5
:101FC00000230024158A05EA0103958905EA010426
:101FD00013B10CB1012000E0002030BDCA430282E1
:101FE0007047000010B50446FB48844209D1012126
:101FF0008803FFF79FF800214FF48040FFF79AF81D
:1020000032E0F648844209D101214804FFF79FF8E5
:1020100000214FF40030FFF79AF825E0F0488442A1
:1020200009D101218804FFF792F800214FF48020A4
:10203000FFF78DF818E0EB48844209D10121C8046C
:10204000FFF785F800214FF40020FFF780F80BE040
:10205000E548844208D101210805FFF778F80021FE
:102060004FF48010FFF773F810BD2DE9F04786B0EC
:1020700005460E460024A24600BFA1460027B089AF
:1020800000B100BF2F462C8A4CF6FF700440F08848
:1020900004432C82AC894EF6F3100440B088318999
:1020A0000843718908430443AC81AC8A4FF6FF4072
:1020B0000440B0890443AC8201A8FEF7B4FFC648CF
:1020C000874202D1DDF810A001E0DDF80CA0A8895C
:1020D00000F4004040B10AEBCA0000EB0A1031687E
:1020E0004900B0FBF1F807E00AEBCA0000EB0A1068
:1020F00031688900B0FBF1F86420B8FBF0F004010E
:102100002009642101FB1089A88900F4004040B136
:10211000322000EBC900B0FBF1F000F007000443EF
:1021200008E0322000EB09106421B0FBF1F000F070
:102130000F0004432C8106B0BDE8F0874FF4165120
:10214000016000218180C18001810C214181002139
:102150008181704710B502460020108A4FF2FF03BC
:1021600018400B884C8823438C882343CC88234316
:102170001843108210BD0021018041808180C18000
:10218000704721B1828942F40052828104E0828941
:102190004DF6FF731A4082817047F0B50346002464
:1021A00000260025002040F66A17B94200D100BF82
:1021B0001846C1F3421401F01F06012707FA06F57D
:1021C000012C01D10C3004E0022C01D1103000E0D0
:1021D00014301AB107682F43076002E00768AF4365
:1021E0000760F0BD1AB1838A0B43838202E0838AC1
:1021F0008B4383827047028A4FF6F0731A40028243
:10220000028A0A430282704782894FF2FF731A40A2
:10221000828182890A438281704721B1828942F09A
:102220000202828104E082894FF6FD731A408281A6
:102230007047028A4FF6DF731A400282028A0A430D
:102240000282704721B1028A42F48042028204E095
:10225000028A4BF6FF731A4002827047C1F30802EC
:102260008280704701468888C0F3080070478189E2
:1022700041F0010181817047028BD2B20283028B4F
:1022800042EA012202837047028B02F47F420283FA
:10229000028B0A430283704721B1828A42F02002F6
:1022A000828204E0828A4FF6DF731A40828270478E
:1022B00021B1828A42F01002828204E0828A4FF6C3
:1022C000EF731A408282704721B1828A42F008027D
:1022D000828204E0828A4FF6F7731A408282704746
:1022E00021B1828942F40042828103E08289C2F3F3
:1022F0000E028281704721B1828A42F4006282829A
:1023000004E0828A4FF2FF731A4082827047828A09
:102310004FF6FB731A408282828A0A438282704798
:1023200021B1828A42F00202828204E0828A4FF660
:10233000FD731A408282704702460020B1F5007F8B
:1023400000D100BF13880B400BB1012000E000203A
:10235000704701F40072B2F5007F00D100BFCA439C
:102360000280704770B5024600240023002500203B
:1023700040F66A16B14200D100BFC1F3421501F028
:102380001F03012606FA03F3012D02D1968933407B
:1023900006E0022D02D1168A334001E0968A3340CE
:1023A0000C12012606FA04F41688344013B10CB15D
:1023B000012000E0002070BD10B50022002340F68F
:1023C0006A14A14200D100BF0A1201249440A3B2B2
:1023D000DC43048010BD0000003801400044004090
:1023E00000480040004C00400050004000F0AEF8B3
:1023F00000F0D4F901E001F068FAFCE7704700BF93
:10240000FEE700BFFEE700BFFEE700BFFEE7704744
:10241000704770477047000000B58BB00121084637
:10242000FEF761FED448FEF725FAD4480090D44860
:1024300001901020029000200390049080200590CD
:1024400000200690079020200890000209900020AC
:102450000A906946C848FEF7AFFA01220221C64831
:10246000FEF7E1FA01220821C348FEF7DCFA012257
:102470008021C248001FFFF7B5FE0021BE48FEF7CD
:10248000C6FABD481430FEF7F5F9BC480090BD48C7
:102490000190002002904FF4FA7003900020049005
:1024A00080200590002006900790202008900002D0
:1024B000099000200A906946AF481430FEF77CFA74
:1024C00001220221AC481430FEF7ADFA01220821A6
:1024D000A9481430FEF7A7FA01224021A748001F9F
:1024E000FFF780FE0121A4481430FEF790FA0BB0EC
:1024F00000BD08B525208DF8000000208DF80100F2
:1025000002208DF8020001208DF803006846FDF7D7
:1025100020FF0E208DF8000000208DF80100012022
:102520008DF802008DF803006846FDF712FF0F20BA
:102530008DF8000000208DF801008DF802000120C8
:102540008DF803006846FDF704FF08BD00B585B0AF
:1025500001210420FEF7D4FD01218803FEF7D0FD00
:102560004FF40070ADF8100018208DF81300032010
:102570008DF8120004A98448FEF706FB4FF4806032
:10258000ADF8100004208DF8130004A97E48FEF772
:10259000FBFA4FF4E13000900020ADF80400ADF8F4
:1025A0000600ADF80800ADF80C000C20ADF80A00EC
:1025B00069467248001FFFF758FD012240F224418E
:1025C0006E48001FFFF7E9FD01216C48001FFFF76F
:1025D000D8FD40216948001FFFF7BBFEFFF71CFF35
:1025E000FFF787FF01206949087005B000BD70B58D
:1025F00004460D4629462046FFF730FE00BF8021E5
:102600002046FFF799FE0028F9D070BD2DE9F04172
:1026100006460C4615462F4604E021783046FFF763
:10262000E6FF641C381EA7F101018FB2F5D1BDE8A9
:10263000F08110B5044621465048001FFFF70EFEFA
:1026400000BF80214D48001FFFF776FE0028F8D01C
:1026500010BD70B505460C4644B1B4F5FA7F02DDF5
:102660004FF4806000E02046044600E070BD00BFEB
:10267000474800780028FBD025B12246294640482B
:1026800003F094FC4FF40050FEF70FFA4FF40040B3
:10269000FEF70BFA00213848FEF7B9F936484438FE
:1026A000846401213448FEF7B2F9002038490870EB
:1026B00000BFDBE7012037490870704710B540F2D2
:1026C00024412E48001FFFF74DFE48B32B48001F42
:1026D0000488001D0488002127481430FEF797F96C
:1026E00025481430FEF7AAF9C0F5FA7084B22246E4
:1026F0002449294802F0FEFA4FF47020FEF7B6F99B
:102700004FF4FA701C494439C86501211A48143045
:10271000FEF77DF940F224411848001FFFF74CFEF8
:1027200010BD10B54FF40050FEF7BFF94FF4004054
:10273000FEF7BBF900211048FEF769F901201449A2
:10274000087010BD10B54FF40030FEF7AEF94FF42D
:102750000020FEF7AAF9002107481430FEF757F9C8
:102760004FF4FA7004494439C86501210248143015
:10277000FEF74DF910BD000044000240043801404E
:102780008001002074030020000801402A0000207E
:10279000290000202B0000206805002010B54FF410
:1027A000FA71FC4802F076FA10BD01B5FA480078DB
:1027B00038B19DF80010F948FFF719FF0020F649DD
:1027C0000870F748007830B10121684603F0FCFA40
:1027D0000020F349087008BDF0B58DB00BA9ED4895
:1027E00002F0ACFA9DF82C00CA38162832D2DFE885
:1027F00000F0F2F1F0EFEE313131313131EDECEB4F
:10280000EAE90B327531C4E80CA9E24802F096FA05
:102810009DF8300000909DF83000022801DD0DB0D9
:10282000F0BD0CA9DB4802F089FA9DF83000A12820
:1028300000D0F4E7009AD0B2DA4A516E8847F92006
:102840008DF82800D84800788DF8290002210AA8C0
:1028500003F0BAFA9EE20CA9CE4802F06FFA9DF896
:102860003000FF2800D0DAE70CE00CA9C94802F0DC
:1028700065FA9DF83000FF2800D104E09DF8300093
:1028800004F8010BF1E700BF0CE00CA9C14802F00D
:1028900055FA9DF83000FF2800D104E09DF8300083
:1028A00005F8010BF1E700BF0CA9BA4802F046FA9F
:1028B0009DF83000A12800D0B1E7E9B2E0B2B94BF1
:1028C0009A6E9047F9208DF82800B74800788DF867
:1028D000290002210AA803F077FA5BE20CA9AD48AF
:1028E00002F02CFA9DF83000FF2800D097E70CE0AA
:1028F0000CA9A84802F022FA9DF83000FF2800D168
:1029000004E09DF8300004F8010BF1E700BF0CE093
:102910000CA9A04802F012FA9DF83000FF2800D15F
:1029200004E09DF8300005F8010BF1E700BF0CA9A9
:10293000984802F003FA9DF8300000909DF83000AE
:10294000042800DD6BE70CA9924802F0F7F99DF826
:102950003000A12800D062E7E9B2E0B2914BDA6E14
:102960009047F9208DF828008F4800788DF82900CD
:1029700002210AA803F028FA0CE20CA9854802F00B
:10298000DDF99DF8300000909DF83000012800DD51
:1029900045E70CA97F4802F0D1F99DF83000FF28E7
:1029A00000D03CE70CE00CA97A4802F0C7F99DF88A
:1029B0003000FF2800D10FE09DF8300004F8010B33
:1029C000F1E736E059E07DE09EE0BFE0D5E082E14E
:1029D0005BE139E122E10BE100BF0CE00CA96D489D
:1029E00002F0ACF99DF83000FF2800D104E09DF81A
:1029F000300005F8010BF1E700BF0CA9654802F0B3
:102A00009DF99DF83000A12800D008E7EAB2E1B2B4
:102A1000009EF0B2634EB36F9847F9208DF82800FE
:102A2000614800788DF8290002210AA803F0CCF94A
:102A3000B0E10CA9574802F081F99DF830005D28FB
:102A400000D0ECE60CA9534802F078F99DF830006C
:102A5000A12800D0E3E65349C86F8047F9208DF8DC
:102A60002800524800788DF8290002210AA803F0B6
:102A7000ABF900204D4908708CE10CA9454802F0E3
:102A80005DF99DF830009D2800D0C8E60CA94148AA
:102A900002F054F99DF83000A12800D0BFE641496A
:102AA000D1F880008047F9208DF828004048007850
:102AB0008DF8290002210AA803F086F900203C497C
:102AC000087067E10CA9334802F038F99DF830002E
:102AD0008A2800D0A3E60CA92E4802F02FF99DF811
:102AE0003000A12800D09AE62E49D1F88400804712
:102AF000F9208DF828002C4800788DF82900022153
:102B00000AA803F061F945E10CA9224802F016F980
:102B10009DF830007C2800D081E60CA91D4802F009
:102B20000DF99DF83000A12800D078E61D49D1F8B4
:102B300088008047F9208DF828001B4800788DF820
:102B4000290002210AA803F03FF923E10CA911484A
:102B500002F0F4F89DF830006B2800D05FE60CA975
:102B60000C4802F0EBF89DF83000A12800D056E6A2
:102B70000C49D1F88C0080470CE10CA9054802F003
:102B8000DDF89DF8300000909DF83000012811DD3F
:102B900045E60000680500202B00002000380140B9
:102BA0006C0100202C000020680100206A01002038
:102BB0006B0100200CA9FB4802F0C0F89DF8300022
:102BC000052800DD2BE69DF8300001900CA9F548A2
:102BD00002F0B4F89DF83000A12800D01FE6019B58
:102BE000D9B2009BD8B2F04BD3F89020904716E6AC
:102BF0000CA9EC4802F0A2F89DF83000682800D03B
:102C00000DE60CA9E74802F099F89DF83000A128DC
:102C100000D004E6E449886D8047BBE00CA9E14898
:102C200002F08CF89DF83000692800D0F7E50CA977
:102C3000DC4802F083F89DF83000A12800D0EEE5D2
:102C4000D949C86D8047A5E00CA9D64802F076F8AE
:102C50009DF830006A2800D0E1E50CA9D14802F0C7
:102C60006DF89DF83000A12800D0D8E5CE49086E57
:102C70008047F9208DF82800CC4800788DF829008D
:102C800002210AA803F0A0F884E00CA9C54802F0CC
:102C900055F89DF83000022800DDC0E59DF83000B1
:102CA00000900CA9BF4802F049F89DF83000A12817
:102CB00000D0B4E5009AD0B2BB4A116F8847F92022
:102CC0008DF82800B94800788DF8290002210AA85B
:102CD00003F07AF85EE00CA9B24802F02FF89DF8F4
:102CE0003000012800DD9AE59DF8300000900CA925
:102CF000AC4802F023F89DF83000FF2800D08EE5A4
:102D00000CE00CA9A74802F019F89DF83000FF2844
:102D100000D104E09DF8300004F8010BF1E700BF9A
:102D20000CE00CA99F4802F009F89DF83000FF283C
:102D300000D104E09DF8300005F8010BF1E700BF79
:102D40000CA9984801F0FAFF9DF83000052800DD35
:102D500065E59DF8300001900CA9924801F0EEFF66
:102D60009DF83000A12800D059E5019FFBB2EAB2DE
:102D7000E1B2009FF8B28C4F7E6FB047F9208DF81A
:102D800028008A4800788DF8290002210AA803F05B
:102D90001BF800BF00BFA620FFF707FD01208349F5
:102DA000087000BF3BE5F0B5A1B000261FA97D4823
:102DB00001F0C4FF9DF87C00CA2802D0DA2843D174
:102DC00043E020A9774801F0B9FF9DF880007849D9
:102DD00041EA0020159020A9724801F0AFFF9DF84C
:102DE000800005119DF8800000F00F00A8401690AB
:102DF00020A96C4801F0A2FF9DF880006C4941EACF
:102E00000020179020A9674801F098FF9DF88000E6
:102E100005119DF8800000F00F00A840189020A92F
:102E2000604801F08BFF9DF88000A12801D021B0FF
:102E3000F0BDDDE916C21FFA8CF1DFF86CC1189BFA
:102E40001598DCF85470B84796E020A9554801F071
:102E500075FF9DF88000574908700846007830B922
:102E60000020554908700120544908700BE0514872
:102E70000078012806D102204F49087003204F49ED
:102E8000087000E0D3E720A9464801F057FF9DF8FD
:102E9000800001282DD19DF880008DF804000125C7
:102EA00000BF20A93F4801F049FF9DF8800001A91B
:102EB000485526B99DF88000022800D118E0012E5F
:102EC00000D100269DF88000062801D1012000E0F5
:102ED00000209DF880100622B2EB211F01D10121B4
:102EE00000E00021084300B10126681CC5B2D8E704
:102EF00000E09CE720A92B4801F020FF9DF880000E
:102F0000A12800D093E7002425E001A8005D062851
:102F100001D1012000E0002001A9095D0622B2EBE9
:102F2000211F01D1012100E00021084358B101AB6C
:102F3000621C985C01AA125D214B53F8221088474D
:102F4000601CC4B205E001A9095D1D4A52F82100C8
:102F50008047601CC4B2AC42D7DD1A48007840B943
:102F60000120184908709DF80510154A52F82100F3
:102F7000804702F019FA00BF00BFA520FFF715FC3B
:102F800000BF54E710B592B010A9064801F0D6FE74
:102F900011A9044801F0D2FE9DF84400342813D151
:102FA000012012E0680500202C00002068010020AC
:102FB0000000014057010020580100205901002065
:102FC000C80000205A01002000209DF844102C2940
:102FD00001D1012100E00021084330B19DF84400F7
:102FE000FB4901EB0020059006E09DF844004FF0FE
:102FF000804101EB002005909DF84000DA2812D0B6
:1030000008DCAA2871D0CA2870D0CB286FD0CC2871
:103010006ED1DFE0DB282AD0DC283FD0DD2854D079
:10302000DE28F5D16CE011A9EA4801F087FE9DF891
:103030004400069002231A4604A9E64801F098FECF
:10304000BDF81000ADF8080011A9E24801F076FEC5
:103050009DF84400A12801D012B010BDBDF8082091
:10306000069CE1B2DC4C0598236C9847E0E011A97E
:10307000D84801F063FE9DF84400069011A9D54898
:1030800001F05CFE9DF84400A12800D0E4E7069B17
:10309000D9B2D14B05985A6C9047C9E011A9CD48D7
:1030A00001F04CFE9DF84400069011A9C94801F0BA
:1030B00045FE9DF84400A12800D0CDE7069BD9B27B
:1030C000C54B05989A6C9047B2E011A9C14801F030
:1030D00035FE9DF84400069011A9BE4801F02EFE71
:1030E0009DF84400A12804D0B6E792E023E05CE01C
:1030F0009DE0069BD9B2B84B0598DA6C904797E0F3
:1031000002231A4604A9B34801F032FEBDF81000AC
:10311000ADF8080011A9AF4801F010FE9DF8440079
:10312000A12800D098E7BDF80810AB4B0598D3F85C
:10313000982090477CE0012304220FA9A54801F0C4
:1031400017FE02231A4604A9A24801F011FEBDF899
:103150001000ADF8080002231A4604A99D4801F0AA
:1031600007FEBDF81000ADF80A0002231A4604A9B4
:10317000984801F0FDFDBDF81000ADF80C0011A954
:10318000944801F0DBFD9DF84400A12800D063E7DE
:10319000BDF80C000090BDF80A30BDF808208E493B
:1031A00005980C6B0FA9A04742E002231A4604A918
:1031B000884801F0DDFD11A9864801F0BFFD9DF8AA
:1031C0004400A12800D047E7834905984A6B04A929
:1031D00090472DE011A97F4801F0B0FD9DF8440013
:1031E000069002231A460FA97A4801F0C1FDBDF8E6
:1031F0003C00079011A9774801F0A0FD9DF844001C
:10320000A12800D028E7744C05A807C8A36B9847ED
:103210000EE011A96F4801F091FD9DF84400A1282E
:1032200000D019E76C4A0598D16B884700E013E796
:1032300000BFA420FFF7B9FA00BF0DE730B591B089
:10324000002500240FA9634801F078FD9DF83C009B
:10325000AA2846D0CA2818D0DA284FD110A95D482C
:1032600001F06CFD9DF84000059010A9594801F04F
:1032700065FD9DF84000A12801D011B030BD059A30
:10328000D0B2554AD16A884739E010A9514801F0B7
:1032900055FD9DF8400000030590002417E010A99B
:1032A0004C4801F04BFD102C04D19DF84000A128A2
:1032B00000D0E2E79DF84000A12800D109E0681C99
:1032C000C5B29DF8400001A90855601C04B2112C3C
:1032D000E5DB00BF404905982A464B6A01A998479B
:1032E0000DE010A93B4801F029FD9DF84000A12800
:1032F00000D0C2E73849886A804700E0BDE700BFD8
:10330000A320FFF752FA00BFB7E710B5034693FBBF
:10331000F1F001FB1030C4B2A24201D1012010BD76
:103320000020FCE72DE9F04196B0002600270020A0
:10333000099008900024002514A9264801F0FEFCFD
:103340009DF85000DC280FD115A9224801F0F6FCA9
:103350009DF85400A52802D016B0BDE8F0811E49A2
:10336000D1F894008047F7E715A91A4801F0E6FC68
:103370009DF854004FF0804141EA00200A909DF8EA
:103380005400204484B2681C85B29DF85000AA28DD
:1033900079D0CA2878D0DA2802D0DB2875D156E057
:1033A00015A90C4801F0CAFC9DF854709DF8540012
:1033B000204484B2681C85B215A9064801F0BEFC01
:1033C0009DF8542029462046FFF79FFF30B9C3E7F8
:1033D00000000140680500202C000020002400258A
:1033E00000260FE015A9FE4801F0A8FC9DF8540046
:1033F000FC4988559DF85400204484B2681C85B26D
:10340000701C06B2BE42EDDB15A9F54801F096FC32
:103410009DF8542029462046FFF777FF00B99BE727
:1034200015A9EF4801F08AFC9DF85400A32807D0A5
:10343000BDF81620BDF81410E94801F0D4FC8BE764
:10344000E9490A983A46CB69E6499847FBE015A94D
:10345000E34801F073FC9DF8542029462046FFF70D
:1034600054FF00B978E715A9DD4801F067FC9DF825
:103470005400A4280AD0BDF81620BDF81410D8486E
:1034800001F0B1FC68E7BCE030E0DBE0D7490A9826
:10349000884212D1A4208DF81C0044208DF81D0014
:1034A000D1480221026A07A89047CF48026AD04853
:1034B000B0F90010CF48904717E0CF490A988842EA
:1034C00012D1A4208DF81C004C208DF81D00C64898
:1034D0000221026A07A89047C348026AC748B0F9A8
:1034E0000010C748904700E036E7ACE015A9BC489B
:1034F00001F024FC9DF854000B909DF854002044EA
:1035000084B2681C85B215A9B54801F017FC9DF876
:10351000540000020C909DF85400204484B2681CB2
:1035200085B215A9AE4801F009FC9DF854000002CF
:103530000D909DF85400204484B2681C85B215A9F2
:10354000A74801F0FBFB9DF8540000020E909DF887
:103550005400204484B2681C85B215A9A04801F02B
:10356000EDFB9DF8540000020F909DF8540020449C
:1035700084B2681C85B215A9994801F0DFFB9DF85B
:10358000540010909DF85400204484B2681C85B209
:1035900015A9934801F0D2FB9DF8540011909DF8B5
:1035A0005400204484B2681C85B215A98C4801F0EF
:1035B000C5FB9DF8542029462046FFF7A6FE00B91A
:1035C000CAE615A9864801F0B9FB9DF85400A12868
:1035D00007D0BDF81620BDF81410814801F003FC97
:1035E000BAE6DDE90E23DDE91010CDE90023CDE9CF
:1035F0000210DFF8F4810AA80FC8D8F814C0E04719
:1036000021E015A9764801F099FB9DF85420294640
:103610002046FFF77AFE00B99EE615A9704801F032
:103620008DFB9DF85400A22807D0BDF81620BDF8E8
:1036300014106B4801F0D7FB8EE66B4A0A9891692B
:10364000884700E088E600BFFA20FFF7AEF800BF29
:1036500082E6F0B591B0002400250FA9604801F082
:103660006DFB5F4901A801F0C6FBDDE90101CDE971
:10367000030110A95A4801F061FB9DF8400061491F
:1036800041EA002005909DF8400004446D1C9DF81F
:103690003C00AA287ED0CA287DD0DA2802D0DB28B8
:1036A0007AD148E010A94E4801F048FB9DF840004F
:1036B00006119DF8400000F00F00B04006909DF804
:1036C0004000204484B2681C85B210A9444801F02F
:1036D00035FB9DF8400007909DF84000204484B2DF
:1036E000681C85B2079820B10798012801D011B055
:1036F000F0BD10A93A4801F021FB9DF84020294671
:103700002046FFF702FE00B9F1E710A9344801F0A6
:1037100015FB9DF84000E32807D0BDF80E20BDF84A
:103720000C102F4801F05FFBE1E72F4F05A807C8F9
:103730003B699847C3E010A9294801F0FFFA9DF8BA
:10374000400006119DF8400000F00F00B0400690C8
:103750009DF84000204484B2681C85B210A920481E
:1037600001F0ECFA9DF8402029462046FFF7CDFDF8
:1037700000B9BCE710A91A4801F0E0FA9DF8400032
:10378000E4280AD0BDF80E20BDF80C10144801F052
:103790002AFBACE771E006E090E0134BDDE90501A0
:1037A0001A6D90478BE010A90D4801F0C7FA9DF8FB
:1037B000400006119DF8400000F00F00B040069058
:1037C0009DF84000204484B2681C85B210A90448CA
:1037D00001F0B4FA9DF8400007909DF8400013E016
:1037E00068050020740500202C00002000440040E3
:1037F000EA000020480E0020004C0040EC000020B1
:10380000AC0E002000000140204484B2681C85B248
:1038100010A9544801F092FA9DF8400008909DF8D4
:103820004000204484B2681C85B210A94D4801F0C4
:1038300085FA9DF8402029462046FFF766FD00B92D
:1038400055E710A9474801F079FA9DF84000E128B2
:1038500007D0BDF80E20BDF80C10424801F0C3FAA5
:1038600045E7DDE906C21FFA8CF1DFF8FCC0089BD2
:103870000598DCF80870B84721E010A9394801F034
:103880005DFA9DF8402029462046FFF73EFD00B92D
:103890002DE710A9334801F051FA9DF84000E228C5
:1038A00007D0BDF80E20BDF80C102E4801F09BFA91
:1038B0001DE72D4A0598D168884700E017E700BF4B
:1038C000FE20FEF772FF00BF11E738B5254840899A
:1038D00002282ADD6946234801F030FA9DF80000ED
:1038E0000F21B1EB201F1FD19DF8000000F00F0445
:1038F000A4F10900062816D2DFE800F012060F092D
:103900000C03FFF7A6FE0EE0FFF70CFD0BE0FFF740
:1039100095FC08E0FFF736FB05E0FFF744FA02E00C
:10392000FEF75AFF00BF00E038BD00BFFCE70146CC
:103930000868704701607047024613780B7053782F
:103940004B70704730B50246002300204C1EA3B2D6
:1039500001E0D45C20441C1EA3F10105ABB2F8D1F8
:1039600030BD0000680500202C00002010B5044682
:10397000FE49601A8C4238D01ADCFD49A4EB0100E4
:103980008C4269D00ADCB4F1804F56D0F94820440B
:10399000002857D0B0F5806F6DD158E0B0F5605F6A
:1039A00041D0B0F5705F43D0B0F57C4F63D117E0E4
:1039B000B0F5805F2DD009DCB0F5806F1AD0B0F57E
:1039C000006F1CD0B0F5406F55D11DE0B0F5A05F81
:1039D00024D0B0F5005F44D0B0F5205F4BD145E076
:1039E00001210420FDF78CFB45E001210820FDF7B3
:1039F00087FB40E001211020FDF782FB3BE0012125
:103A00002020FDF77DFB36E001214020FDF778FB0B
:103A100031E001218020FDF773FB2CE00121080239
:103A2000FDF76EFB27E001214804FDF776FB22E05D
:103A300001218804FDF771FB1DE001210846FDF717
:103A40006CFB18E001210220FDF767FB13E0012168
:103A50000420FDF762FB0EE001210820FDF75DFB6D
:103A600009E00121C802FDF74BFB04E001214803F6
:103A7000FDF746FB00BF00BF10BD0146BC4A881AD7
:103A800091421BD009DCB1F1804F11D0B9480844F4
:103A900080B1B0F5806F13D10EE0B0F5605F03D058
:103AA000B0F5705F0CD101E0262070472720FCE7BD
:103AB0001C20FAE71D20F8E71E20F6E73220F4E785
:103AC00000BFF2E7F8B507460C4615461E463846D5
:103AD000FFF74CFFA0B2ADF80000E8B28DF803008C
:103AE000F0B28DF8020069463846FDF74DF8F8BD92
:103AF00010B504462046FCF7E7FF9F48844201D1F9
:103B0000FEF724FD10BD0146012902D14FF41650E5
:103B10007047022902D14DF6C020F9E7032902D1EE
:103B20004FF4E130F4E74FF41650F1E730B58DB0C3
:103B3000054601210846FDF7D6FA9048FCF79AFEA3
:103B4000012D04D18E4C32208E49088005E025B924
:103B50008D4C4FF4FA708B49088088481438FCF774
:103B600089FE8A4802900394002004908548B0F9A9
:103B7000000005900020069080200790002008900B
:103B8000099020200A9000020B9000200C9002A9BE
:103B90007A481438FCF710FF0122022177481438C4
:103BA000FCF741FF0122082174481438FCF73BFF61
:103BB000012240217548001FFEF714FB01216F48C8
:103BC0001438FCF724FF10208DF8040001208DF834
:103BD000050000208DF8060001208DF8070001A8DF
:103BE000FCF7B7FB0DB030BD30B58DB005460121F7
:103BF0000220FDF778FA6648FCF73CFE012D04D15F
:103C0000644C32206449088005E025B9634C4FF4C8
:103C1000FA70614908805E482838FCF72BFE60483E
:103C200002900394002004905B48B0F900000590D6
:103C30000020069080200790002008900990202006
:103C40000A9000020B9000200C9002A950482838DE
:103C5000FCF7B2FE012202214D482838FCF7E3FEB2
:103C6000012208214A482838FCF7DDFE01224021C4
:103C70004B48001FFEF7B6FA012145482838FCF7EB
:103C8000C6FE3A208DF8040001208DF805000220C0
:103C90008DF8060001208DF8070001A8FCF759FBFC
:103CA0000DB030BD11BB394A121F90420CD1002219
:103CB0003C4B1A703C4A12781AB1F9223B4B1A70ED
:103CC00002E0FA22394B1A70354A121F90421FD176
:103CD0000022374B1A70344A12781AB1F922354B48
:103CE0001A7015E0FA22334B1A7011E0274A121F9E
:103CF000904204D101222B4B1A702F4A1180284A7E
:103D0000121F904204D10122294B1A702B4A1180B4
:103D100070472DE9F04F85B004460E461746984689
:103D2000DDE90FABDDF83890119D01210420FDF78E
:103D3000E7F92046FFF71AFEE9B22046FFF7B2FF87
:103D4000F0B2FFF7E0FE0190B8B2ADF808001FFA3C
:103D500088F0ADF80A001FFA89F0ADF80C001FFAE0
:103D60008AF0ADF810001FFA8BF029E0000C01403A
:103D7000000C004000FCFFBF000801408000024032
:103D80007A0E0020EE0000206C0800200444004061
:103D900058040240DE0E0020F0000020540C0020E9
:103DA000044C0040E40000206C010020F2000020E0
:103DB000E5000020F3000020E6000020E8000020DD
:103DC000ADF80E0001A92046FEF74FF94FF4C06090
:103DD000FCF7BAFA2046FFF750FEC0B28DF800009B
:103DE0002046FFF74AFE2538C0B28DF801000020BA
:103DF0008DF8020001208DF803006846FCF7A9FA4F
:103E0000012240F224412046FEF7C7F90121204655
:103E1000FEF7B7F9FE48844203D1E8B2FFF786FE09
:103E200005E0FC48844202D1E8B2FFF7DDFE05B0B0
:103E3000BDE8F08F024613780B7053784B707047D3
:103E400070B504460D461646FA2C04D13246294672
:103E5000F148FEF7DBFBF92C03D13146284601F08F
:103E6000B3FF70BD7CB500200190009000250026B6
:103E700040F22441E648FEF775FA00287ED0E44877
:103E8000008800B20190E248001D008800B2019055
:103E90000021E248FCF7BBFDE1480078002852D140
:103EA000DE48FCF7CBFDC0F5FA7000B201904FF48C
:103EB0007000FCF7DBFD4FF4FA70D8496C390867E5
:103EC000FF202070FA2060704420A070694601A88D
:103ED000FFF7B0FFBDF80000A4F803009DF8000054
:103EE0009DF801100844FF2190FBF1F201FB120044
:103EF0006071BDF90420CB49A01D02F057F8BDF850
:103F0000040085B202E0C748405D0644281EA5F1C2
:103F100001018DB2F7D1FF20B6FBF0F100FB11617A
:103F2000BDF90400801D2154A621BDF90400C01D67
:103F30002154BDF80400C01D82B22146BA48007861
:103F4000FFF77EFF1DE0B6480078D0B1B348FCF71C
:103F500075FDC0F1320000B20190BDF90420B349F3
:103F6000B34802F023F84FF47000FCF77FFD3220D5
:103F7000AA496C390867BDF9040000E00AE0AD49C0
:103F800008800121A548FCF742FD40F22441A048E9
:103F9000FEF712FA7CBD7CB5002001900090002550
:103FA000002640F224419B48FEF7DCF900287DD032
:103FB0009848008800B201909648001D008800B221
:103FC000019000219C48FCF722FD9C4800780028C5
:103FD00051D19948FCF732FDC0F5FA7000B201905A
:103FE0009748FCF743FD4FF4FA709349091D0860A8
:103FF000FF202070FA2060704C20A070694601A854
:10400000FFF718FFBDF80000A4F803009DF80000BA
:104010009DF801100844FF2190FBF1F201FB120012
:104020006071BDF904207F49A01D01F0BFFFBDF8FC
:10403000040085B202E07B48405D0644281EA5F1DD
:1040400001018DB2F7D1FF20B6FBF0F100FB116149
:10405000BDF90400801D2154A621BDF90400C01D36
:104060002154BDF80400C01D82B221467548007875
:10407000FFF7E6FE1CE071480078C8B16E48FCF717
:10408000DDFCC0F1320000B20190BDF904206E49A0
:104090006E4801F08BFF6A48FCF7E8FC3220664965
:1040A000091D0860BDF90400694900E009E00880C5
:1040B00001216148FCF7ABFC40F224415548FEF772
:1040C0007BF97CBD10B54FF40010FCF7EEFC4FF40B
:1040D0000000FCF7EAFC00215048FCF798FC5D4822
:1040E000B0F900004D496C39086701214B48FCF7D5
:1040F0008EFC10BD10B55848FCF7D7FC5748FCF7AC
:10410000D4FC00214C48FCF782FC5548B0F9000073
:104110004949091D086001214748FCF778FC10BD9A
:1041200010B504463A48844202D1FDF75BFF04E033
:104130003848844201D1FDF755FF10BDF0B591B06C
:1041400007460D461646002400BF05E00120295D04
:10415000444A5054601CC4B2B442F7DB0121084603
:10416000FCF7C1FF01214802FCF7CAFF2B48643865
:10417000FCF780FB3C48FCF755F93B484C30069077
:104180003A480790002008901020099000200A90DB
:1041900080200B9040000C9080000D9020200E900D
:1041A00000020F900020109006A91C486438FCF70C
:1041B00003FC012119486438FCF729FC0020019018
:1041C00001208DF808008DF809004FF4602003905D
:1041D0000020049010208DF8140001A92248FCF75B
:1041E00048F93846FCF7F0FE0523012200211E485D
:1041F000FCF7D7F90523022201211B48FCF7D1F96E
:104200000523032202211848FCF7CBF905232FE0F0
:1042100000440040004C0040003801406C00024067
:10422000E40000206C080020F20000207A0E00203C
:10423000480E0020EA00002030040240E500002083
:10424000000F0010F3000020DE0E0020AC0E002056
:10425000EC000020EE00002000020010000800101A
:10426000F0000020300F002000240140100F00203B
:1042700004220321FE48FCF794F905231A46042181
:10428000FB48FCF78EF9052306221946F848FCF78F
:1042900088F9052307220621F548FCF782F9052352
:1042A00008220721F248FCF77CF90523092208219E
:1042B000EF48FCF776F905230A220921EC48FCF7C0
:1042C00070F905230B220A21E948FCF76AF9052356
:1042D0000C220B21E648FCF764F905230D220C2182
:1042E000E348FCF75EF905230E220D21E048FCF7B8
:1042F00058F905230F220E21DD48FCF752F905235A
:1043000010220F21DA48FCF74CF90121D848FCF7BC
:10431000E7F80121D648FCF7D8F8D548FCF7F7F8BC
:1043200000BFD348FCF7F8F80028FAD1D048FCF7D2
:10433000FDF800BFCE48FCF7FEF80028FAD10121B5
:10434000CB48FCF702F911B0F0BD10B5C848FCF736
:1043500069F810BD2DE9F04387B080460D4616463A
:104360001F46DDF8389000244046FFF7FFFA40462C
:10437000FCF72AFF701E80B2ADF81400781E80B2E0
:10438000ADF810000020ADF81600ADF8120004A939
:104390004046FCF7EDFF6020ADF800000120ADF8CD
:1043A00002000020ADF80800ADF8069000BF32E032
:1043B000285D70B3285D012806D002280DD003289F
:1043C00014D0042824D11AE069464046FDF70DF8C0
:1043D00008214046FDF758FC1AE069464046FDF7C3
:1043E00046F808214046FDF758FC11E06946404672
:1043F000FDF78AF808214046FDF75CFC08E06946B5
:104400004046FDF7CCF808214046FDF75CFC00BFB4
:1044100000BF601C04B2042CCADB01214046FDF73A
:104420000FFB01214046FDF7FFFB01214046FDF750
:10443000FBFA07B0BDE8F0830146042902D00C293D
:1044400004D101E0042070471020FCE70020FAE7C7
:10445000F0B587B007460D46002400263846FFF722
:1044600085FA4FF48060FBF76FFF3846FFF705FBD6
:10447000C0B28DF800003846FFF7FFFA322807D0A7
:104480003846FFF7FAFA1C38C0B28DF8010002E096
:1044900003208DF8010003208DF8020001208DF823
:1044A00003006846FBF755FF4FF6FF70ADF81400A8
:1044B0000020ADF81000ADF81600ADF8120004A908
:1044C0003846FCF755FF0220ADF806000120ADF894
:1044D00008000020ADF80A00ADF80C00002412E03E
:1044E00055F8240070B135F8241088B2FFF7A4FF06
:1044F000064335F8240080B2ADF8040001A938461F
:10450000FDF714FA641C022CEADB60213846FDF743
:10451000C5FA04213846FDF709FD80213846FDF72C
:104520000EFD012231463846FDF799FA31463846EC
:10453000FDF740FD01213846FDF776FA07B0F0BDE2
:1045400002460B46002100BF07E04A4850F8210010
:10455000904201D101207047491C474800788142B0
:10456000F3DB0020F7E770B586B004460D4616462B
:104570002046FFF7FBF92046FCF726FE0520ADF8A4
:1045800000004FF6FF70ADF804000020ADF8060003
:10459000ADF8020069462046FCF7EAFEA9B2002306
:1045A0001A462046FDF7F3FA03A8FDF720FA01208A
:1045B000ADF8140003A92046FDF76DF90020A08492
:1045C00001212046FDF730FA2A492046FFF7B8FFBF
:1045D00008B106B070BD29482749097840F8216024
:1045E00024482549097840F8214023480078401C98
:1045F0002149087000F0F5FA00BFEAE710B504465B
:104600002046FCF7E1FD10BD2DE9F041042108072B
:10461000FDF7D3FCE8B10024002600254FF08040D0
:10462000048F858E16480068B0FBF4F7384601F019
:10463000A3FD0646601B1349086013480560134933
:10464000304601F0E9FC074601F09BFD1049086087
:1046500000BF10218806FDF7B0FC90B300240026AF
:1046600000250C4804880006858F0548006813E083
:1046700000240140880F002054010020580F002022
:1046800000000020F40000201401002000007A4403
:104690003401002040000040B0FBF4F7384601F040
:1046A0006BFD0646601B7A4948607A4845607A4946
:1046B000304601F0B1FC074601F063FD77494860E0
:1046C00000BFBDE8F0812DE9F04104217448FDF7F9
:1046D00074FCF0B1002400260025714838300488AD
:1046E000001F05886F480068B0FBF4F7384601F0FA
:1046F00043FD0646601B6C4908606C4805606649CE
:10470000304601F089FC074601F03BFD684908602E
:1047100000BF10216248FDF750FCF0B100240026D4
:1047200000255F4840300488001F05885D48006808
:10473000B0FBF4F7384601F01FFD0646601B5A49EE
:1047400048605A4845605449304601F065FC0746C8
:1047500001F017FD5649486000BFBDE8F0812DE922
:10476000F04104215348FDF728FCF0B10024002655
:104770000025504838300488001F058849480068E3
:10478000B0FBF4F7384601F0F7FC0646601B4A49D7
:1047900008604A4805604049304601F03DFC074644
:1047A00001F0EFFC4649086000BF10214148FDF7C9
:1047B00004FCF0B10024002600253E484030048867
:1047C000001F058837480068B0FBF4F7384601F051
:1047D000D3FC0646601B38494860384845602E497E
:1047E000304601F019FC074601F0CBFC3449486023
:1047F00000BFBDE8F0812DE9F04104213148FDF70B
:10480000DCFBF0B10024002600252E483830048857
:10481000001F058823480068B0FBF4F7384601F014
:10482000ABFC0646601B28490860284805601A4909
:10483000304601F0F1FB074601F0A3FC2449086073
:1048400000BF10211F48FDF7B8FBF0B1002400267F
:1048500000251C4840300488001F05881148006866
:10486000B0FBF4F7384601F087FC0646601B16499A
:104870004860164845600849304601F0CDFB0746C0
:1048800001F07FFC1249486000BFBDE8F0810000E4
:10489000F40000201401002000007A4434010020BC
:1048A0000004004000000020FC0000201C0100204B
:1048B0003C010020000800400401002024010020E9
:1048C00044010020000C00400C0100202C010020BD
:1048D0004C01002070B504460D46A448007820B174
:1048E0002A462146A248FDF791FEA248007818B159
:1048F0002946204601F068FA70BDD3B2012B02D1DF
:104900008BB2036103E0D3B20BB98BB24361704742
:10491000F8B504460D460026A068284008B10126D7
:1049200000E00026E4208DF800008DF801600221EF
:104930006846FFF7CFFFF8BD70B504460D46164632
:10494000324629462046FDF761FE70BD70B504462B
:104950000D4629462046FFF7BDFF70BD024613787D
:104960000B7053784B7093788B70D378CB70704703
:104970002DE9FF470446804931F8140001F0FCFBA3
:1049800082464FF08B4101F047FB814601F00DFC60
:1049900007464FF06632794B01F07CFB054601F08B
:1049A00017FC009003A96846FFF7D8FFFC208DF89C
:1049B00004000398CDF80500052101A8FFF78AFF40
:1049C000BDE8FF87012906D0022906D0032906D0B9
:1049D000042909D105E0828606E0028704E0828787
:1049E00002E0A0F8402000BF00BF7047018501220F
:1049F000828270477FB505460C46614850F8240016
:104A0000009003A96846FFF7A9FFFD208DF8040078
:104A1000DD208DF805000398CDF80600062101A8D9
:104A2000FFF758FF7FBD024613780B7053784B7029
:104A300093788B70D378CB7070477FB506460C4661
:104A4000251104F00F04B6F1804F09D04D483044D1
:104A5000A0B1B0F5806F1FD0B0F5006F38D129E05C
:104A6000012D05D1601E484951F82000009004E056
:104A7000601E464951F82000009029E0012D05D123
:104A8000601E434951F82000009004E0601E414937
:104A900051F8200000901BE0012D05D1601E3E4919
:104AA00051F82000009004E0601E3C4951F82000BD
:104AB00000900DE0012D05D1601E394951F820000C
:104AC000009004E0601E374951F82000009000BFBC
:104AD00000BF03A96846FFF7A6FFFD208DF804007C
:104AE000DB208DF805000398CDF80600062101A80B
:104AF000FFF7F0FE7FBD7FB505460C46B5F1804F50
:104B000009D02048284460B1B0F5806F0FD0B0F5CF
:104B1000006F18D111E0601E234951F82000009069
:104B200011E0601E214951F8200000900BE0601E4A
:104B30001F4951F82000009005E0601E1D4951F802
:104B40002000009000BF00BF03A96846FFF76BFF7D
:104B5000FD208DF80400DC208DF805000398CDF8C9
:104B60000600062101A8FFF7B5FE7FBD2B0000203F
:104B7000003801406C010020100F002066660A40DA
:104B8000700F002000FCFFBFF40000201401002083
:104B9000FC0000201C010020040100202401002052
:104BA0000C0100202C010020340100203C010020D9
:104BB000440100204C01002008B54FF4A060FBF731
:104BC000C3FB36208DF8000002208DF80100002084
:104BD0008DF8020001208DF803006846FBF7B9FB51
:104BE00008BD0EB501211020FCF797FA41F61F40D1
:104BF000ADF800000920ADF804000020ADF8060073
:104C0000ADF8020069461D48FCF7B2FB01221146CF
:104C10001A48FCF724FF01211848FDF7DFF90121AC
:104C20001648FCF701FFFFF7C7FF0EBD10B50024C3
:104C300000BF1DE0124850F82400401C104941F804
:104C40002400084650F824000E4951F824108842E8
:104C50000CD90D4951F82410888C01F08DFA0B49BC
:104C600008600020084951F824108884601CC4B2F0
:104C7000074800788442DDDB10BD000000100040D2
:104C8000400F0020580F0020880F0020700F0020D8
:104C90005401002070B504460D460CB9022070BDC9
:104CA0002581208901F0FCFC20602189206801F029
:104CB00096F90020A080E08060810120EFE70246A5
:104CC0000AB902207047D3881068C154D0889388ED
:104CD000984201D100205081D088401CD08050895A
:104CE000401C5081D0881389984201D10020D08087
:104CF0000120E7E770B503460C460BB9022070BDF2
:104D0000002117E0605CDE881D68A855D8889D8862
:104D1000A84201D100205881D888401CD8805889E9
:104D2000401C5881D8881D89A84201D10020D88014
:104D3000481C81B29142E5DB0120E0E702460AB956
:104D40000220704700BF50890028FCD0938810686B
:104D5000C05C08709088401C90805089401E508133
:104D600090881389984201D1002090800120E8E7C3
:104D70002DE9F04106460C46174698463D4606B1D9
:104D800014B90220BDE8F08100BF7089A842FCDBA5
:104D9000B8F1010F0CD1E019441E06E02146641E53
:104DA0003046FFF7CBFF681E85B2002DF6D10CE030
:104DB000B8F1020F09D106E02146641C3046FFF726
:104DC000BDFF681E85B2002DF6D10120DAE710B5CF
:104DD00004460CB9012010BD206801F039FC002008
:104DE00020600120F7E703460BB901207047998046
:104DF0005A810120FAE7024609B9012303718B8821
:104E000003804B89438003681360838893807047D5
:104E100030B5F74CF74D2D7844F825002546F54C74
:104E20002478641C45F82420F34CF24D2D7844F886
:104E300025102546EF4C2478641C45F82430ED4CB1
:104E40002478A41CEB4D2C7030BDF8B507460C46F9
:104E500015461E463846FEF789FD2846FEF786FDB4
:104E6000A0B2ADF8000010208DF8030001208DF8ED
:104E7000020069463846FBF787FEB0B2ADF8000085
:104E800010208DF8030001208DF8020069462846A5
:104E9000FBF77AFEA0B23861B0B2286133462A46E9
:104EA00021463846FFF7B4FFF8BD38B50446D2486E
:104EB00030F8240080B2ADF8000001208DF8020027
:104EC00028208DF80300CA4951F824006946FBF7F1
:104ED0005BFE38BD38B50446C74830F8240080B2C0
:104EE000ADF8000001208DF8020010208DF80300BD
:104EF000BF4951F824006946FBF746FE38BD002043
:104F0000BB49BE4A127851F822108968BA4ABB4B95
:104F10001B7852F82320114009B1012000E0002045
:104F2000704738B1B44A52F82120B14B53F82130C0
:104F30001A6106E0B04A52F82120AD4B53F82130F7
:104F40005A61704738B1AC4A52F82120A84B53F847
:104F500021301A6106E0A84A52F82120A44B53F8E8
:104F600021305A61704700B5A548007800282CD040
:104F7000A24801780120FFF7D4FF002000E0401C88
:104F8000B0F5FA7FFBD39F4801780120FFF7DAFFE5
:104F9000002000E0401CB0F5FA7FFBD39748017871
:104FA0000020FFF7BEFF002000E0401CB0F5FA7FB4
:104FB000FBD3944801780020FFF7C4FF002000E0F5
:104FC000401CB0F5FA7FFBD300BF00BD00B58C4894
:104FD000007800282CD08B4801780020FFF7B2FF22
:104FE000002000E0401CB0F5FA7FFBD38348017835
:104FF0000020FFF796FF002000E0401CB0F5FA7F8C
:10500000FBD3804801780120FFF79CFF002000E0DF
:10501000401CB0F5FA7FFBD3784801780120FFF7F8
:1050200080FF002000E0401CB0F5FA7FFBD300BFFA
:1050300000BD10B572480078002840D005246F48A4
:105040000078FFF732FF002000E0401CB0F5FA7F47
:10505000FBD36C4801780120FFF774FF002000E0CB
:10506000401CB0F5FA7FFBD312E0601EC4B20020F2
:1050700000E0401CB0F5FA7FFBD34CB95F480078E4
:10508000FFF728FFFFF7A2FF00205D49087010BD61
:10509000FFF735FF0028E8D158480078FFF71AFFDE
:1050A000584801780020FFF74DFF002000E0401C29
:1050B000B0F5FA7FFBD3012051490870E7E700BF44
:1050C000E5E700B54E48007838B34C480178002039
:1050D000FFF727FF002000E0401CB0F5FA7FFBD36C
:1050E000002000E0401CB0F5FA7FFBD34548017872
:1050F0000120FFF727FF002000E0401CB0F5FA7FF9
:10510000FBD3404801780020FFF71CFF002000E09F
:10511000401CB0F5FA7FFBD300BF00BD00B5384896
:10512000007838B3354801780120FFF7FAFE0020F7
:1051300000E0401CB0F5FA7FFBD3002000E0401CEB
:10514000B0F5FA7FFBD32F4801780120FFF7FAFE74
:10515000002000E0401CB0F5FA7FFBD3294801781D
:105160000020FFF7EFFE002000E0401CB0F5FA7FC2
:10517000FBD300BF00BD30B50446082520480078A9
:10518000002846D02BE01F4801780020FFF7DAFE08
:10519000002000E0401CB0F5FA7FFBD304F0800053
:1051A00016490978FFF7BDFE002000E0401CB0F56D
:1051B000FA7FFBD36006040E002000E0401CB0F52F
:1051C000FA7FFBD30F4801780120FFF7BBFE0020D8
:1051D00000E0401CB0F5FA7FFBD3681EC5B2002D7D
:1051E000D1DC084801780020FFF7ACFE00200CE07D
:1051F000A00F002056010020B00F00205901002010
:105200005A01002058010020401CB0F5FA7FFBD362
:1052100000BF30BD7C497D4A127831F81210502908
:105220000DDA7A49097801EB8101794A02EB011123
:10523000754A764B1B7832F81320885412E000220E
:105240007149724B1B7821F813207049097801EBE2
:1052500081016F4A02EB01116B4A6C4B1B7832F8EB
:10526000132088546849694A127831F81210491C91
:10527000654A664B1B7822F813106649634A127818
:1052800031F81210491C8AB26249604B1B7821F830
:105290001320704770B5082500245F480078002867
:1052A0003BD05E480078FFF700FE22E06006040E67
:1052B0005B4801780020FFF745FE002000E0401C1D
:1052C000B0F5FA7FFBD3002000E0401CB0F5FA7F78
:1052D000FBD3534801780120FFF734FE002000E0A3
:1052E000401CB0F5FA7FFBD3FFF709FE0443681EAC
:1052F000C5B2002DDADC4A4801780020FFF722FE13
:10530000002000E0401CB0F5FA7FFBD34348007852
:10531000FFF7E0FD2046FFF77DFF70BD3D48E0B39D
:1053200040483A4A127830F8120050280DDA3748CF
:10533000007800EB8000364A02EB0010394A334B0C
:105340001B7832F81320815C12E0002235482F4B85
:105350001B7820F813202D48007800EB80002C4AA1
:1053600002EB00122F48294B1B7830F81300115C18
:105370002C48264A127830F81200401C294A234B48
:105380001B7822F813002348204A127830F81200C4
:10539000401E204A1D4B1B7800E003E022F813005A
:1053A000084670470020FCE730B5C1B019481749DE
:1053B000097830F81100C01C85B2164813490978E5
:1053C00030F8110008B941B030BDFB208DF8000065
:1053D0000E4800788DF801000E480C49097810F845
:1053E00011008DF80200032405E0FFF797FF0DF888
:1053F0000400601CC4B2AC42F7DB29466846FDF7E6
:1054000028F900BFDFE700006001002057010020FD
:10541000C00F0020640100205A0100205901002023
:10542000580100205C010020F0B503460D461646E9
:10543000002729460A2E03D0002008702846F0BD18
:1054400033B9302001F8010B002008702846F6E738
:10545000002B03DA2D2001F8010B5B4242F210729F
:105460000DE093FBF2F404B937B104F1300001F818
:10547000010B04FB123301270A2092FBF0F2002AF1
:10548000EFDC002008702846D9E70FB470B586B06D
:1054900006460CA8019073E00B9800785C281CD19C
:1054A0000B98401C0B9000786E2809D072280FD101
:1054B0000D213046FCF7D2FE0B98401C0B900BE000
:1054C0000A213046FCF7CAFE0B98401C0B9003E003
:1054D0000B98401C0B9000BF4BE00B9800782528E0
:1054E00040D10B98401C0B900078642818D073288A
:1054F00033D1019810C801900BE021783046FCF7B9
:10550000ADFE00BF80213046FCF716FF0028F9D021
:10551000641C20780028F0D10B98401C0B9020E0F0
:10552000019820C801900A2202A92846FFF77CFFB3
:1055300002AC0BE021783046FCF790FE00BF8021E2
:105540003046FCF7F9FE0028F9D0641C20780028CA
:10555000F0D10B98401C0B9003E00B98401C0B9073
:1055600000BF06E00B9810F8011B0B903046FCF7CB
:1055700075FE00BF80213046FCF7DEFE0028F9D022
:105580000B980078002887D106B070BC5DF814FB3A
:1055900010B5014606E0482200BF131EA2F1010427
:1055A000E2B2FAD10B1EA1F10104A1B2F3D110BDF8
:1055B00030B50446254603E04FF47A70FFF7E8FF64
:1055C000281EA5F101018DB2F6D130BD08B5272006
:1055D0008DF8000000208DF8010004208DF80200F5
:1055E00001208DF803006846FAF7B3FE0D208DF810
:1055F000000000208DF8010003208DF8020001203A
:105600008DF803006846FAF7A4FE08BD00B58BB01C
:1056100001210846FBF767FDFE48FBF72BF9FE4822
:105620000090FE480190002002904FF480600390AB
:1056300000200490802005900020069007902020F4
:1056400008900002099000200A906946F148FBF793
:10565000B3F901220221EF48FBF7E5F90122082105
:10566000EC48FBF7E0F901224021ED48FCF7BAFDD8
:105670000121E848FBF7CBF90BB000BD00B585B0C0
:1056800001218804FBF749FD01210820FBF738FDC3
:105690004FF48060ADF8100018208DF8130003203F
:1056A0008DF8120004A9DF48FBF76EFA4FF4006092
:1056B000ADF8100004208DF8130004A9D948FBF7B9
:1056C00063FA4FF4E13000900020ADF80400ADF82B
:1056D0000600ADF80800ADF80C000C20ADF80A008B
:1056E0006946CD48001FFCF7C0FC012240F225515D
:1056F000C948001FFCF751FD012240F22441C64871
:10570000001FFCF74AFD0121C348001FFCF739FDCB
:10571000FFF77CFFFFF75AFF05B000BD10B540F260
:105720002441BD48001FFCF71DFE002838D0BC48AE
:105730000488001D04880021B648FBF768F9B548C5
:10574000FBF77CF9C0F5806084B22246B349B648C5
:10575000FFF7D0FA4FF47060FBF788F94FF48060E0
:10576000AC49303948630121AA48FBF750F9AB48EE
:10577000B0F8000420F4004000F50040A749A1F86B
:105780000004AAA1A54800F035FC08B1012000E002
:105790000020A949087040F22441A148FCF70CFE02
:1057A00010BD10B54FF40070FBF77FF94FF40060A7
:1057B000FBF77BF900219748FBF729F94FF480604C
:1057C00094493039486301219248FBF720F910BD14
:1057D00008B501210820FBF793FC4FF48070ADF869
:1057E000000010208DF8030003208DF802006946A8
:1057F0008C48FBF7C9F901210820FBF781FC4FF425
:105800000070ADF8000069468648FBF7BDF9FFF768
:1058100035FF08BD00B54FF40070824914310860AF
:105820004FF4FA70FFF7C4FE4FF400707D49103159
:10583000086000BD2DE9F04106460C4615461F469E
:105840007648B0F800046FF30E007449A1F8000424
:1058500032467AA17048001FFFF717FE1CB915B930
:105860000120BDE8F081B8B2FFF7A2FE00206B492D
:10587000B1F80014C1F30E01684A5054114671A0EA
:1058800000F0C8FDB4B1ADB12146644800F0B2FBF0
:1058900008B1012000E0002040B929465F4800F02F
:1058A000A9FB08B1012000E0002008B10120D8E7E1
:1058B0000020D6E744B12146584800F09BFB08B1D0
:1058C0000120CEE70020CCE72946544800F092FBA7
:1058D00008B10120C5E70020C3E710B500244FF44C
:1058E00000705049103108604FF47A70FFF760FE85
:1058F0000CE04FF4FA73002253A154A0FFF79AFF73
:1059000000B110BDFFF786FF601CC4B20A2CF0DBAB
:1059100002204F49087000BFF3E770B5054625B176
:10592000012D0BD0022D1BD111E040F6C41349A26A
:1059300045A14BA0FFF77EFF044615E040F6C413D7
:1059400044A241A149A0FFF775FF04460CE040F6D0
:10595000C41340A23CA148A0FFF76CFF044603E03B
:1059600003203B49087070BD00BF01203849087012
:10597000044600BFF7E770B59EB004460D46012609
:105980002B4622463FA1684600F054FD41F2883381
:1059900000222DA16846FFF74DFF064601202C4945
:1059A000087006461EB070BDF0B59FB004460D46A7
:1059B000164601272B46224637A101A8009600F083
:1059C00039FD4FF47A7300221FA101A8FFF732FFBF
:1059D000074601201E49087007461FB0F0BD30B5CC
:1059E00085B0044601250CB1012000E000200246EC
:1059F0002FA1684600F01EFD4FF4FA73002212A199
:105A00006846FFF717FF0546012011490870054653
:105A100005B030BD30000240044800406010002056
:105A200000380140000C014068050020434C4F53F2
:105A300045440D0A000000006901002025730D0A8D
:105A400000000000257300004F4B0000415400008F
:105A5000680100206E6F206368616E67650000005A
:105A600041542B43574D4F44453D310041542B4346
:105A7000574D4F44453D320041542B43574D4F4401
:105A8000453D330041542B43574A41503D22257335
:105A9000222C22257322000041542B43575341509E
:105AA0003D222573222C222573222C312C256400C3
:105AB00041542B4349504D55583D2564000000008A
:105AC0002DE9F041B8B006460F4614461D46642144
:105AD0001FA800F084FA4FF0010816B1012E10D172
