:020000040800F2
:10000000681A002045010008FD230008FF230008AE
:1000100003240008072400080B2400080000000047
:100020000000000000000000000000000F24000895
:100030001124000800000000132400081524000803
:100040005F0100085F0100085F0100085F01000810
:100050005F0100085F0100085F0100085F01000800
:100060005F0100085F0100085F0100085F010008F0
:100070005F010008CF60000823270008452700081B
:10008000294900085F0100085F0100085F010008BE
:100090005F0100085F0100085F0100085F010008C0
:1000A0005F0100085F0100085F0100085F010008B0
:1000B0006D4E00082B4F0008C34F00085F01000879
:1000C0005F0100085F0100085F0100085F01000890
:1000D0005F010008BD260008C94600084960000805
:1000E0005F0100085F0100085F0100085F01000870
:1000F0005F0100085F0100085F0100085F01000860
:100100005F0100085F0100085B5000085F01000804
:10011000FB4700085F010008395500085F0100082F
:100120005F0100085F010008594900085F010008ED
:10013000DFF80CD006F0A8FD00480047ED230008CA
:10014000681A00200648804706480047FEE7FEE799
:10015000FEE7FEE7FEE7FEE7FEE7FEE7FEE7FEE777
:1001600047020008310100080CB500200190009002
:100170006C48006840F480306A49086000BF6948F4
:10018000006800F4003000900198401C0190009835
:1001900018B90198B0F5A06FF1D16248006800F479
:1001A000003010B10120009001E000200090009884
:1001B000012843D15C48006840F010005A490860AB
:1001C0000846006820F0030008600846006840F018
:1001D0000200086053484068524948600846406839
:1001E00048600846406840F48060486008464068BF
:1001F00020F47C1048600846406840F4E8104860ED
:100200000846006840F08070086000BF45480068FC
:1002100000F000700028F9D04248406820F0030048
:10022000404948600846406840F00200486000BF0E
:100230003C48406800F00C000828F9D10CBD10B50E
:10024000FFF792FF10BD10B53648006840F001007E
:1002500034490860084640683449084031494860DC
:1002600008460068324908402E4908600846006880
:1002700020F4802008600846406820F4FE004860B2
:100280004FF41F008860FFF7DAFF4FF00060294944
:10029000086010BD10B5002100200022214B5B68D2
:1002A00003F00C0121B1042906D0082928D107E068
:1002B000214B224C236027E01F4B204C236023E07E
:1002C000184B5B6803F47010164B5B6803F48032C4
:1002D000022303EB904022B9194B4343174C236090
:1002E0000DE0104B5B6803F4003323B1144B434320
:1002F000124C236003E0104B4343104C236003E097
:100300000D4B0E4C236000BF00BF064B5B68C3F370
:1003100003130C4CE15C094B1B68CB40074C23607A
:1003200010BD000000100240002002400000FFF855
:10033000FFFFF6FE08ED00E000127A00000000204A
:1003400000093D000400002031490143314A116099
:10035000704770B5002100230F22C47804B32D4CE0
:10036000246804F4E064C4F5E064210AC1F10403E4
:10037000CA40447804FA03F1847814402143090107
:10038000254C0678A155047804F01F050124AC40E3
:1003900005786D11AD0005F1E025C5F8004109E0D3
:1003A000047804F01F050124AC401C4D067876113A
:1003B00045F8264070BD1A4A0A400243154B1B1FE0
:1003C0001A60704739B1134A121D12680243114B6B
:1003D0001B1D1A6006E00F4A121D126882430D4B66
:1003E0001B1D1A607047042808D14FF0E0210969ED
:1003F00041F004014FF0E022116107E04FF0E021ED
:10040000096921F004014FF0E022116170470000FA
:100410000000FA050CED00E000E400E080E100E0FF
:1004200080FFFF1F10B50446FA48844208D101211D
:10043000401500F07FFE0021601500F07BFE17E004
:10044000F548844208D10121001500F073FE002117
:10045000201500F06FFE0BE0F048844208D1012126
:10046000C80300F067FE00214FF4004000F062FE78
:1004700010BD30B50246002000235068E84C2040F3
:100480000D790C6844EA0524204350609068E54CDF
:100490002040D1E902542C434D7944EA45042043DD
:1004A0009060D06A20F470000C7C641EE4B2234398
:1004B00040EA0350D06230BD0021016001714171FA
:1004C0008160C16001210174704721B1826842F0EE
:1004D0000102826003E0826822F0010282607047BC
:1004E00021B1826842F48072826003E0826822F463
:1004F00080728260704710B50023CBB21AB1446895
:100500001C43446002E044689C43446010BD816821
:1005100041F0080181607047014600208A6802F0BE
:1005200008020AB1012000E000207047816841F014
:10053000040181607047014600208A6802F00402CD
:100540000AB1012000E00020704721B1826842F426
:10055000A002826003E0826822F4A00282607047F9
:10056000014600208A6802F480020AB1012000E0FE
:100570000020704710B50A4600210023416821F48D
:100580006041531E41EA4331416010BD21B14268D0
:1005900042F40062426003E0426822F4006242607A
:1005A0007047F0B504460D4600200021092D11DDED
:1005B000E068A5F10A0606EB4607072606FA07F1EA
:1005C0008843A5F10A0606EB460603FA06F108433E
:1005D000E0600CE0206905EB4507072606FA07F105
:1005E000884305EB450603FA06F108432061072A14
:1005F0000FDA606B561E06EB86071F2606FA07F118
:100600008843561E06EB860605FA06F1084360632A
:1006100022E00D2A0FDA206BD61F06EB86071F2675
:1006200006FA07F18843D61F06EB860605FA06F19F
:100630000843206310E0E06AA2F10D0606EB86078E
:100640001F2606FA07F18843A2F10D0606EB86067F
:1006500005FA06F10843E062F0BD21B1826842F478
:100660008012826003E0826822F480128260704708
:100670000146C86C80B2704766484C3000687047CD
:1006800021B1426842F48062426003E0426822F491
:1006900080624260704721B1426842F480524260F9
:1006A00003E0426822F48052426070470A4600210B
:1006B000816821F4E04111438160704721B1826873
:1006C00042F40042826003E0826822F400428260C9
:1006D000704721B1826842F40212826003E08268AE
:1006E00022F4021282607047014600208A6802F4F8
:1006F00000120AB1012000E000207047F0B5044666
:100700001546002000220026092911DDE068A1F12C
:100710000A0707EB470C072707FA0CF29043A1F1F1
:100720000A0707EB470703FA07F21043E0600CE003
:10073000206901EB410C072707FA0CF2904301EB0B
:10074000410703FA07F210432061A06BC0F3015682
:10075000EF1C06F1010CA7EB0C0707EB870C1F271A
:1007600007FA0CF29043EF1C06F1010CA7EB0C0703
:1007700007EB870701FA07F21043A063F0BD10B53D
:100780000A4600210023816B21F44011531E41EAE7
:100790000351816310BD08B5002300930090009BB6
:1007A0000B440093009B1A6008BD08B50246002068
:1007B0000090009201F12800009B184400900098DE
:1007C000006880B208BD0A4600214168164B1940F6
:1007D0001143416070474162826270470A460021BE
:1007E000416821F01F0111434160704740B1094940
:1007F0000831096841F40001064A0832116007E037
:1008000004490831096821F40001024A08321160E4
:10081000704700000024014000280140003C0140D6
:10082000FFFEF0FFFDF7F1FFFFFD3FFF0246002056
:1008300013680B400BB1012000E000207047CA4351
:100840000260704770B502460020002300240B129E
:100850005568CEB205EA060415681D4015B10CB105
:10086000012000E0002070BD00220A12D343036083
:100870007047000001684FF6FE72114001600021D0
:10088000016041608160C1608D49884208D18C4916
:100890000839496841F00F01894A083A51608AE0F5
:1008A00087491431884208D185490839496841F09F
:1008B000F001834A083A51607DE08149283188423D
:1008C00008D17F490839496841F470617C4A083A87
:1008D000516070E07A493C31884208D17849083942
:1008E000496841F47041764A083A516063E07449BE
:1008F0005031884208D172490839496841F4702161
:100900006F4A083A516056E06D496431884208D117
:100910006B490839496841F47001694A083A5160E5
:1009200049E067497831884208D165490839496802
:1009300041F07061624A083A51603CE06149884286
:1009400006D1011F096841F00F01021F116032E05A
:100950005C491431884208D15A49091F096841F09D
:10096000F001584A121F116025E05649283188428B
:1009700008D15449091F096841F47061514A121F96
:10098000116018E04F493C31884208D14D49091F98
:10099000096841F470414B4A121F11600BE049494C
:1009A0005031884207D14749091F096841F4702135
:1009B000444A121F1160704710B50022026847F6C2
:1009C000F0739A430C6A8B6823430C6923434C6988
:1009D00023438C692343CC6923434C6A23438C6AA9
:1009E00023431A430260CB6843600B6883604B6803
:1009F000C36010BD0021016041608160C160016180
:100A000041618161C161016241628162704721B1CE
:100A1000026842F00102026004E002684FF6FE73D1
:100A20001A40026070471AB103680B43036002E08A
:100A300003688B4303607047416070470146486814
:100A400080B2704701460020002201F080531BB1A4
:100A50001C4B083B1A6802E0194B083B1A6802EA73
:100A600001030BB1012000E00020704700F080512D
:100A700019B11449091F086002E01149083948609A
:100A8000704701460020002201F080531BB10D4B3E
:100A9000083B1A6802E00A4B083B1A6802EA0103A5
:100AA0000BB1012000E00020704700F0805119B127
:100AB0000449091F086002E001490839486070478D
:100AC000080002400804024010B50446CC488442A5
:100AD00008D10121042000F02DFB0021042000F0AA
:100AE00029FB46E0C748844208D10121082000F0D4
:100AF00021FB0021082000F01DFB3AE0C24884429F
:100B000008D10121102000F015FB0021102000F079
:100B100011FB2EE0BD48844208D10121202000F0C5
:100B200009FB0021202000F005FB22E0B8488442A8
:100B300008D10121402000F0FDFA0021402000F002
:100B4000F9FA16E0B348844208D10121802000F070
:100B5000F1FA0021802000F0EDFA0AE0AE4884426C
:100B600007D10121801500F0E5FA0021A01500F061
:100B7000E1FA10BD10B50121084600F0DBFA0021B2
:100B8000012000F0D7FA10BD2DE9F0410246002502
:100B90000026002000230024002791F803C00CF059
:100BA0000F0591F803C00CF0100CBCF1000F03D03E
:100BB00091F802C04CEA050591F800C0BCF1000FA5
:100BC00031D0146800202BE04FF0010C0CFA00F338
:100BD000B1F800C00CEA03069E4220D183004FF01A
:100BE0000F0C0CFA03F7BC4305FA03FC4CEA0404AF
:100BF00091F803C0BCF1280F06D14FF0010C0CFA9C
:100C000000FCC2F814C00AE091F803C0BCF1480F20
:100C100005D14FF0010C0CFA00FCC2F810C0401CCA
:100C20000828D1D31460B1F800C0BCF1FF0F34DD47
:100C3000546800202EE000F1080C4FF0010808FA7B
:100C40000CF3B1F800C00CEA03069E4221D18300E8
:100C50004FF00F0C0CFA03F7BC4305FA03FC4CEA07
:100C6000040491F803C0BCF1280F05D100F1080C71
:100C700008FA0CF8C2F8148091F803C0BCF1480FD0
:100C800007D100F1080C4FF0010808FA0CF8C2F87F
:100C90001080401C0828CED35460BDE8F0814FF688
:100CA000FF710180022181700421C17070470246EA
:100CB000002093680B400BB1012000E0002070473A
:100CC0000146886880B2704702460020D3680B4016
:100CD0000BB1012000E0002070470146C86880B2D7
:100CE000704701617047416170470AB1016100E0DE
:100CF00041617047C16070474FF480320A4382619E
:100D00008161826182698269704702460020434B9B
:100D100018684FF68073184040EA021008433F4BB2
:100D2000186070473E49C8617047F0B50A46002315
:100D300000240021002500F00046B6F1004F02D14A
:100D4000364EF16901E0354E7168C0F3034583B258
:100D500000F44016B6F5401F08D121F070612F4E07
:100D6000766826F070662D4F7E6012E000F48016E3
:100D7000B6F5801F06D1032606FA05F4A14341F01B
:100D8000706106E0460D360103FA06F6B14341F004
:100D9000706122B1460D360103FA06F6314300F0C8
:100DA0000046B6F1004F02D11C4EF16101E01B4E2E
:100DB0007160F0BD30B500228B071C0F0F2303FAC2
:100DC00004F2164B08338C1053F824309343134C21
:100DD00008348D1044F8253023468C1053F8243005
:100DE0008C07240F00FA04F423430C4C08348D10B4
:100DF00044F8253030BD0A49DC31086070470000F6
:100E000000080140000C01400010014000140140A6
:100E100000180140001C014000200140000001407A
:100E200000002042DF48006840F00100DD49086012
:100E300008464068DC490840DA49486008460068CE
:100E4000DA490840D74908600846006820F4802045
:100E500008600846406820F4FE0048604FF41F0018
:100E600088607047CF49096821F48031CD4A11600C
:100E70001146096821F480211160B0F5803F03D04C
:100E8000B0F5802F0ED106E0C649096841F48031E3
:100E9000C44A116007E0C349096841F4A021C14A6E
:100EA000116000E000BF00BF704710B5014600228E
:100EB000002300204A11012A02D1BA4C236806E01F
:100EC000022A02D1B74C236A01E0B64C636A01F0F2
:100ED0001F02012494401C400CB1012000E00020BE
:100EE00010BD38B5002000900024002500BF31203F
:100EF000FFF7DBFF05460098401C00900098B0F516
:100F0000A06F01D0002DF2D03120FFF7CEFF08B145
:100F1000012400E00024204638BD01460020A14AFB
:100F2000106820F0F80040EAC10010607047A04946
:100F300008607047024600209A4B586820F47C10E5
:100F400042EA01031843974B586070479849086676
:100F5000704701460020934A506820F00300084380
:100F6000506070478F48406800F00C0070470146A1
:100F700000208C4A506820F0F00008435060704711
:100F800001460020874A506820F4E0600843506022
:100F9000704701460020834A506820F4605040EAC0
:100FA000C1005060704729B17E4A527A02437D4B9E
:100FB0005A7204E07B4A527A82437A4B5A727047E3
:100FC0007B49D8310860704701460020754A506857
:100FD00020F440400843506070470021714A20329D
:100FE0001170704A82F82010012802D004280AD11A
:100FF00004E001216B4A2032117005E00521694AA5
:101000002032117000E000BF00BF704769490860DE
:1010100070476449096A0143624A11627047654931
:1010200044390860704730B50021002200240023B5
:101030005C4D6D6805F00C0121B1042905D008292B
:1010400023D105E05C4D056022E05B4D05601FE0AB
:10105000544D6D6805F47012524D6D6805F480347E
:10106000022505EB92421CB9544D554305600BE037
:101070004C4D6D6805F400351DB1504D554305606C
:1010800002E04D4D5543056002E04B4D056000BF49
:1010900000BF444D6D6805F0F0010909484D6B5CD7
:1010A0000568DD4045603F4D6D6805F4E061090A63
:1010B000434D6B5C4568DD4085603A4D6D6805F4D5
:1010C0006051C90A3E4D6B5C4568DD40C560354DD9
:1010D0006D6805F44041890B3A4D6B5CC568B5FB02
:1010E000F3F5056130BD29B12E4A526902432D4BFB
:1010F0005A6104E02B4A526982432A4B5A61704775
:1011000029B1284A92690243264B9A6104E0254A94
:1011100092698243234B9A61704729B1214AD2696F
:101120000243204BDA6104E01E4AD26982431D4B20
:10113000DA61704729B11B4AD2680243194BDA6061
:1011400004E0184AD2688243164BDA60704729B12E
:10115000144A12690243134B1A6104E0114A1269DE
:101160008243104B1A61704712494039086070473A
:101170000F49C86470470B49C87170470948406AF5
:1011800040F0807007494862704701460020054AD8
:1011900092680A400AB1012000E00020704701492E
:1011A00088727047001002400000FFF8FFFFF6FE53
:1011B000000042428004424200127A0000093D00D1
:1011C000140000202400002010B50446FE4884428C
:1011D00008D10121C014FFF7ADFF0021E014FFF793
:1011E000A9FFC4E0B4F1804F08D101210846FFF700
:1011F000AEFF00210120FFF7AAFFB8E0F3488442C8
:1012000008D101210220FFF7A2FF00210220FFF7F1
:101210009EFFACE0EE48844208D101210420FFF794
:1012200096FF00210420FFF792FFA0E0E9488442E6
:1012300008D101210820FFF78AFF00210820FFF7CD
:1012400086FF94E0E448844208D101211020FFF792
:101250007EFF00211020FFF77AFF88E0DF488442FC
:1012600008D101212020FFF772FF00212020FFF785
:101270006EFF7CE0DA48844208D101214014FFF778
:1012800059FF00216014FFF755FF70E0D5488442F4
:1012900009D10121C804FFF74DFF00214FF40020C0
:1012A000FFF748FF63E0D048844209D101210805D7
:1012B000FFF740FF00214FF48010FFF73BFF56E09F
:1012C000CA48844209D101214805FFF733FF0021B4
:1012D0004FF40010FFF72EFF49E0C548844208D1C3
:1012E00001214020FFF733FF00214020FFF72FFFAF
:1012F0003DE0C048844208D101218020FFF727FF4C
:1013000000218020FFF723FF31E0BB48844208D151
:1013100001218015FFF71BFF0021A015FFF717FF24
:1013200025E0B648844209D101210804FFF702FFF5
:1013300000214FF48030FFF7FDFE18E0B0488442F2
:1013400009D101214804FFF7F5FE00214FF40030D8
:10135000FFF7F0FE0BE0AB48844208D1012188047E
:10136000FFF7E8FE00214FF48020FFF7E3FE10BDF9
:1013700000220288944B98420ED0994B98420BD091
:10138000B0F1804F08D0914B984205D0904B9842D5
:1013900002D0904B984204D14FF68F731A404B887D
:1013A0001A438D4B984207D08C4B984204D04FF68D
:1013B000FF431A40CB881A4302808B8883850B88B1
:1013C0000385814B98420BD0854B984208D08B4BBC
:1013D000984205D08A4B984202D08A4B984201D15C
:1013E0000B7A038601238382704770B500240022A4
:1013F0000023058C4FF6FE7635400584028C8388E9
:10140000048B4FF68F752C40B51E2C400D882C4355
:10141000751E2A400D892A434D882A436A4DA842E9
:101420000BD06F4DA84208D0744DA84205D0744D22
:10143000A84202D0734DA84213D14FF6F7752A4047
:101440004D892A434FF6FB752A408D882A434FF673
:10145000FF652B404FF6FF552B408D892B43CD89DF
:101460002B4383800483CD888586028470BD70B54C
:10147000002400220023058C4FF6EF7635400584CA
:10148000028C8388048B48F6FF752C404FF6FF458D
:101490002C400D884FF6FF7606EA05252C434FF6C3
:1014A000DF752A400D8906EA05152A434D8806EAAC
:1014B00005152A43444DA84202D0494DA8421DD1EA
:1014C0004FF67F752A404D894FF6FF7606EA0515DF
:1014D0002A434FF6BF752A408D8806EA05152A4330
:1014E0004FF6FF352B404FF2FF752B408D8906EAF2
:1014F00085052B43CD8906EA85052B43838004832C
:10150000CD880587028470BD70B5002400220023B9
:10151000058C4FF6FF6635400584028C8388848BEA
:101520004FF68F752C404FF6FC752C400D882C43E0
:101530004FF6FF552A400D894FF6FF7606EA05253E
:101540002A434D8806EA05252A431F4DA84202D0AA
:10155000234DA8421DD14FF2FF752A404D894FF609
:10156000FF7606EA05252A434FF6FF352A408D8887
:1015700006EA05252A434EF6FF752B404DF6FF750A
:101580002B408D8906EA05152B43CD8906EA051502
:101590002B4383808483CD888587028470BD70B59A
:1015A000002200230024058C4EF6FF76354005848A
:1015B000038C8488828B48F6FF752A404FF6FF45DE
:1015C0002A400D8820E00000002C0140000400406B
:1015D00000080040000C00400010004000140040D3
:1015E00000340140004C01400050014000540140D3
:1015F00000180040001C0040002000400040014056
:1016000000440140004801404FF6FF7606EA0525F8
:101610002A434DF6FF752B400D8906EA05352B430D
:101620004D8806EA05352B43FA4DA84202D0FA4D03
:10163000A84208D14BF6FF752C408D894FF6FF76F6
:1016400006EA85152C4384808283CD88A0F840501B
:10165000038470BD828B4FF2FF331A408283828BEA
:101660004FF6FF7303EA01231A4382837047F0B5F4
:101670000C461546002200210026078C4EF6FF7C02
:1016800007EA0C070784828B018C4FF6FF7707EA85
:10169000043640F6FF473A404FF6FF7707EA052742
:1016A0003A434FF6FF7707EA03373A43D94FB84238
:1016B0000ED0D94FB8420BD0B0F1804F08D0D74FE1
:1016C000B84205D0D64FB84202D0D64FB84206D164
:1016D0004DF6FF77394046F48057394305E047F629
:1016E000FF57394044F48057394382830184F0BD69
:1016F000828B4FF6F3731A408283828B0A43828374
:101700007047F0B50C461546002200210026078CD4
:101710004FF6FF6C07EA0C070784828B018C4FF6AB
:10172000FF7707EA04264FF60C773A404FF6FF772B
:1017300007EA03172F433A43B64FB8420ED0B64FCD
:10174000B8420BD0B0F1804F08D0B44FB84205D0AA
:10175000B34FB84202D0B34FB84206D14FF6FF574D
:10176000394046F48077394305E04FF2FF5739405E
:1017700044F48077394382830184F0BD028B4FF2B9
:10178000FF331A400283028B4FF6FF7303EA0123F3
:101790001A4302837047F0B50C461546002200211B
:1017A0000026078C4FF6EF7C07EA0C070784028BB4
:1017B000018C4FF6FF7707EA041640F6FF473A40E0
:1017C0004FF6FF7707EA03373A434FF6FF7707EA0A
:1017D00005273A438F4FB8420ED08F4FB8420BD0F7
:1017E000B0F1804F08D08D4FB84205D08C4FB84231
:1017F00002D08C4FB84206D14FF6DF77394046F021
:101800001007394305E04FF65F77394044F0100781
:10181000394302830184F0BD028B4FF6F3731A4003
:101820000283028B0A4302837047F0B50C461546CB
:1018300000220021068C4FF6FE773E400684028B84
:10184000018C4FF60C7632407E1C06EA03162E43BE
:101850003243704EB0420ED06F4EB0420BD0B0F15A
:10186000804F08D06D4EB04205D06D4EB04202D0D0
:101870006C4EB04206D14FF6FD76314044F0010681
:10188000314305E04FF6F576314044F0010631432F
:1018900002830184F0BD70B505460C465D48854263
:1018A0000ED05D4885420BD0B5F1804F08D05B4823
:1018B000854205D05A48854202D05A48854200D117
:1018C00000E000BF208850B92389A288618828469B
:1018D000FFF7ABFFE1882846FFF79EFF25E0208851
:1018E00004280AD12389A28861882846FFF753FF7C
:1018F000E1882846FFF742FF17E0208808280AD130
:101900002389A28861882846FFF7FBFEE1882846E4
:10191000FFF7EEFE09E02389A28861882846FFF7D9
:10192000A6FEE1882846FFF795FE70BD2DE9F0413F
:1019300005460C4600260127608808B9022600E00B
:101940000026A088012801D1022700E00127208875
:10195000A0B92389A28861882846FFF766FFE1883D
:101960002846FFF759FF23893A4631462846FFF7B4
:1019700012FFE1882846FFF701FF13E02389A288C0
:1019800061882846FFF707FFE1882846FFF7F6FE43
:1019900023893A4631462846FFF747FFE188284623
:1019A000FFF73AFFBDE8F0810A884B881A438B881D
:1019B0001A43CB881A430B891A434B891A438B89E4
:1019C0001A43A0F8442070474FF6FF718180002130
:1019D0000180C180418001727047002101804180F7
:1019E0008180C180018141818181C1817047002155
:1019F00001804180012181800021C18001817047E7
:101A00000021018041808180C180018141818181EB
:101A100070470000002C01400034014000040040E9
:101A200000080040000C004021B1028842F0010291
:101A3000028004E002884FF6FE731A40028070476D
:101A400031B1B0F8442042F40042A0F8442005E04F
:101A5000B0F84420C2F30E02A0F8442070471AB137
:101A600083890B43838102E083898B4383817047A1
:101A70008182704741EA0203A0F8483070471AB1EA
:101A800083890B43838102E083898B438381704781
:101A900001894FF6F8721140018170470A46002112
:101AA00001894FF68F73194011430181704730B59A
:101AB00004460D4629462046FFF7F0FF208940F0F6
:101AC0000700208130BD2DE9F04104460D46164641
:101AD0001F46602D06D13B46012231462046FFF7C6
:101AE0005AFE05E03B46012231462046FFF79DFEA7
:101AF00029462046FFF7D2FF208940F007002081C9
:101B0000BDE8F08130B50C4600210189C9B24FF61D
:101B1000FF7505EA0325154325432943018130BD9F
:101B20002DE9F04105460E461746984600244346E7
:101B30003A4631462846FFF7E5FF2C894FF6F87004
:101B4000044044F007044FF68F70044044F07004E2
:101B50002C81BDE8F081F0B504460D4616461F46BF
:101B60003B46324629462046FFF7CCFF208940F409
:101B700080402081F0BD0185828270470A460021A5
:101B800001884FF68F731940114301807047F0B5FB
:101B90000C4615461E460021002200230189028BB7
:101BA000038C4FF6F877394021434FF6FC473A4013
:101BB00040F201173A434FF6DD773B404FF6FF778F
:101BC00007EA06172F433B43018102830384F0BDDC
:101BD0000A460021018B4FF68F7319401143018390
:101BE00070470A460021018B48F6FF7319404FF6F3
:101BF000FF7303EA02231943018370470A46002159
:101C0000818B4FF68F7319401143818370470A46C9
:101C10000021818B48F6FF7319404FF6FF7303EAEA
:101C2000022319438183704721B1028842F0800268
:101C3000028004E002884FF67F731A4002807047EA
:101C400021B1828842F00402828004E082884FF64B
:101C5000FB731A408280704721B1828842F00802EB
:101C6000828004E082884FF6F7731A4082807047C2
:101C700021B1828842F00102828004E082884FF61E
:101C8000FE731A40828070470A460021018B4FF68E
:101C9000F77319401143018370470A460021018BF5
:101CA0004FF2FF7319404FF6FF7303EA0223194303
:101CB000018370470A460021818B4FF6F773194064
:101CC0001143818370470A460021818B4FF2FF73D5
:101CD00019404FF6FF7303EA0223194381837047CB
:101CE0000A460021018B4FF6FB7319401143018313
:101CF00070470A460021018B4FF6FF3319404FF61B
:101D0000FF7303EA02231943018370470A46002147
:101D1000818B4FF6FB7319401143818370470A464C
:101D20000021818B4FF6FF3319404FF6FF7303EA12
:101D300002231943818370470A460021018B4FF625
:101D40007F7319401143018370470A460021018BBC
:101D5000C1F30E014FF6FF7303EA02231943018317
:101D600070470A460021818B4FF67F73194011435B
:101D7000818370470A460021818BC1F30E014FF623
:101D8000FF7303EA02231943818370470A46002147
:101D9000018C4FF6FD7319401143018470470A46C8
:101DA0000021018C4FF6F7731940114301847047ED
:101DB0000A460021018C4FF6DF7319404FF6FF737E
:101DC00003EA02131943018470470A460021018C7B
:101DD0004FF67F7319404FF6FF7303EA021319435E
:101DE000018470470A460021018C4FF6FF531940C9
:101DF0004FF6FF7303EA02231943018470470A4632
:101E00000021018C4FF2FF7319404FF6FF7303EA74
:101E100002231943018470470A460021018C4DF6C4
:101E2000FF7319404FF6FF7303EA0233194301842D
:101E3000704730B5002301248C40A3B2048C9C432E
:101E40000484048C02FA01F5ADB22C43048430BD45
:101E500030B5002304248C40A3B2048C9C4304843A
:101E6000048C02FA01F5ADB22C43048430BD70B588
:101E70000346002000241846183001258D40ACB2DE
:101E80001D8CA5431D8409B1082909D100EB61000F
:101E9000056825F0700505600568154305600EE0CE
:101EA0000D1FC5F34E052844056825F4E04505607F
:101EB00005684FF6FF7606EA02263543056070BDD9
:101EC00021B1028842F00202028004E002884FF64B
:101ED000FD731A400280704721B1028842F004026B
:101EE000028004E002884FF6FB731A4002807047BC
:101EF00021B1828842F08002828004E082884FF61D
:101F00007F731A408280704702884FF6F7731A4039
:101F1000028002880A430280704782884FF68F73DE
:101F20001A40828082880A438280704702894FF675
:101F3000F8731A40028102890A43028170470289BC
:101F40004FF67F731A40028102890A43028170476B
:101F5000818470478185704781867047018770470B
:101F600081877047A0F84010704702884FF6FF4302
:101F70001A40028002880A43028070470146888E18
:101F800070470146088F70470146888F70470146A9
:101F9000B1F8400070470146888C70470146088DB3
:101FA000704702460020138A0B400BB1012000E06D
:101FB00000207047CA430282704730B502460020B5
:101FC00000230024158A05EA0103958905EA010426
:101FD00013B10CB1012000E0002030BDCA430282E1
:101FE0007047000010B50446FB48844209D1012126
:101FF0008803FFF79FF800214FF48040FFF79AF81D
:1020000032E0F648844209D101214804FFF79FF8E5
:1020100000214FF40030FFF79AF825E0F0488442A1
:1020200009D101218804FFF792F800214FF48020A4
:10203000FFF78DF818E0EB48844209D10121C8046C
:10204000FFF785F800214FF40020FFF780F80BE040
:10205000E548844208D101210805FFF778F80021FE
:102060004FF48010FFF773F810BD2DE9F04786B0EC
:1020700005460E460024A24600BFA1460027B089AF
:1020800000B100BF2F462C8A4CF6FF700440F08848
:1020900004432C82AC894EF6F3100440B088318999
:1020A0000843718908430443AC81AC8A4FF6FF4072
:1020B0000440B0890443AC8201A8FEF7B4FFC648CF
:1020C000874202D1DDF810A001E0DDF80CA0A8895C
:1020D00000F4004040B10AEBCA0000EB0A1031687E
:1020E0004900B0FBF1F807E00AEBCA0000EB0A1068
:1020F00031688900B0FBF1F86420B8FBF0F004010E
:102100002009642101FB1089A88900F4004040B136
:10211000322000EBC900B0FBF1F000F007000443EF
:1021200008E0322000EB09106421B0FBF1F000F070
:102130000F0004432C8106B0BDE8F0874FF4165120
:10214000016000218180C18001810C214181002139
:102150008181704710B502460020108A4FF2FF03BC
:1021600018400B884C8823438C882343CC88234316
:102170001843108210BD0021018041808180C18000
:10218000704721B1828942F40052828104E0828941
:102190004DF6FF731A4082817047F0B50346002464
:1021A00000260025002040F66A17B94200D100BF82
:1021B0001846C1F3421401F01F06012707FA06F57D
:1021C000012C01D10C3004E0022C01D1103000E0D0
:1021D00014301AB107682F43076002E00768AF4365
:1021E0000760F0BD1AB1838A0B43838202E0838AC1
:1021F0008B4383827047028A4FF6F0731A40028243
:10220000028A0A430282704782894FF2FF731A40A2
:10221000828182890A438281704721B1828942F09A
:102220000202828104E082894FF6FD731A408281A6
:102230007047028A4FF6DF731A400282028A0A430D
:102240000282704721B1028A42F48042028204E095
:10225000028A4BF6FF731A4002827047C1F30802EC
:102260008280704701468888C0F3080070478189E2
:1022700041F0010181817047028BD2B20283028B4F
:1022800042EA012202837047028B02F47F420283FA
:10229000028B0A430283704721B1828A42F02002F6
:1022A000828204E0828A4FF6DF731A40828270478E
:1022B00021B1828A42F01002828204E0828A4FF6C3
:1022C000EF731A408282704721B1828A42F008027D
:1022D000828204E0828A4FF6F7731A408282704746
:1022E00021B1828942F40042828103E08289C2F3F3
:1022F0000E028281704721B1828A42F4006282829A
:1023000004E0828A4FF2FF731A4082827047828A09
:102310004FF6FB731A408282828A0A438282704798
:1023200021B1828A42F00202828204E0828A4FF660
:10233000FD731A408282704702460020B1F5007F8B
:1023400000D100BF13880B400BB1012000E000203A
:10235000704701F40072B2F5007F00D100BFCA439C
:102360000280704770B5024600240023002500203B
:1023700040F66A16B14200D100BFC1F3421501F028
:102380001F03012606FA03F3012D02D1968933407B
:1023900006E0022D02D1168A334001E0968A3340CE
:1023A0000C12012606FA04F41688344013B10CB15D
:1023B000012000E0002070BD10B50022002340F68F
:1023C0006A14A14200D100BF0A1201249440A3B2B2
:1023D000DC43048010BD0000003801400044004090
:1023E00000480040004C00400050004000F0AEF8B3
:1023F00000F0D4F901E001F088FEFCE7704700BF6F
:10240000FEE700BFFEE700BFFEE700BFFEE7704744
:10241000704770477047000000B58BB00121084637
:10242000FEF761FED448FEF725FAD4480090D44860
:1024300001901020029000200390049080200590CD
:1024400000200690079020200890000209900020AC
:102450000A906946C848FEF7AFFA01220221C64831
:10246000FEF7E1FA01220821C348FEF7DCFA012257
:102470008021C248001FFFF7B5FE0021BE48FEF7CD
:10248000C6FABD481430FEF7F5F9BC480090BD48C7
:102490000190002002904FF4FA7003900020049005
:1024A00080200590002006900790202008900002D0
:1024B000099000200A906946AF481430FEF77CFA74
:1024C00001220221AC481430FEF7ADFA01220821A6
:1024D000A9481430FEF7A7FA01224021A748001F9F
:1024E000FFF780FE0121A4481430FEF790FA0BB0EC
:1024F00000BD08B525208DF8000000208DF80100F2
:1025000002208DF8020001208DF803006846FDF7D7
:1025100020FF0E208DF8000000208DF80100012022
:102520008DF802008DF803006846FDF712FF0F20BA
:102530008DF8000000208DF801008DF802000120C8
:102540008DF803006846FDF704FF08BD00B585B0AF
:1025500001210420FEF7D4FD01218803FEF7D0FD00
:102560004FF40070ADF8100018208DF81300032010
:102570008DF8120004A98448FEF706FB4FF4806032
:10258000ADF8100004208DF8130004A97E48FEF772
:10259000FBFA4FF4E13000900020ADF80400ADF8F4
:1025A0000600ADF80800ADF80C000C20ADF80A00EC
:1025B00069467248001FFFF758FD012240F224418E
:1025C0006E48001FFFF7E9FD01216C48001FFFF76F
:1025D000D8FD40216948001FFFF7BBFEFFF71CFF35
:1025E000FFF787FF01206949087005B000BD70B58D
:1025F00004460D4629462046FFF730FE00BF8021E5
:102600002046FFF799FE0028F9D070BD2DE9F04172
:1026100006460C4615462F4604E021783046FFF763
:10262000E6FF641C381EA7F101018FB2F5D1BDE8A9
:10263000F08110B5044621465048001FFFF70EFEFA
:1026400000BF80214D48001FFFF776FE0028F8D01C
:1026500010BD70B505460C4644B1B4F5FA7F02DDF5
:102660004FF4806000E02046044600E070BD00BFEB
:10267000474800780028FBD025B12246294640482B
:1026800004F02AF94FF40050FEF70FFA4FF400401F
:10269000FEF70BFA00213848FEF7B9F936484438FE
:1026A000846401213448FEF7B2F9002038490870EB
:1026B00000BFDBE7012037490870704710B540F2D2
:1026C00024412E48001FFFF74DFE48B32B48001F42
:1026D0000488001D0488002127481430FEF797F96C
:1026E00025481430FEF7AAF9C0F5FA7084B22246E4
:1026F0002449294802F084FF4FF47020FEF7B6F910
:102700004FF4FA701C494439C86501211A48143045
:10271000FEF77DF940F224411848001FFFF74CFEF8
:1027200010BD10B54FF40050FEF7BFF94FF4004054
:10273000FEF7BBF900211048FEF769F901201449A2
:10274000087010BD10B54FF40030FEF7AEF94FF42D
:102750000020FEF7AAF9002107481430FEF757F9C8
:102760004FF4FA7004494439C86501210248143015
:10277000FEF74DF910BD000044000240043801404E
:102780008001002074030020000801402A0000207E
:10279000290000202B0000206805002010B54FF410
:1027A000FA71F84802F0FCFE10BD01B5F648007859
:1027B00040B19DF80010F548FFF719FF0020F249DD
:1027C000087009E0F248007830B10121684603F052
:1027D00091FF0020EE49087008BD70B504460D4613
:1027E000E948007828B12A462146E848FFF70EFF5D
:1027F00006E0E748007818B12946204603F07AFF42
:1028000070BD10B50246FF2092FBF0F400FB1420CF
:10281000C3B2994201D1012010BD0020FCE701B5EF
:10282000D948007828B19DF80010D848FFF7DFFE9E
:1028300006E0D748007818B10121684603F05AFF36
:1028400008BDF0B591B00024CE49684602F059FFAA
:10285000DDE90001CDE902010FA9CA4802F0F4FE4A
:102860009DF83C00CA38162877D2DFE810F0F30252
:102870000B0323034D03A103760076007600760058
:1028800076007600CA02B10286025B022D021600B3
:102890006100DE0076006B01000210A9B94802F069
:1028A000D3FE9DF8400004909DF84000204484B27F
:1028B00010A9B44802F0C8FE9DF840102046FFF76A
:1028C000A0FF48B9BDF80A20BDF80810AD4802F0D5
:1028D00010FF002011B0F0BD10A9AA4802F0B4FE0C
:1028E0009DF84000962808D0BDF80A20BDF80810D1
:1028F000A44802F0FEFE0020ECE7049AD0B2A54AFC
:10290000516E884796208DF83800A34800788DF8DE
:102910003900A1480078FF2190FBF1F201FB120081
:10292000C0B28DF83A0003210EA8FFF756FFE4E38A
:1029300010A9944802F088FE9DF84000204484B21B
:102940009DF84000FF2809D0BDF80A20BDF8081006
:102950008C4802F0CEFE0020BCE7C5E310E010A9D1
:10296000884802F071FE9DF84000204484B29DF832
:102970004000FF2800D104E09DF8400005F8010B5D
:10298000EDE700BF10E010A97E4802F05DFE9DF863
:102990004000204484B29DF84000FF2800D104E0AC
:1029A0009DF8400006F8010BEDE700BF10A975483F
:1029B00002F04AFE9DF840102046FFF722FF40B982
:1029C000BDF80A20BDF808106E4802F092FE002003
:1029D00080E710A96B4802F037FE9DF84000972869
:1029E00008D0BDF80A20BDF80810664802F081FE44
:1029F00000206FE7F1B2E8B2664B9A6E90479720DD
:102A00008DF83800644800788DF839006248007805
:102A1000FF2190FBF1F201FB1200C0B28DF83A00E9
:102A200003210EA8FFF7D9FE67E310A9554802F06D
:102A30000BFE9DF84000204484B29DF84000FF2822
:102A400008D0BDF80A20BDF808104E4802F051FE2B
:102A500000203FE710E010A94A4802F0F5FD9DF87C
:102A60004000204484B29DF84000FF2800D104E0DB
:102A70009DF8400005F8010BEDE700BF10E010A93C
:102A8000404802F0E1FD9DF84000204484B29DF8EA
:102A90004000FF2800D104E09DF8400006F8010B3B
:102AA000EDE700BF10A9374802F0CEFD9DF84000C9
:102AB000204484B29DF8400004909DF84000042812
:102AC00001DD002006E710A92E4802F0BDFD9DF8AB
:102AD00040102046FFF795FE40B9BDF80A20BDF82A
:102AE0000810284802F005FE0020F3E610A925484A
:102AF00002F0AAFD9DF84000982808D0BDF80A20F1
:102B0000BDF808101F4802F0F4FD0020E2E6F1B223
:102B1000E8B2204BDA6E904798208DF838001E48B6
:102B200000788DF839001C480078FF2190FBF1F205
:102B300001FB1200C0B28DF83A0003210EA8FFF786
:102B40004CFEDAE210A90F4802F07EFD9DF840002D
:102B500004909DF84000204484B210A9094802F076
:102B600073FD9DF84000204484B29DF84000FF288A
:102B700014D0BDF80A20BDF80810024802F0B9FDD3
:102B80000020A7E6680500202B0000200038014047
:102B90006C0100202C0000206801002010E010A92A
:102BA000FE4802F051FD9DF84000204484B29DF89B
:102BB0004000FF2800D104E09DF8400005F8010B1B
:102BC000EDE700BF10E010A9F44802F03DFD9DF8CC
:102BD0004000204484B29DF84000FF2800D104E06A
:102BE0009DF8400006F8010BEDE700BF10A9EB4887
:102BF00002F02AFD9DF840102046FFF702FE40B982
:102C0000BDF80A20BDF80810E44802F072FD00206B
:102C100060E610A9E14802F017FD9DF840009928F0
:102C200008D0BDF80A20BDF80810DC4802F061FDAC
:102C300000204FE6F2B2E9B2049FF8B2D84FBB6F62
:102C4000984799208DF83800D64800788DF83900DB
:102C5000D4480078FF2190FBF1F201FB1200C0B2D2
:102C60008DF83A0003210EA8FFF7B7FD45E210A941
:102C7000CA4802F0E9FC9DF840009A2808D0BDF847
:102C80000A20BDF80810C54802F033FD002021E6F7
:102C9000C349C86F80479A208DF83800C248007831
:102CA0008DF83900C0480078FF2190FBF1F201FB5C
:102CB0001200C0B28DF83A0003210EA8FFF78DFD77
:102CC0000020B949087018E210A9B44802F0BCFC11
:102CD0009DF840009B2808D0BDF80A20BDF80810D8
:102CE000AE4802F006FD0020F4E5AD49D1F88000C1
:102CF00080479B208DF83800AC4800788DF839006B
:102D0000AA480078FF2190FBF1F201FB1200C0B24B
:102D10008DF83A0003210EA8FFF75FFD0020A349BC
:102D20000870EAE110A99D4802F08EFC9DF8400071
:102D30009C2808D0BDF80A20BDF80810974802F07A
:102D4000D8FC0020C6E59649D1F8840080479C2035
:102D50008DF83800934800788DF839009148007854
:102D6000FF2190FBF1F201FB1200C0B28DF83A0096
:102D700003210EA8FFF731FDBFE110A9874802F03B
:102D800063FC9DF840009D2808D0BDF80A20BDF8DE
:102D90000810824802F0ADFC00209BE58049D1F884
:102DA000880080479D208DF838007E4800788DF897
:102DB00039007C480078FF2190FBF1F201FB120002
:102DC000C0B28DF83A0003210EA8FFF706FD94E18A
:102DD00010A9724802F038FC9DF840009E2808D0E7
:102DE000BDF80A20BDF808106C4802F082FC0020F3
:102DF00070E56B49D1F88C0080479E20FFF70FFDEE
:102E00007BE110A9654802F01FFC9DF8400004908A
:102E100010A9624802F018FC9DF84000059010A926
:102E20005E4802F011FC9DF840009F2808D0BDF8D4
:102E30000A20BDF80810594802F05BFC002049E563
:102E4000059BD9B2049BD8B2554BD3F8902090473C
:102E500001203FE510A9514802F0F6FB9DF8400023
:102E6000912808D0BDF80A20BDF808104B4802F0A0
:102E700040FC00202EE54A49886D80479120FFF7ED
:102E8000CEFC3AE110A9454802F0DEFB9DF8400077
:102E9000922808D0BDF80A20BDF808103F4802F07B
:102EA00028FC002016E53E49C86D80479220FFF7B8
:102EB000B6FC22E110A9394802F0C6FB9DF840009B
:102EC000932808D0BDF80A20BDF80810334802F056
:102ED00010FC0020FEE43249086E804793208DF8F4
:102EE0003800304800788DF839002E480078FF21EE
:102EF00090FBF1F201FB1200C0B28DF83A00032101
:102F00000EA8FFF76AFCF8E010A9244802F09CFB29
:102F10009DF8400004909DF84000204484B210A920
:102F20001E4802F091FB9DF840102046FFF769FC17
:102F300040B9BDF80A20BDF80810184802F0D9FBC6
:102F40000020C7E410A9154802F07EFB9DF8400060
:102F5000942808D0BDF80A20BDF808100F4802F0E8
:102F6000C8FB0020B6E4049AD0B20D4A116F88471E
:102F700094208DF838000B4800788DF83900094806
:102F80000078FF2190FBF1F201FB1200C0B28DF836
:102F90003A0003210EA8FFF720FCAEE068050020F0
:102FA0002C000020680100206A0100206B01002035
:102FB00010A9FD4802F048FB9DF8400004909DF8E0
:102FC0004000204484B210A9F74802F03DFB9DF870
:102FD0004000204484B29DF84000FF2808D0BDF88E
:102FE0000A20BDF80810F04802F083FB002071E4CD
:102FF00010E010A9EC4802F027FB9DF840002044A7
:1030000084B29DF84000FF2800D104E09DF8400004
:1030100005F8010BEDE700BF10E010A9E24802F04F
:1030200013FB9DF84000204484B29DF84000FF2827
:1030300000D104E09DF8400006F8010BEDE700BF69
:1030400010A9D94802F000FB9DF8400005909DF8BA
:103050004000204484B210A9D34802F0F5FA9DF84C
:1030600040102046FFF7CDFB40B9BDF80A20BDF85F
:103070000810CD4802F03DFB00202BE410A9CA48FF
:1030800002F0E2FA9DF84000952808D0BDF80A2029
:10309000BDF80810C44802F02CFB00201AE4DDF84B
:1030A00014C00CF0FF03F2B2E9B2DDF810C00CF06E
:1030B000FF00DFF8F8C2DCF87470B84795208DF88F
:1030C0003800BB4800788DF83900B9480078FF21F6
:1030D00090FBF1F201FB1200C0B28DF83A0003211F
:1030E0000EA8FFF77AFB08E0BDF80A20BDF808102B
:1030F000AD4802F0FEFA00202EE400BFF920FFF7F1
:1031000054FB0120AA49087000BF25E4F0B5A5B022
:103110000025A54901A802F0F4FADDE90101CDE995
:10312000030123A9A04802F08FFA9DF88C00CA2859
:1031300002D0DA2872D172E024A99B4802F084FA06
:103140009DF890009B4941EA002019909DF890005D
:10315000284485B224A9944802F076FA9DF890009C
:1031600006119DF8900000F00F00B0401A909DF8F5
:103170009000284485B224A98B4802F065FA9DF896
:1031800090008C4941EA00201B909DF89000284453
:1031900085B224A9844802F057FA9DF890000611E0
:1031A0009DF8900000F00F00B0401C909DF890003A
:1031B000284485B224A97C4802F046FA9DF8901074
:1031C0002846FFF71EFB48B9BDF80E20BDF80C10CD
:1031D000754802F08EFA002025B0F0BD24A972488F
:1031E00002F032FA9DF89000B12808D0BDF80E2008
:1031F000BDF80C106C4802F07CFA0020ECE7DDE929
:103200001AC21FFA8CF1DFF8A4C11C9B1998DCF8D4
:103210005470B847B120FFF702FBA5E09BE024A95A
:10322000614802F011FA9DF89000634908709DF81A
:103230009000284485B20846007830B900205F49E4
:10324000087001205E4908700CE05B480078012896
:1032500006D102205949087003205949087001E03D
:103260000020B9E724A9504802F0EEF99DF89060DB
:103270009DF89000284485B200240DE024A94A4816
:1032800002F0E2F99DF8900005A908559DF890001C
:10329000284485B2601CC4B2B442EFDB24A9424882
:1032A00002F0D2F99DF890102846FFF7AAFA40B92B
:1032B000BDF80E20BDF80C103B4802F01AFA0020B1
:1032C0008AE724A9384802F0BFF99DF89000B22897
:1032D00008D0BDF80E20BDF80C10334802F009FAF2
:1032E000002079E7002425E005A8005D062801D12B
:1032F000012000E0002005A9095D0622B2EB211F94
:1033000001D1012100E00021084358B105AB621C46
:10331000985C05AA125D2B4B53F822108847601C5D
:10332000C4B205E005A9095D264A52F8210080478C
:10333000601CC4B2B442D7DD2348007840B90120F4
:10334000214908709DF815101E4A52F82100804747
:1033500002F0B0FC08E0BDF80E20BDF80C101248D9
:1033600002F0C7F9002037E700BFFB20FFF71DFA86
:1033700000BF31E770B594B0002400250A496846C3
:1033800002F0BFF9DDE90001CDE9020112A906480A
:1033900002F05AF913A9044802F056F99DF84C00BE
:1033A000342813D1012012E0680500202C000020F1
:1033B0006801002000000140570100205801002052
:1033C00059010020C80000205A01002000209DF86B
:1033D0004C102C2901D1012100E00021084330B11B
:1033E0009DF84C00FC4901EB0020079006E09DF899
:1033F0004C004FF0804101EB002007909DF84C00FD
:10340000204484B29DF84800DA2812D008DCAA28AB
:103410007BD0CA287AD0CB2879D0CC2878D1FBE1D0
:10342000DB2854D0DC2874D0DD2873D0DE28F5D119
:10343000F5E013A9E94802F007F99DF84C0008905F
:103440009DF84C00204484B202231A4606A9E348A2
:1034500002F014F9BDF81800ADF810009DF818003E
:10346000204484B29DF81900204484B213A9DB489B
:1034700002F0EAF89DF84C102046FFF7C2F948B96F
:10348000BDF80A20BDF80810D44802F032F9002037
:1034900014B070BD13A9D14802F0D6F89DF84C00C5
:1034A000D52808D0BDF80A20BDF80810CB4802F096
:1034B00020F90020ECE7BDF81020089EF1B2C84EBC
:1034C0000798336C9847D520FFF7A9F922E213A992
:1034D000C24802F0B9F89DF84C0008909DF84C00E5
:1034E000204484B213A9BD4802F0AEF89DF84C10F8
:1034F0002046FFF786F970B9BDF80A20BDF808101C
:10350000B64802F0F6F80020C2E7CEE1C8E042E19A
:10351000F7E118E04DE013A9B04802F095F89DF8E6
:103520004C00D62808D0BDF80A20BDF80810AB48DA
:1035300002F0DFF80020ABE7089BD9B2A84B079850
:103540005A6C9047E6E113A9A44802F07DF89DF873
:103550004C0008909DF84C00204484B213A99F4869
:1035600002F072F89DF84C102046FFF74AF940B976
:10357000BDF80A20BDF80810984802F0BAF80020FB
:1035800086E713A9954802F05FF89DF84C00D7280C
:1035900008D0BDF80A20BDF80810904802F0A9F83C
:1035A000002075E7089BD9B28D4B07989A6C90471D
:1035B000B0E113A9894802F047F89DF84C00089043
:1035C0009DF84C00204484B213A9844802F03CF8D2
:1035D0009DF84C102046FFF714F940B9BDF80A20B9
:1035E000BDF808107D4802F084F8002050E713A9C8
:1035F0007A4802F029F89DF84C00D82808D0BDF888
:103600000A20BDF80810754802F073F800203FE763
:10361000089BD9B2724B0798DA6C90477AE1022383
:103620001A4606A96D4802F029F8BDF81800ADF851
:1036300010009DF81800204484B29DF81900204421
:1036400084B213A9654801F0FFFF9DF84C10204695
:10365000FFF7D7F840B9BDF80A20BDF808105F4859
:1036600002F047F8002013E713A95C4801F0ECFFD3
:103670009DF84C00D92808D0BDF80A20BDF80810E4
:10368000564802F036F8002002E7BDF81010544BFF
:103690000798D3F898209047D920FFF7C0F839E170
:1036A0000123042211A94D4801F0E8FF042503E09D
:1036B00011A8405D204484B2281EA5F10101CDB2BD
:1036C000F6D102231A4606A9444801F0D7FFBDF8F7
:1036D0001800ADF810009DF81800204484B29DF841
:1036E0001900204484B202231A4606A93B4801F07F
:1036F000C5FFBDF81800ADF812009DF81800204471
:1037000084B29DF81900204484B202231A4606A907
:10371000324801F0B3FFBDF81800ADF814009DF871
:103720001800204484B29DF81900204484B213A9E3
:103730002A4801F089FF9DF84C102046FFF761F8F8
:1037400040B9BDF80A20BDF80810244801F0D1FFA7
:1037500000209DE613A9214801F076FF9DF84C005A
:10376000D12808D0BDF80A20BDF808101B4801F088
:10377000C0FF00208CE6BDF814000090BDF81230A8
:10378000BDF81020164907980E6B11A9B047D1203B
:10379000FFF745F8BEE002231A4606A90F4801F0DC
:1037A0006DFF9DF81800204484B29DF81900204454
:1037B00084B213A9094801F047FF9DF84C10204638
:1037C000FFF71FF870B9BDF80A20BDF808100348CC
:1037D00001F08FFF00205BE600000140680500203B
:1037E0002C00002013A9FC4801F02EFF9DF84C008E
:1037F000D22808D0BDF80A20BDF80810F64801F01C
:1038000078FF002044E6F54907984A6B06A99047DF
:10381000D220FFF704F87DE013A9EF4801F014FF70
:103820009DF84C0008909DF84C00204484B202237F
:103830001A4606A9E84801F021FFBDF818000990D2
:103840009DF81800204484B29DF81900204484B2E9
:1038500013A9E14801F0F8FE9DF84C102046FEF750
:10386000D0FF40B9BDF80A20BDF80810DA4801F0D1
:1038700040FF00200CE613A9D74801F0E5FE9DF8B3
:103880004C00D32808D0BDF80A20BDF80810D24853
:1038900001F02FFF0020FBE5D04E07A807C8B36B4F
:1038A0009847D320FEF7BBFF34E013A9CA4801F0C4
:1038B000CBFE9DF84C102046FEF7A3FF40B9BDF8A3
:1038C0000A20BDF80810C44801F013FF0020DFE50E
:1038D00013A9C14801F0B8FE9DF84C00D42808D0C7
:1038E000BDF80A20BDF80810BB4801F002FF002017
:1038F000CEE5BA4A0798D16B8847D420FEF78FFFF0
:1039000008E0BDF80A20BDF80810B34801F0F1FE48
:103910000020BDE500BFFD20FEF747FF00BFB7E573
:1039200070B594B0002600240025AB49684601F02C
:10393000E8FEDDE90001CDE9020112A9A64801F087
:1039400083FE9DF84800AA2874D0CA2837D0DA2808
:1039500071D113A9A04801F077FE9DF84C000890A2
:103960009DF84C00204484B213A99B4801F06CFEE2
:103970009DF84C102046FEF744FF48B9BDF80A20D8
:10398000BDF80810944801F0B4FE002014B070BDDA
:1039900013A9914801F058FE9DF84C00C32808D0A7
:1039A000BDF80A20BDF808108B4801F0A2FE0020E7
:1039B000ECE7089AD0B2894AD16A884778E013A91F
:1039C000854801F041FE9DF84C00000308909DF8E9
:1039D0004C00204484B213A97F4801F035FE9DF8C5
:1039E0004C609DF84C00204484B200250DE013A9E2
:1039F000794801F029FE9DF84C0004A948559DF82E
:103A00004C00204484B2681C05B2B542EFDB13A918
:103A1000714801F019FE9DF84C102046FEF7F1FEAA
:103A200050B9BDF80A20BDF808106B4801F061FEDE
:103A30000020ABE71BE032E013A9674801F004FE69
:103A40009DF84C00C12808D0BDF80A20BDF8081028
:103A5000614801F04EFE002098E760490898324620
:103A60004B6A04A99847C120FEF7D9FE20E013A9AC
:103A7000594801F0E9FD9DF84C00C22808D0BDF876
:103A80000A20BDF80810544801F033FE00207DE7FD
:103A90005249886A8047C220FEF7C1FE08E0BDF89F
:103AA0000A20BDF808104C4801F023FE00206DE705
:103AB00000BFFC20FEF779FE012067E7F0B595B066
:103AC000002500260020089007900024424902A803
:103AD00001F017FEDDE90201CDE9040113A93E481A
:103AE00001F0B2FD9DF84C00DC2817D114A93A482A
:103AF00001F0AAFD9DF85000A52809D0BDF81220BC
:103B0000BDF81010344801F0F4FD002015B0F0BDF0
:103B10003249D1F8940080470120F7E714A92E48D4
:103B200001F092FD9DF850004FF0804141EA0020E5
:103B300009909DF85000204484B29DF84C00AA28BA
:103B40007ED0CA287DD0DA2802D0DB287AD164E082
:103B500014A9214801F078FD9DF850609DF85000AF
:103B6000204484B214A91C4801F06EFD9DF8501049
:103B70002046FEF746FE40B9BDF81220BDF81010F1
:103B8000154801F0B6FD0020C0E7002400250DE037
:103B900014A9114801F058FD9DF8500010494855EE
:103BA0009DF85000204484B2681C05B2B542EFDB9A
:103BB00014A9094801F048FD9DF850102046FEF771
:103BC00020FE78B9BDF81220BDF81010024801F0AF
:103BD00090FD00209AE70000680500202C000020DE
:103BE0007405002014A9FE4801F02EFD9DF8500038
:103BF000A32808D0BDF81220BDF81010F84801F035
:103C000078FD002082E7F74909983246CB69F649EA
:103C10009847A320FEF703FE14E114A9F04801F031
:103C200013FD9DF850102046FEF7EBFD58B9BDF886
:103C30001220BDF81010EA4801F05BFD002065E796
:103C4000CBE042E0F5E014A9E54801F0FDFC9DF869
:103C50005000A42808D0BDF81220BDF81010E0488C
:103C600001F047FD002051E7E0490998884212D150
:103C7000A4208DF8180044208DF81900D94802219D
:103C8000026A06A89047D748026AD948B0F90010DE
:103C9000D848904718E0D8490998884212D1A42002
:103CA0008DF818004C208DF81900CE480221026AC8
:103CB00006A89047CB48026AD048B0F90010D04817
:103CC000904701E0002021E7BCE014A9C44801F0BE
:103CD000BBFC9DF850000A909DF85000204484B22F
:103CE00014A9BF4801F0B0FC9DF8500000020B90F1
:103CF0009DF85000204484B214A9B94801F0A4FCF6
:103D00009DF8500000020C909DF85000204484B2B1
:103D100014A9B34801F098FC9DF8500000020D90E2
:103D20009DF85000204484B214A9AD4801F08CFCE9
:103D30009DF8500000020E909DF85000204484B27F
:103D400014A9A74801F080FC9DF850000F909DF841
:103D50005000204484B214A9A14801F075FC9DF8DC
:103D6000500010909DF85000204484B214A99C4843
:103D700001F06AFC9DF850102046FEF742FD40B964
:103D8000BDF81220BDF81010954801F0B2FC0020DB
:103D9000BCE614A9924801F057FC9DF85000A128F8
:103DA00008D0BDF81220BDF810108D4801F0A1FC1C
:103DB0000020ABE6DDE90D23DDE90F10CDE900239E
:103DC000CDE90210DFF81CC209A80FC8DCF8147096
:103DD000B847A120FEF723FD34E014A9804801F084
:103DE00033FC9DF850102046FEF70BFD40B9BDF89E
:103DF0001220BDF810107A4801F07BFC002085E607
:103E000014A9774801F020FC9DF85000A22808D0A2
:103E1000BDF81220BDF81010714801F06AFC0020B6
:103E200074E6704A099891698847A220FEF7F7FC6A
:103E300008E0BDF81220BDF81010694801F059FCE7
:103E4000002063E600BFFA20FEF7AFFC01205DE62C
:103E5000F0B591B00024624901A801F052FCDDE9FF
:103E60000101CDE903010FA95D4801F0EDFB10A9A7
:103E70005B4801F0E9FB9DF84000624941EA0020FF
:103E800005909DF8400004449DF83C00AA287BD092
:103E9000CA287AD0DA2802D0DB2877D150E010A9DE
:103EA0004F4801F0D1FB9DF8400005119DF84000FE
:103EB00000F00F00A84006909DF84000204484B216
:103EC00010A9474801F0C0FB9DF8400007909DF8FD
:103ED0004000204484B2079828B10798012802D0F6
:103EE000002011B0F0BD10A93D4801F0ADFB9DF8D8
:103EF00040102046FEF785FC40B9BDF80E20BDF805
:103F00000C10374801F0F5FB0020EAE710A934480F
:103F100001F09AFB9DF84000E32808D0BDF80E2080
:103F2000BDF80C102E4801F0E4FB0020D9E72D4E1F
:103F300005A807C833699847E320FEF770FCDEE068
:103F400010A9274801F080FB9DF8400005119DF85D
:103F5000400000F00F00A84006909DF8400020446B
:103F600084B210A91E4801F06FFB9DF84010204656
:103F7000FEF747FC58B9BDF80E20BDF80C101848E4
:103F800001F0B7FB0020ACE784E017E0AEE010A939
:103F9000134801F059FB9DF84000E42808D0BDF813
:103FA0000E20BDF80C100E4801F0A3FB002098E78E
:103FB0000C4BDDE905011A6D9047A0E010A90848F7
:103FC00001F042FB9DF8400005119DF8400000F013
:103FD0000F00A84006909DF84000204484B213E0F2
:103FE000680500202C0000207405002000440040DB
:103FF000EA000020480E0020004C0040EC000020A9
:10400000AC0E00200000014010A96D4801F01CFB1F
:104010009DF8400007909DF84000204484B210A90C
:10402000674801F011FB9DF8400008909DF84000A2
:10403000204484B210A9624801F006FB9DF84010AC
:104040002046FEF7DEFB40B9BDF80E20BDF80C108F
:104050005B4801F04EFB002043E710A9584801F0EF
:10406000F3FA9DF84000E12808D0BDF80E20BDF815
:104070000C10534801F03DFB002032E7DDE90672E9
:10408000B9B2504F089B0598BE68B047E120FEF7D3
:10409000C6FB34E010A94A4801F0D6FA9DF840105A
:1040A0002046FEF7AEFB40B9BDF80E20BDF80C105F
:1040B000434801F01EFB002013E710A9404801F01F
:1040C000C3FA9DF84000E22808D0BDF80E20BDF8E4
:1040D0000C103B4801F00DFB002002E7394A05981F
:1040E000D1688847E220FEF79AFB08E0BDF80E2071
:1040F000BDF80C10324801F0FCFA0020F1E600BFD8
:10410000FE20FEF752FB0120EBE638B501252C48D6
:104110004089022837DD6946294801F095FA9DF863
:1041200000000F21B1EB201F2CD19DF8000000F002
:104130000F04A4F1090006281CD2DFE800F01707DD
:10414000130B0F03FFF784FE054613E0FFF7B6FCE1
:1041500005460FE0FFF7E4FB05460BE0FFF70AF921
:10416000054607E0FEF7D2FF054603E0FEF769FBD0
:10417000054600BF00BF35B9002013490870134938
:10418000087000E038BD00BFFCE7014608687047D2
:1041900001607047024613780B7053784B7070477C
:1041A00030B50246002300204C1EA3B201E0D45CCF
:1041B00020441C1EA3F10105ABB2F8D130BD0000B4
:1041C000680500202C0000202B0000206C0100203E
:1041D00010B50446FE49601A8C4238D01ADCFD49FD
:1041E000A4EB01008C4269D00ADCB4F1804F56D0B8
:1041F000F9482044002857D0B0F5806F6DD158E0C1
:10420000B0F5605F41D0B0F5705F43D0B0F57C4F42
:1042100063D117E0B0F5805F2DD009DCB0F5806F79
:104220001AD0B0F5006F1CD0B0F5406F55D11DE02D
:10423000B0F5A05F24D0B0F5005F44D0B0F5205FAA
:104240004BD145E001210420FCF75AFF45E0012154
:104250000820FCF755FF40E001211020FCF750FF3B
:104260003BE001212020FCF74BFF36E001214020FC
:10427000FCF746FF31E001218020FCF741FF2CE0F4
:1042800001210802FCF73CFF27E001214804FCF76C
:1042900044FF22E001218804FCF73FFF1DE00121DB
:1042A0000846FCF73AFF18E001210220FCF735FF31
:1042B00013E001210420FCF730FF0EE0012108206B
:1042C000FCF72BFF09E00121C802FCF719FF04E00D
:1042D00001214803FCF714FF00BF00BF10BD0146D9
:1042E000BC4A881A91421BD009DCB1F1804F11D031
:1042F000B948084480B1B0F5806F13D10EE0B0F535
:10430000605F03D0B0F5705F0CD101E026207047EC
:104310002720FCE71C20FAE71D20F8E71E20F6E71F
:104320003220F4E700BFF2E7F8B507460C46154621
:104330001E463846FFF74CFFA0B2ADF80000E8B2C9
:104340008DF80300F0B28DF8020069463846FCF79C
:104350001BFCF8BD10B504462046FCF7B5FB9F4892
:10436000844201D1FEF7F2F810BD0146012902D1C5
:104370004FF416507047022902D14DF6C020F9E7DC
:10438000032902D14FF4E130F4E74FF41650F1E77E
:1043900030B58DB0054601210846FCF7A4FE9048D3
:1043A000FCF768FA012D04D18E4C32208E4908802A
:1043B00005E025B98D4C4FF4FA708B490880884888
:1043C0001438FCF757FA8A480290039400200490AE
:1043D0008548B0F9000005900020069080200790E5
:1043E00000200890099020200A9000020B900020E5
:1043F0000C9002A97A481438FCF7DEFA0122022157
:1044000077481438FCF70FFB012208217448143850
:10441000FCF709FB012240217548001FFDF7E2FE71
:1044200001216F481438FCF7F2FA10208DF80400CF
:1044300001208DF8050000208DF8060001208DF880
:10444000070001A8FBF785FF0DB030BD30B58DB07A
:10445000054601210220FCF746FE6648FCF70AFAF1
:10446000012D04D1644C32206449088005E025B94F
:10447000634C4FF4FA70614908805E482838FCF7B5
:10448000F9F9604802900394002004905B48B0F969
:1044900000000590002006908020079000200890E2
:1044A000099020200A9000020B9000200C9002A995
:1044B00050482838FCF780FA012202214D4828385C
:1044C000FCF7B1FA012208214A482838FCF7ABFA78
:1044D000012240214B48001FFDF784FE0121454881
:1044E0002838FCF794FA3A208DF8040001208DF862
:1044F000050002208DF8060001208DF8070001A8B4
:10450000FBF727FF0DB030BD11BB394A121F904297
:104510000CD100223C4B1A703C4A12781AB1F92295
:104520003B4B1A7002E0FA22394B1A70354A121FBF
:1045300090421FD10022374B1A70344A12781AB1B8
:10454000F922354B1A7015E0FA22334B1A7011E03C
:10455000274A121F904204D101222B4B1A702F4A76
:104560001180284A121F904204D10122294B1A704F
:104570002B4A118070472DE9F04F85B004460E4656
:1045800017469846DDE90FABDDF83890119D012103
:104590000420FCF7B5FD2046FFF71AFEE9B22046DD
:1045A000FFF7B2FFF0B2FFF7E0FE0190B8B2ADF84E
:1045B00008001FFA88F0ADF80A001FFA89F0ADF87C
:1045C0000C001FFA8AF0ADF810001FFA8BF029E0FA
:1045D000000C0140000C004000FCFFBF000801403F
:1045E000800002407A0E0020EE0000206C080020BF
:1045F0000444004058040240DE0E0020F000002079
:10460000540C0020044C0040E40000206C01002009
:10461000F2000020E5000020F3000020E60000206A
:10462000E8000020ADF80E0001A92046FDF71DFDB1
:104630004FF4C060FBF788FE2046FFF750FEC0B283
:104640008DF800002046FFF74AFE2538C0B28DF8ED
:10465000010000208DF8020001208DF8030068465B
:10466000FBF777FE012240F224412046FDF795FD3D
:1046700001212046FDF785FDFE48844203D1E8B2C2
:10468000FFF786FE05E0FC48844202D1E8B2FFF75E
:10469000DDFE05B0BDE8F08F024613780B7053784D
:1046A0004B70704770B504460D461646FA2C04D17F
:1046B00032462946F148FDF7A9FFF92C03D13146CE
:1046C000284602F017F870BD7CB5002001900090DC
:1046D0000025002640F22441E648FDF743FE00286D
:1046E0007ED0E448008800B20190E248001D0088B6
:1046F00000B201900021E248FCF789F9E148007816
:10470000002852D1DE48FCF799F9C0F5FA7000B2E2
:1047100001904FF47000FCF7A9F94FF4FA70D849F2
:104720006C390867FF202070FA2060704420A07068
:10473000694601A8FFF7B0FFBDF80000A4F8030028
:104740009DF800009DF801100844FF2190FBF1F254
:1047500001FB12006071BDF90420CB49A01D02F0DD
:10476000BBF8BDF8040085B202E0C748405D0644CE
:10477000281EA5F101018DB2F7D1FF20B6FBF0F1A3
:1047800000FB1161BDF90400801D2154A621BDF973
:104790000400C01D2154BDF80400C01D82B2214692
:1047A000BA480078FFF77EFF1DE0B6480078D0B128
:1047B000B348FCF743F9C0F1320000B20190BDF9F3
:1047C0000420B349B34802F087F84FF47000FCF7B7
:1047D0004DF93220AA496C390867BDF9040000E0A0
:1047E0000AE0AD4908800121A548FCF710F940F224
:1047F0002441A048FDF7E0FD7CBD7CB50020019080
:1048000000900025002640F224419B48FDF7AAFDB8
:1048100000287DD09848008800B201909648001D7D
:10482000008800B2019000219C48FCF7F0F89C48F9
:104830000078002851D19948FCF700F9C0F5FA70CA
:1048400000B201909748FCF711F94FF4FA709349C0
:10485000091D0860FF202070FA2060704C20A070B5
:10486000694601A8FFF718FFBDF80000A4F803008F
:104870009DF800009DF801100844FF2190FBF1F223
:1048800001FB12006071BDF904207F49A01D02F0F8
:1048900023F8BDF8040085B202E07B48405D064481
:1048A000281EA5F101018DB2F7D1FF20B6FBF0F172
:1048B00000FB1161BDF90400801D2154A621BDF942
:1048C0000400C01D2154BDF80400C01D82B2214661
:1048D00075480078FFF7E6FE1CE071480078C8B123
:1048E0006E48FCF7ABF8C0F1320000B20190BDF9A0
:1048F00004206E496E4801F0EFFF6A48FCF7B6F8F5
:1049000032206649091D0860BDF90400694900E0CC
:1049100009E0088001216148FCF779F840F2244160
:104920005548FDF749FD7CBD10B54FF40010FCF76C
:10493000BCF84FF40000FCF7B8F800215048FCF731
:1049400066F85D48B0F900004D496C3908670121EF
:104950004B48FCF75CF810BD10B55848FCF7A5F8BB
:104960005748FCF7A2F800214C48FCF750F855488E
:10497000B0F900004949091D086001214748FCF7CA
:1049800046F810BD10B504463A48844202D1FDF7FE
:1049900029FB04E03848844201D1FDF723FB10BD18
:1049A000F0B591B007460D461646002400BF05E05D
:1049B0000120295D444A5054601CC4B2B442F7DB64
:1049C00001210846FCF78FFB01214802FCF798FB08
:1049D0002B486438FBF74EFF3C48FBF723FD3B4870
:1049E0004C3006903A48079000200890102009901B
:1049F00000200A9080200B9040000C9080000D90C9
:104A000020200E9000020F900020109006A91C4854
:104A10006438FBF7D1FF012119486438FBF7F7FF31
:104A20000020019001208DF808008DF809004FF456
:104A3000602003900020049010208DF8140001A93C
:104A40002248FBF716FD3846FCF7BEFA0523012283
:104A500000211E48FBF7A5FD0523022201211B486A
:104A6000FBF79FFD0523032202211848FBF799FD60
:104A700005232FE000440040004C00400038014076
:104A80006C000240E40000206C080020F2000020CE
:104A90007A0E0020480E0020EA0000203004024078
:104AA000E5000020000F0010F3000020DE0E0020C3
:104AB000AC0E0020EC000020EE00002000020010F0
:104AC00000080010F0000020300F002000240140FA
:104AD000100F002004220321FE48FBF762FD05238E
:104AE0001A460421FB48FBF75CFD05230622194604
:104AF000F848FBF756FD052307220621F548FBF78A
:104B000050FD052308220721F248FBF74AFD052343
:104B100009220821EF48FBF744FD05230A22092159
:104B2000EC48FBF73EFD05230B220A21E948FBF781
:104B300038FD05230C220B21E648FBF732FD052347
:104B40000D220C21E348FBF72CFD05230E220D213D
:104B5000E048FBF726FD05230F220E21DD48FBF779
:104B600020FD052310220F21DA48FBF71AFD012151
:104B7000D848FBF7B5FC0121D648FBF7A6FCD54881
:104B8000FBF7C5FC00BFD348FBF7C6FC0028FAD1F1
:104B9000D048FBF7CBFC00BFCE48FBF7CCFC00288D
:104BA000FAD10121CB48FBF7D0FC11B0F0BD10B514
:104BB000C848FBF737FC10BD2DE9F04387B08046AD
:104BC0000D4616461F46DDF8389000244046FFF794
:104BD000FFFA4046FCF7F8FA701E80B2ADF81400F8
:104BE000781E80B2ADF810000020ADF81600ADF8C8
:104BF000120004A94046FCF7BBFB6020ADF80000A2
:104C00000120ADF802000020ADF80800ADF80690D4
:104C100000BF32E0285D70B3285D012806D002286D
:104C20000DD0032814D0042824D11AE06946404648
:104C3000FCF7DBFB08214046FDF726F81AE0694641
:104C40004046FCF714FC08214046FDF726F811E029
:104C500069464046FCF758FC08214046FDF72AF813
:104C600008E069464046FCF79AFC08214046FDF7FB
:104C70002AF800BF00BF601C04B2042CCADB01216B
:104C80004046FCF7DDFE01214046FCF7CDFF012147
:104C90004046FCF7C9FE07B0BDE8F0830146042991
:104CA00002D00C2904D101E0042070471020FCE759
:104CB0000020FAE7F0B587B007460D46002400262D
:104CC0003846FFF785FA4FF48060FBF73DFB384626
:104CD000FFF705FBC0B28DF800003846FFF7FFFA7A
:104CE000322807D03846FFF7FAFA1C38C0B28DF8E0
:104CF000010002E003208DF8010003208DF802007E
:104D000001208DF803006846FBF723FB4FF6FF7088
:104D1000ADF814000020ADF81000ADF81600ADF8A5
:104D2000120004A93846FCF723FB0220ADF8060068
:104D30000120ADF808000020ADF80A00ADF80C0025
:104D4000002412E055F8240070B135F8241088B220
:104D5000FFF7A4FF064335F8240080B2ADF8040045
:104D600001A93846FCF7E2FD641C022CEADB602155
:104D70003846FCF793FE04213846FDF7D7F880212A
:104D80003846FDF7DCF8012231463846FCF767FE6D
:104D900031463846FDF70EF901213846FCF744FE4E
:104DA00007B0F0BD02460B46002100BF07E04A48AD
:104DB00050F82100904201D101207047491C47481A
:104DC00000788142F3DB0020F7E770B586B0044637
:104DD0000D4616462046FFF7FBF92046FCF7F4F98E
:104DE0000520ADF800004FF6FF70ADF8040000207C
:104DF000ADF80600ADF8020069462046FCF7B8FAA7
:104E0000A9B200231A462046FCF7C1FE03A8FCF70E
:104E1000EEFD0120ADF8140003A92046FCF73BFD90
:104E20000020A08401212046FCF7FEFD2A492046EF
:104E3000FFF7B8FF08B106B070BD294827490978C7
:104E400040F8216024482549097840F8214023484A
:104E50000078401C2149087000F049FB00BFEAE7D8
:104E600010B504462046FCF7AFF910BD2DE9F0411E
:104E700004210807FDF7A1F8E8B100240026002569
:104E80004FF08040048F858E16480068B0FBF4F721
:104E9000384601F007FE0646601B134908601348B8
:104EA00005601349304601F04DFD074601F0FFFD56
:104EB0001049086000BF10218806FDF77EF890B306
:104EC0000024002600250C4804880006858F05482C
:104ED000006813E000240140880F002054010020E6
:104EE000580F002000000020F400002014010020D2
:104EF00000007A443401002040000040B0FBF4F789
:104F0000384601F0CFFD0646601B7A4948607A4872
:104F100045607A49304601F015FD074601F0C7FDAE
:104F20007749486000BFBDE8F0812DE9F0410421D8
:104F30007448FDF742F8F0B10024002600257148BE
:104F400038300488001F05886F480068B0FBF4F70C
:104F5000384601F0A7FD0646601B6C4908606C48A6
:104F600005606649304601F0EDFC074601F09FFD03
:104F70006849086000BF10216248FDF71EF8F0B1D3
:104F80000024002600255F4840300488001F058863
:104F90005D480068B0FBF4F7384601F083FD064633
:104FA000601B5A4948605A4845605449304601F0F0
:104FB000C9FC074601F07BFD5649486000BFBDE8CB
:104FC000F0812DE9F04104215348FCF7F6FFF0B1E0
:104FD000002400260025504838300488001F05882A
:104FE00049480068B0FBF4F7384601F05BFD06461F
:104FF000601B4A4908604A4805604049304601F054
:10500000A1FC074601F053FD4649086000BF10218E
:105010004148FCF7D2FFF0B10024002600253E48AD
:1050200040300488001F058837480068B0FBF4F75B
:10503000384601F037FD0646601B3849486038485D
:1050400045602E49304601F07DFC074601F02FFDFA
:105050003449486000BFBDE8F0812DE9F0410421EA
:105060003148FCF7AAFFF0B10024002600252E48A5
:1050700038300488001F058823480068B0FBF4F727
:10508000384601F00FFD0646601B28490860284895
:1050900005601A49304601F055FC074601F007FD4E
:1050A0002449086000BF10211F48FCF786FFF0B1BB
:1050B0000024002600251C4840300488001F058875
:1050C00011480068B0FBF4F7384601F0EBFC0646E7
:1050D000601B16494860164845600849304601F093
:1050E00031FC074601F0E3FC1249486000BFBDE80F
:1050F000F0810000F40000201401002000007A4438
:10510000340100200004004000000020FC000020CA
:105110001C0100203C010020000800400401002088
:105120002401002044010020000C00400C0100205C
:105130002C0100204C01002070B504460D46CE48DD
:10514000007820B12A462146CC48FDF75FFACC48CA
:10515000007818B12946204601F0CCFA70BDD3B2D0
:10516000012B02D18BB2036103E0D3B20BB98BB236
:1051700043617047F8B504460D460026A0682840F4
:1051800008B1012600E00026E4208DF800008DF82B
:10519000016002216846FFF7CFFFF8BD70B50446F5
:1051A0000D461646324629462046FDF72FFA70BDB9
:1051B00070B504460D4629462046FFF7BDFF70BD79
:1051C000024613780B7053784B7093788B70D378BA
:1051D000CB7070472DE9F04F85B081464FF0000A43
:1051E0000024A84931F8190001F05CFC4FF08B4114
:1051F000009001F0A7FB834601F06DFC07464FF0DD
:105200006632A14B01F0DCFB054601F077FC019012
:1052100004A901A8FFF7D4FFC3208DF8080000BF40
:1052200006E004A8005D50441FFA80FA601CC4B276
:10523000042CF6DB0498CDF80900FF209AFBF0F16E
:1052400000FB11A0C0B28DF80D00062102A8FFF7E7
:1052500073FF05B0BDE8F08F012906D0022906D002
:10526000032906D0042909D105E0828606E00287D9
:1052700004E0828702E0A0F8402000BF00BF704732
:1052800001850122828270472DE9FF4107460D46C4
:10529000002600247D4850F82500009003A96846A8
:1052A000FFF78EFFD8208DF8040000BF05E003A8AB
:1052B000005D304486B2601CC4B2042CF7DB039856
:1052C000CDF80500FF2096FBF0F100FB1160C0B2A5
:1052D0008DF80900062101A8FFF72EFFBDE8FF8128
:1052E000024613780B7053784B7093788B70D37899
:1052F000CB7070472DE9FF4107460C464FF0000880
:105300000026251104F00F04B7F1804F09D0604842
:105310003844A0B1B0F5806F1FD0B0F5006F38D120
:1053200029E0012D05D1601E5A4951F82000009056
:1053300004E0601E584951F82000009029E0012D3A
:1053400005D1601E554951F82000009004E0601E10
:10535000534951F8200000901BE0012D05D1601E3B
:10536000504951F82000009004E0601E4E4951F869
:10537000200000900DE0012D05D1601E4B4951F831
:105380002000009004E0601E494951F82000009080
:1053900000BF00BF03A96846FFF7A2FFD6208DF823
:1053A0000400002606E003A8805D40441FFA80F850
:1053B000701CC6B2042EF6DB0398CDF80500FF2062
:1053C00098FBF0F100FB1180C0B28DF809000621B6
:1053D00001A8FFF7B1FEBDE8FF812DE9FF410646B8
:1053E0000C4600270025B6F1804F09D028483044EC
:1053F00060B1B0F5806F0FD0B0F5006F18D111E03B
:10540000601E2C4951F82000009011E0601E2A49CE
:1054100051F8200000900BE0601E284951F8200050
:10542000009005E0601E264951F82000009000BF62
:1054300000BF03A96846FFF753FFD7208DF804008B
:10544000002505E003A8405D384487B2681CC5B25A
:10545000042DF7DB0398CDF80500FF2097FBF0F152
:1054600000FB1170C0B28DF80900062101A8FFF7FA
:1054700063FEBDE8FF8100002B00002000380140E2
:105480006C010020100F002066660A40700F00209B
:1054900000FCFFBFF400002014010020FC000020ED
:1054A0001C01002004010020240100200C01002028
:1054B0002C010020340100203C0100204401002088
:1054C0004C01002008B54FF4A060FAF73DFF3620EC
:1054D0008DF8000002208DF8010000208DF80200F8
:1054E00001208DF803006846FAF733FF08BD0EB5BA
:1054F00001211020FBF711FE41F61F40ADF800001E
:105500000920ADF804000020ADF80600ADF8020057
:1055100069461D48FBF72CFF012211461A48FCF78B
:105520009EFA01211848FCF759FD01211648FCF7A5
:105530007BFAFFF7C7FF0EBD10B5002400BF1DE0CA
:10554000124850F82400401C104941F82400084635
:1055500050F824000E4951F8241088420CD90D4906
:1055600051F82410888C01F09DFA0B490860002046
:10557000084951F824108884601CC4B20748007898
:105580008442DDDB10BD000000100040400F002011
:10559000580F0020880F0020700F002054010020B9
:1055A00070B504460D460CB9022070BD25812089D6
:1055B00001F00CFD20602189206801F0A6F900208F
:1055C000A080E08060810120EFE702460AB9022056
:1055D0007047D3881068C154D0889388984201D10D
:1055E00000205081D088401CD0805089401C5081C0
:1055F000D0881389984201D10020D0800120E7E7AC
:1056000070B503460C460BB9022070BD002117E0AF
:10561000605CDE881D68A855D8889D88A84201D1A5
:1056200000205881D888401CD8805889401C588157
:10563000D8881D89A84201D10020D880481C81B299
:105640009142E5DB0120E0E702460AB902207047FB
:1056500000BF50890028FCD093881068C05C087097
:105660009088401C90805089401E508190881389FA
:10567000984201D1002090800120E8E72DE9F04117
:1056800006460C46174698463D4606B114B9022018
:10569000BDE8F08100BF7089A842FCDBB8F1010FC2
:1056A0000CD1E019441E06E02146641E3046FFF787
:1056B000CBFF681E85B2002DF6D10CE0B8F1020FC9
:1056C00009D106E02146641C3046FFF7BDFF681E85
:1056D00085B2002DF6D10120DAE710B504460CB9E9
:1056E000012010BD206801F049FC0020206001204D
:1056F000F7E703460BB90120704799805A810120D2
:10570000FAE7024609B9012303718B8803804B89AC
:1057100043800368136083889380704730B5F74CEB
:10572000F74D2D7844F825002546F54C2478641C67
:1057300045F82420F34CF24D2D7844F825102546E9
:10574000EF4C2478641C45F82430ED4C2478A41CDC
:10575000EB4D2C7030BDF8B507460C4615461E467D
:105760003846FEF735FD2846FEF732FDA0B2ADF80B
:10577000000010208DF8030001208DF8020069461A
:105780003846FBF701FAB0B2ADF8000010208DF8F2
:10579000030001208DF8020069462846FBF7F4F962
:1057A000A0B23861B0B2286133462A462146384655
:1057B000FFF7B4FFF8BD38B50446D24830F82400EE
:1057C00080B2ADF8000001208DF8020028208DF88D
:1057D0000300CA4951F824006946FBF7D5F938BDE2
:1057E00038B50446C74830F8240080B2ADF8000050
:1057F00001208DF8020010208DF80300BF4951F8F8
:1058000024006946FBF7C0F938BD0020BB49BE4AF9
:10581000127851F822108968BA4ABB4B1B7852F8AB
:105820002320114009B1012000E00020704738B169
:10583000B44A52F82120B14B53F821301A6106E0E6
:10584000B04A52F82120AD4B53F821305A617047CD
:1058500038B1AC4A52F82120A84B53F821301A61D4
:1058600006E0A84A52F82120A44B53F821305A618F
:10587000704700B5A548007800282CD0A2480178D0
:105880000120FFF7D4FF002000E0401CB0F5FA7FB4
:10589000FBD39F4801780120FFF7DAFF002000E0EA
:1058A000401CB0F5FA7FFBD3974801780020FFF742
:1058B000BEFF002000E0401CB0F5FA7FFBD3944807
:1058C00001780020FFF7C4FF002000E0401CB0F585
:1058D000FA7FFBD300BF00BD00B58C4800780028DC
:1058E0002CD08B4801780020FFF7B2FF002000E0A9
:1058F000401CB0F5FA7FFBD3834801780020FFF706
:1059000096FF002000E0401CB0F5FA7FFBD38048F2
:1059100001780120FFF79CFF002000E0401CB0F55B
:10592000FA7FFBD3784801780120FFF780FF002041
:1059300000E0401CB0F5FA7FFBD300BF00BD10B5FE
:1059400072480078002840D005246F480078FFF79F
:1059500032FF002000E0401CB0F5FA7FFBD36C481A
:1059600001780120FFF774FF002000E0401CB0F533
:10597000FA7FFBD312E0601EC4B2002000E0401C9E
:10598000B0F5FA7FFBD34CB95F480078FFF728FFEA
:10599000FFF7A2FF00205D49087010BDFFF735FF3B
:1059A0000028E8D158480078FFF71AFF58480178D6
:1059B0000020FFF74DFF002000E0401CB0F5FA7F0B
:1059C000FBD3012051490870E7E700BFE5E700B5C8
:1059D0004E48007838B34C4801780020FFF727FF85
:1059E000002000E0401CB0F5FA7FFBD3002000E06F
:1059F000401CB0F5FA7FFBD3454801780120FFF742
:105A000027FF002000E0401CB0F5FA7FFBD34048A0
:105A100001780020FFF71CFF002000E0401CB0F5DB
:105A2000FA7FFBD300BF00BD00B53848007838B31B
:105A3000354801780120FFF7FAFE002000E0401C05
:105A4000B0F5FA7FFBD3002000E0401CB0F5FA7FF0
:105A5000FBD32F4801780120FFF7FAFE002000E079
:105A6000401CB0F5FA7FFBD3294801780020FFF7EE
:105A7000EFFE002000E0401CB0F5FA7FFBD300BF32
:105A800000BD30B50446082520480078002846D0DF
:105A90002BE01F4801780020FFF7DAFE002000E02D
:105AA000401CB0F5FA7FFBD304F08000164909785A
:105AB000FFF7BDFE002000E0401CB0F5FA7FFBD3ED
:105AC0006006040E002000E0401CB0F5FA7FFBD316
:105AD0000F4801780120FFF7BBFE002000E0401CCA
